{
	"data": {
		"bytecode": {
			"linkReferences": {},
			"object": "60806040523480156200001157600080fd5b50604051620056643803806200566483398181016040528101906200003791906200016e565b82806000806101000a81548173ffffffffffffffffffffffffffffffffffffffff021916908373ffffffffffffffffffffffffffffffffffffffff1602179055505081600160006101000a81548173ffffffffffffffffffffffffffffffffffffffff021916908373ffffffffffffffffffffffffffffffffffffffff16021790555080600260006101000a81548173ffffffffffffffffffffffffffffffffffffffff021916908373ffffffffffffffffffffffffffffffffffffffff160217905550505050620001ca565b600080fd5b600073ffffffffffffffffffffffffffffffffffffffff82169050919050565b6000620001368262000109565b9050919050565b620001488162000129565b81146200015457600080fd5b50565b60008151905062000168816200013d565b92915050565b6000806000606084860312156200018a576200018962000104565b5b60006200019a8682870162000157565b9350506020620001ad8682870162000157565b9250506040620001c08682870162000157565b9150509250925092565b61548a80620001da6000396000f3fe6080604052600436106101145760003560e01c806382ad56cb116100a0578063c9f58a4211610064578063c9f58a4214610448578063e3d416bf14610485578063ef9beda9146104c2578063f1745d3d146104ff578063f887ea401461053c57610114565b806382ad56cb1461031e578063857869681461034e578063b9b435851461038d578063beea729f146103cb578063c1e30fbe1461040a57610114565b806335fe70f4116100e757806335fe70f4146101eb57806337e726491461022857806363bb6add146102675780636eb2909b146102a45780638129b156146102e157610114565b806311089f44146101195780632206d3bd1461014457806322f986671461016f57806334c7e984146101ac575b600080fd5b34801561012557600080fd5b5061012e610567565b60405161013b91906139da565b60405180910390f35b34801561015057600080fd5b5061015961058d565b60405161016691906139da565b60405180910390f35b34801561017b57600080fd5b5061019660048036038101906101919190613a47565b6105b3565b6040516101a39190613a8d565b60405180910390f35b3480156101b857600080fd5b506101d360048036038101906101ce9190613a47565b6108be565b6040516101e293929190613aa8565b60405180910390f35b3480156101f757600080fd5b50610212600480360381019061020d9190613a47565b610a11565b60405161021f9190613a8d565b60405180910390f35b34801561023457600080fd5b5061024f600480360381019061024a9190613a47565b610cab565b60405161025e93929190613aa8565b60405180910390f35b34801561027357600080fd5b5061028e60048036038101906102899190613b5b565b610dfe565b60405161029b9190613da0565b60405180910390f35b3480156102b057600080fd5b506102cb60048036038101906102c69190613b5b565b61114a565b6040516102d89190613ed9565b60405180910390f35b3480156102ed57600080fd5b5061030860048036038101906103039190613efb565b6115e7565b6040516103159190614065565b60405180910390f35b610338600480360381019061033391906140ec565b611aa8565b60405161034591906142e3565b60405180910390f35b34801561035a57600080fd5b5061037560048036038101906103709190614305565b611c72565b60405161038493929190613aa8565b60405180910390f35b34801561039957600080fd5b506103b460048036038101906103af9190614396565b611d83565b6040516103c29291906143d6565b60405180910390f35b3480156103d757600080fd5b506103f260048036038101906103ed9190613b5b565b612023565b60405161040193929190613aa8565b60405180910390f35b34801561041657600080fd5b50610431600480360381019061042c919061443d565b6123c3565b60405161043f9291906143d6565b60405180910390f35b34801561045457600080fd5b5061046f600480360381019061046a9190613efb565b612663565b60405161047c91906145a7565b60405180910390f35b34801561049157600080fd5b506104ac60048036038101906104a79190613b5b565b612be1565b6040516104b99190614701565b60405180910390f35b3480156104ce57600080fd5b506104e960048036038101906104e49190614761565b612f2e565b6040516104f691906148f2565b60405180910390f35b34801561050b57600080fd5b5061052660048036038101906105219190613a47565b61341f565b6040516105339190613a8d565b60405180910390f35b34801561054857600080fd5b50610551613737565b60405161055e9190614935565b60405180910390f35b600260009054906101000a900473ffffffffffffffffffffffffffffffffffffffff1681565b600160009054906101000a900473ffffffffffffffffffffffffffffffffffffffff1681565b60008060008060008054906101000a900473ffffffffffffffffffffffffffffffffffffffff1673ffffffffffffffffffffffffffffffffffffffff166331664ebf866040518263ffffffff1660e01b8152600401610612919061495f565b600060405180830381865afa15801561062f573d6000803e3d6000fd5b505050506040513d6000823e3d601f19601f820116820180604052508101906106589190614ae4565b509350935093505060008060008054906101000a900473ffffffffffffffffffffffffffffffffffffffff1673ffffffffffffffffffffffffffffffffffffffff1663f55dd6c16040518163ffffffff1660e01b8152600401602060405180830381865afa1580156106ce573d6000803e3d6000fd5b505050506040513d601f19601f820116820180604052508101906106f29190614bb9565b73ffffffffffffffffffffffffffffffffffffffff166302f55b61886040518263ffffffff1660e01b815260040161072a919061495f565b6040805180830381865afa158015610746573d6000803e3d6000fd5b505050506040513d601f19601f8201168201806040525081019061076a9190614be6565b9150915060008060009054906101000a900473ffffffffffffffffffffffffffffffffffffffff1673ffffffffffffffffffffffffffffffffffffffff1663e2e1ca2b896040518263ffffffff1660e01b81526004016107ca919061495f565b602060405180830381865afa1580156107e7573d6000803e3d6000fd5b505050506040513d601f19601f8201168201806040525081019061080b9190614c26565b90506000808511801561081d57508383115b6108275783610855565b848285856108359190614c82565b61083f9190614cb6565b6108499190614d27565b846108549190614d58565b5b905060008511610874576000821161086d578361086f565b805b6108b0565b620f4240856108839190614cb6565b868261088f9190614cb6565b888661089b9190614cb6565b6108a59190614d58565b6108af9190614d27565b5b975050505050505050919050565b60008060006108cc846105b3565b9250600160009054906101000a900473ffffffffffffffffffffffffffffffffffffffff1673ffffffffffffffffffffffffffffffffffffffff166322f98667856040518263ffffffff1660e01b8152600401610929919061495f565b602060405180830381865afa158015610946573d6000803e3d6000fd5b505050506040513d601f19601f8201168201806040525081019061096a9190614c26565b9150600260009054906101000a900473ffffffffffffffffffffffffffffffffffffffff1673ffffffffffffffffffffffffffffffffffffffff166322f98667856040518263ffffffff1660e01b81526004016109c7919061495f565b602060405180830381865afa1580156109e4573d6000803e3d6000fd5b505050506040513d601f19601f82011682018060405250810190610a089190614c26565b90509193909250565b60008060008060009054906101000a900473ffffffffffffffffffffffffffffffffffffffff1673ffffffffffffffffffffffffffffffffffffffff1663f55dd6c16040518163ffffffff1660e01b8152600401602060405180830381865afa158015610a82573d6000803e3d6000fd5b505050506040513d601f19601f82011682018060405250810190610aa69190614bb9565b73ffffffffffffffffffffffffffffffffffffffff166302f55b61856040518263ffffffff1660e01b8152600401610ade919061495f565b6040805180830381865afa158015610afa573d6000803e3d6000fd5b505050506040513d601f19601f82011682018060405250810190610b1e9190614be6565b9150915060008060009054906101000a900473ffffffffffffffffffffffffffffffffffffffff1673ffffffffffffffffffffffffffffffffffffffff16636bbe56cf866040518263ffffffff1660e01b8152600401610b7e919061495f565b602060405180830381865afa158015610b9b573d6000803e3d6000fd5b505050506040513d601f19601f82011682018060405250810190610bbf9190614c26565b9050600081118015610bd057508282115b610bda5782610ca1565b8060008054906101000a900473ffffffffffffffffffffffffffffffffffffffff1673ffffffffffffffffffffffffffffffffffffffff1663e2e1ca2b876040518263ffffffff1660e01b8152600401610c34919061495f565b602060405180830381865afa158015610c51573d6000803e3d6000fd5b505050506040513d601f19601f82011682018060405250810190610c759190614c26565b8484610c819190614c82565b610c8b9190614cb6565b610c959190614d27565b83610ca09190614d58565b5b9350505050919050565b6000806000610cb98461341f565b9250600160009054906101000a900473ffffffffffffffffffffffffffffffffffffffff1673ffffffffffffffffffffffffffffffffffffffff1663f1745d3d856040518263ffffffff1660e01b8152600401610d16919061495f565b602060405180830381865afa158015610d33573d6000803e3d6000fd5b505050506040513d601f19601f82011682018060405250810190610d579190614c26565b9150600260009054906101000a900473ffffffffffffffffffffffffffffffffffffffff1673ffffffffffffffffffffffffffffffffffffffff1663f1745d3d856040518263ffffffff1660e01b8152600401610db4919061495f565b602060405180830381865afa158015610dd1573d6000803e3d6000fd5b505050506040513d601f19601f82011682018060405250810190610df59190614c26565b90509193909250565b606060008373ffffffffffffffffffffffffffffffffffffffff1663f65baefa6040518163ffffffff1660e01b8152600401600060405180830381865afa158015610e4d573d6000803e3d6000fd5b505050506040513d6000823e3d601f19601f82011682018060405250810190610e769190614e64565b9050805167ffffffffffffffff811115610e9357610e9261497a565b5b604051908082528060200260200182016040528015610ecc57816020015b610eb96137a7565b815260200190600190039081610eb15790505b50915060005b81518110156111425760008060008773ffffffffffffffffffffffffffffffffffffffff1663193039d1868681518110610f0f57610f0e614ead565b5b60200260200101516040518263ffffffff1660e01b8152600401610f33919061495f565b600060405180830381865afa158015610f50573d6000803e3d6000fd5b505050506040513d6000823e3d601f19601f82011682018060405250810190610f799190614edc565b5092509250925060008773ffffffffffffffffffffffffffffffffffffffff1663b3596f07878781518110610fb157610fb0614ead565b5b60200260200101516040518263ffffffff1660e01b8152600401610fd5919061495f565b602060405180830381865afa158015610ff2573d6000803e3d6000fd5b505050506040513d601f19601f820116820180604052508101906110169190614c26565b905085858151811061102b5761102a614ead565b5b602002602001015187868151811061104657611045614ead565b5b60200260200101516000019073ffffffffffffffffffffffffffffffffffffffff16908173ffffffffffffffffffffffffffffffffffffffff16815250508287868151811061109857611097614ead565b5b602002602001015160200181815250506305f5e10081846110b99190614cb6565b6110c39190614d27565b8786815181106110d6576110d5614ead565b5b60200260200101516040018181525050818786815181106110fa576110f9614ead565b5b602002602001015160600181815250508387868151811061111e5761111d614ead565b5b602002602001015160800181905250505050508061113b90614f5f565b9050610ed2565b505092915050565b606060008373ffffffffffffffffffffffffffffffffffffffff1663f65baefa6040518163ffffffff1660e01b8152600401600060405180830381865afa158015611199573d6000803e3d6000fd5b505050506040513d6000823e3d601f19601f820116820180604052508101906111c29190614e64565b9050805167ffffffffffffffff8111156111df576111de61497a565b5b60405190808252806020026020018201604052801561121857816020015b6112056137ec565b8152602001906001900390816111fd5790505b50915060005b81518110156115df5760008473ffffffffffffffffffffffffffffffffffffffff1663b3596f0784848151811061125857611257614ead565b5b60200260200101516040518263ffffffff1660e01b815260040161127c919061495f565b602060405180830381865afa158015611299573d6000803e3d6000fd5b505050506040513d601f19601f820116820180604052508101906112bd9190614c26565b90506305f5e100818773ffffffffffffffffffffffffffffffffffffffff16636bbe56cf8686815181106112f4576112f3614ead565b5b60200260200101516040518263ffffffff1660e01b8152600401611318919061495f565b602060405180830381865afa158015611335573d6000803e3d6000fd5b505050506040513d601f19601f820116820180604052508101906113599190614c26565b6113639190614cb6565b61136d9190614d27565b8483815181106113805761137f614ead565b5b602002602001015160000181815250506113b38383815181106113a6576113a5614ead565b5b60200260200101516105b3565b8483815181106113c6576113c5614ead565b5b602002602001015160200181815250506305f5e100818773ffffffffffffffffffffffffffffffffffffffff1663e2e1ca2b86868151811061140b5761140a614ead565b5b60200260200101516040518263ffffffff1660e01b815260040161142f919061495f565b602060405180830381865afa15801561144c573d6000803e3d6000fd5b505050506040513d601f19601f820116820180604052508101906114709190614c26565b61147a9190614cb6565b6114849190614d27565b84838151811061149757611496614ead565b5b602002602001015160400181815250506114ca8383815181106114bd576114bc614ead565b5b602002602001015161341f565b8483815181106114dd576114dc614ead565b5b6020026020010151602001818152505060008673ffffffffffffffffffffffffffffffffffffffff166331664ebf85858151811061151e5761151d614ead565b5b60200260200101516040518263ffffffff1660e01b8152600401611542919061495f565b600060405180830381865afa15801561155f573d6000803e3d6000fd5b505050506040513d6000823e3d601f19601f820116820180604052508101906115889190614ae4565b5050925050506305f5e100828261159f9190614cb6565b6115a99190614d27565b8584815181106115bc576115bb614ead565b5b602002602001015160800181815250505050806115d890614f5f565b905061121e565b505092915050565b606060008473ffffffffffffffffffffffffffffffffffffffff1663f65baefa6040518163ffffffff1660e01b8152600401600060405180830381865afa158015611636573d6000803e3d6000fd5b505050506040513d6000823e3d601f19601f8201168201806040525081019061165f9190614e64565b9050805167ffffffffffffffff81111561167c5761167b61497a565b5b6040519080825280602002602001820160405280156116b557816020015b6116a261381b565b81526020019060019003908161169a5790505b50915060008573ffffffffffffffffffffffffffffffffffffffff166367e4ac2c6040518163ffffffff1660e01b8152600401600060405180830381865afa158015611705573d6000803e3d6000fd5b505050506040513d6000823e3d601f19601f8201168201806040525081019061172e919061518a565b905060005b8251811015611a9e57600082828151811061175157611750614ead565b5b602002602001015190506000816080015173ffffffffffffffffffffffffffffffffffffffff166324570f8d886040518263ffffffff1660e01b815260040161179a919061495f565b602060405180830381865afa1580156117b7573d6000803e3d6000fd5b505050506040513d601f19601f820116820180604052508101906117db9190614c26565b9050600081036117ec575050611a8d565b60008873ffffffffffffffffffffffffffffffffffffffff1663b3596f0787868151811061181d5761181c614ead565b5b60200260200101516040518263ffffffff1660e01b8152600401611841919061495f565b602060405180830381865afa15801561185e573d6000803e3d6000fd5b505050506040513d601f19601f820116820180604052508101906118829190614c26565b905060006118a987868151811061189c5761189b614ead565b5b602002602001015161341f565b90508685815181106118be576118bd614ead565b5b60200260200101518886815181106118d9576118d8614ead565b5b60200260200101516000019073ffffffffffffffffffffffffffffffffffffffff16908173ffffffffffffffffffffffffffffffffffffffff16815250506305f5e10082846119289190614cb6565b6119329190614d27565b88868151811061194557611944614ead565b5b602002602001015160200181815250508088868151811061196957611968614ead565b5b602002602001015160400181815250508a73ffffffffffffffffffffffffffffffffffffffff1663676573bf8a8988815181106119a9576119a8614ead565b5b60200260200101516040518363ffffffff1660e01b81526004016119ce9291906151d3565b602060405180830381865afa1580156119eb573d6000803e3d6000fd5b505050506040513d601f19601f82011682018060405250810190611a0f9190614c26565b888681518110611a2257611a21614ead565b5b6020026020010151606001818152505061016d816305f5e1008486611a479190614cb6565b611a519190614d27565b611a5b9190614cb6565b611a659190614d27565b888681518110611a7857611a77614ead565b5b60200260200101516080018181525050505050505b80611a9790614f5f565b9050611733565b5050509392505050565b606060008383905090508067ffffffffffffffff811115611acc57611acb61497a565b5b604051908082528060200260200182016040528015611b0557816020015b611af2613860565b815260200190600190039081611aea5790505b5091503660005b82811015611c69576000848281518110611b2957611b28614ead565b5b60200260200101519050868683818110611b4657611b45614ead565b5b9050602002810190611b58919061520b565b9250826000016020810190611b6d9190613a47565b73ffffffffffffffffffffffffffffffffffffffff16838060400190611b939190615233565b604051611ba19291906152d5565b6000604051808303816000865af19150503d8060008114611bde576040519150601f19603f3d011682016040523d82523d6000602084013e611be3565b606091505b508260000183602001829052821515151581525050508051602084013517611c5d577f08c379a000000000000000000000000000000000000000000000000000000000600052602060045260176024527f4d756c746963616c6c333a2063616c6c206661696c656400000000000000000060445260646000fd5b81600101915050611b0c565b50505092915050565b60008060008573ffffffffffffffffffffffffffffffffffffffff1663caf7315b86866040518363ffffffff1660e01b8152600401611cb29291906151d3565b606060405180830381865afa158015611ccf573d6000803e3d6000fd5b505050506040513d601f19601f82011682018060405250810190611cf391906152ee565b5080935081945050508573ffffffffffffffffffffffffffffffffffffffff1663676573bf86866040518363ffffffff1660e01b8152600401611d379291906151d3565b602060405180830381865afa158015611d54573d6000803e3d6000fd5b505050506040513d601f19601f82011682018060405250810190611d789190614c26565b905093509350939050565b60008060008473ffffffffffffffffffffffffffffffffffffffff16636f307dc36040518163ffffffff1660e01b8152600401602060405180830381865afa158015611dd3573d6000803e3d6000fd5b505050506040513d601f19601f82011682018060405250810190611df79190615341565b90506000808673ffffffffffffffffffffffffffffffffffffffff166318160ddd6040518163ffffffff1660e01b8152600401602060405180830381865afa158015611e47573d6000803e3d6000fd5b505050506040513d601f19601f82011682018060405250810190611e6b9190614c26565b11611e77576000611f73565b8573ffffffffffffffffffffffffffffffffffffffff166318160ddd6040518163ffffffff1660e01b8152600401602060405180830381865afa158015611ec2573d6000803e3d6000fd5b505050506040513d601f19601f82011682018060405250810190611ee69190614c26565b670de0b6b3a76400008773ffffffffffffffffffffffffffffffffffffffff1663b1bf962d6040518163ffffffff1660e01b8152600401602060405180830381865afa158015611f3a573d6000803e3d6000fd5b505050506040513d601f19601f82011682018060405250810190611f5e9190614c26565b611f689190614cb6565b611f729190614d27565b5b905060008573ffffffffffffffffffffffffffffffffffffffff1663b3596f07846040518263ffffffff1660e01b8152600401611fb0919061495f565b602060405180830381865afa158015611fcd573d6000803e3d6000fd5b505050506040513d601f19601f82011682018060405250810190611ff19190614c26565b905060006305f5e10082846120069190614cb6565b6120109190614d27565b9050828195509550505050509250929050565b60008060008060008060008060008060008c73ffffffffffffffffffffffffffffffffffffffff1663f65baefa6040518163ffffffff1660e01b8152600401600060405180830381865afa15801561207f573d6000803e3d6000fd5b505050506040513d6000823e3d601f19601f820116820180604052508101906120a89190614e64565b905060005b81518110156123aa578d73ffffffffffffffffffffffffffffffffffffffff16636bbe56cf8383815181106120e5576120e4614ead565b5b60200260200101516040518263ffffffff1660e01b8152600401612109919061495f565b602060405180830381865afa158015612126573d6000803e3d6000fd5b505050506040513d601f19601f8201168201806040525081019061214a9190614c26565b95508d73ffffffffffffffffffffffffffffffffffffffff1663e2e1ca2b83838151811061217b5761217a614ead565b5b60200260200101516040518263ffffffff1660e01b815260040161219f919061495f565b602060405180830381865afa1580156121bc573d6000803e3d6000fd5b505050506040513d601f19601f820116820180604052508101906121e09190614c26565b94508d73ffffffffffffffffffffffffffffffffffffffff166331664ebf83838151811061221157612210614ead565b5b60200260200101516040518263ffffffff1660e01b8152600401612235919061495f565b600060405180830381865afa158015612252573d6000803e3d6000fd5b505050506040513d6000823e3d601f19601f8201168201806040525081019061227b9190614ae4565b909192935090919250905050809450508c73ffffffffffffffffffffffffffffffffffffffff1663b3596f078383815181106122ba576122b9614ead565b5b60200260200101516040518263ffffffff1660e01b81526004016122de919061495f565b602060405180830381865afa1580156122fb573d6000803e3d6000fd5b505050506040513d601f19601f8201168201806040525081019061231f9190614c26565b92506305f5e10083876123329190614cb6565b61233c9190614d27565b896123479190614d58565b98506305f5e100838661235a9190614cb6565b6123649190614d27565b8861236f9190614d58565b97506305f5e10083856123829190614cb6565b61238c9190614d27565b876123979190614d58565b9650806123a390614f5f565b90506120ad565b508787879a509a509a5050505050505050509250925092565b60008060008473ffffffffffffffffffffffffffffffffffffffff16636f307dc36040518163ffffffff1660e01b8152600401602060405180830381865afa158015612413573d6000803e3d6000fd5b505050506040513d601f19601f820116820180604052508101906124379190615341565b90506000808673ffffffffffffffffffffffffffffffffffffffff166318160ddd6040518163ffffffff1660e01b8152600401602060405180830381865afa158015612487573d6000803e3d6000fd5b505050506040513d601f19601f820116820180604052508101906124ab9190614c26565b116124b75760006125b3565b8573ffffffffffffffffffffffffffffffffffffffff166318160ddd6040518163ffffffff1660e01b8152600401602060405180830381865afa158015612502573d6000803e3d6000fd5b505050506040513d601f19601f820116820180604052508101906125269190614c26565b670de0b6b3a76400008773ffffffffffffffffffffffffffffffffffffffff1663fc7b9c186040518163ffffffff1660e01b8152600401602060405180830381865afa15801561257a573d6000803e3d6000fd5b505050506040513d601f19601f8201168201806040525081019061259e9190614c26565b6125a89190614cb6565b6125b29190614d27565b5b905060008573ffffffffffffffffffffffffffffffffffffffff1663b3596f07846040518263ffffffff1660e01b81526004016125f0919061495f565b602060405180830381865afa15801561260d573d6000803e3d6000fd5b505050506040513d601f19601f820116820180604052508101906126319190614c26565b905060006305f5e10082846126469190614cb6565b6126509190614d27565b9050828195509550505050509250929050565b606060008473ffffffffffffffffffffffffffffffffffffffff1663f65baefa6040518163ffffffff1660e01b8152600401600060405180830381865afa1580156126b2573d6000803e3d6000fd5b505050506040513d6000823e3d601f19601f820116820180604052508101906126db9190614e64565b9050805167ffffffffffffffff8111156126f8576126f761497a565b5b60405190808252806020026020018201604052801561273157816020015b61271e61387c565b8152602001906001900390816127165790505b50915060008573ffffffffffffffffffffffffffffffffffffffff166367e4ac2c6040518163ffffffff1660e01b8152600401600060405180830381865afa158015612781573d6000803e3d6000fd5b505050506040513d6000823e3d601f19601f820116820180604052508101906127aa919061518a565b905060005b8251811015612bd75760008282815181106127cd576127cc614ead565b5b602002602001015190506000816060015173ffffffffffffffffffffffffffffffffffffffff16631da24f3e886040518263ffffffff1660e01b8152600401612816919061495f565b602060405180830381865afa158015612833573d6000803e3d6000fd5b505050506040513d601f19601f820116820180604052508101906128579190614c26565b905060008103612868575050612bc6565b60008873ffffffffffffffffffffffffffffffffffffffff1663b3596f0787868151811061289957612898614ead565b5b60200260200101516040518263ffffffff1660e01b81526004016128bd919061495f565b602060405180830381865afa1580156128da573d6000803e3d6000fd5b505050506040513d601f19601f820116820180604052508101906128fe9190614c26565b9050600061292587868151811061291857612917614ead565b5b60200260200101516105b3565b905086858151811061293a57612939614ead565b5b602002602001015188868151811061295557612954614ead565b5b60200260200101516000019073ffffffffffffffffffffffffffffffffffffffff16908173ffffffffffffffffffffffffffffffffffffffff16815250506305f5e10082846129a49190614cb6565b6129ae9190614d27565b8886815181106129c1576129c0614ead565b5b60200260200101516020018181525050808886815181106129e5576129e4614ead565b5b60200260200101516040018181525050868581518110612a0857612a07614ead565b5b602002602001015173ffffffffffffffffffffffffffffffffffffffff166370a082318a6040518263ffffffff1660e01b8152600401612a48919061495f565b602060405180830381865afa158015612a65573d6000803e3d6000fd5b505050506040513d601f19601f82011682018060405250810190612a899190614c26565b888681518110612a9c57612a9b614ead565b5b6020026020010151606001818152505061016d816305f5e1008486612ac19190614cb6565b612acb9190614d27565b612ad59190614cb6565b612adf9190614d27565b888681518110612af257612af1614ead565b5b602002602001015160800181815250508a73ffffffffffffffffffffffffffffffffffffffff16635cfbdf7f888781518110612b3157612b30614ead565b5b60200260200101518b6040518363ffffffff1660e01b8152600401612b579291906151d3565b602060405180830381865afa158015612b74573d6000803e3d6000fd5b505050506040513d601f19601f82011682018060405250810190612b98919061536e565b888681518110612bab57612baa614ead565b5b602002602001015160a0019015159081151581525050505050505b80612bd090614f5f565b90506127af565b5050509392505050565b606060008373ffffffffffffffffffffffffffffffffffffffff1663f65baefa6040518163ffffffff1660e01b8152600401600060405180830381865afa158015612c30573d6000803e3d6000fd5b505050506040513d6000823e3d601f19601f82011682018060405250810190612c599190614e64565b9050805167ffffffffffffffff811115612c7657612c7561497a565b5b604051908082528060200260200182016040528015612caf57816020015b612c9c6138ca565b815260200190600190039081612c945790505b50915060005b8151811015612f265760008060008773ffffffffffffffffffffffffffffffffffffffff166331664ebf868681518110612cf257612cf1614ead565b5b60200260200101516040518263ffffffff1660e01b8152600401612d16919061495f565b600060405180830381865afa158015612d33573d6000803e3d6000fd5b505050506040513d6000823e3d601f19601f82011682018060405250810190612d5c9190614ae4565b509350935050925060008773ffffffffffffffffffffffffffffffffffffffff1663b3596f07878781518110612d9557612d94614ead565b5b60200260200101516040518263ffffffff1660e01b8152600401612db9919061495f565b602060405180830381865afa158015612dd6573d6000803e3d6000fd5b505050506040513d601f19601f82011682018060405250810190612dfa9190614c26565b9050858581518110612e0f57612e0e614ead565b5b6020026020010151878681518110612e2a57612e29614ead565b5b60200260200101516000019073ffffffffffffffffffffffffffffffffffffffff16908173ffffffffffffffffffffffffffffffffffffffff168152505081878681518110612e7c57612e7b614ead565b5b602002602001015160200181815250506305f5e1008183612e9d9190614cb6565b612ea79190614d27565b878681518110612eba57612eb9614ead565b5b6020026020010151604001818152505082878681518110612ede57612edd614ead565b5b6020026020010151606001818152505083878681518110612f0257612f01614ead565b5b6020026020010151608001819052505050505080612f1f90614f5f565b9050612cb5565b505092915050565b606060008573ffffffffffffffffffffffffffffffffffffffff1663f65baefa6040518163ffffffff1660e01b8152600401600060405180830381865afa158015612f7d573d6000803e3d6000fd5b505050506040513d6000823e3d601f19601f82011682018060405250810190612fa69190614e64565b9050805167ffffffffffffffff811115612fc357612fc261497a565b5b604051908082528060200260200182016040528015612ffc57816020015b612fe961390f565b815260200190600190039081612fe15790505b50915060008673ffffffffffffffffffffffffffffffffffffffff166367e4ac2c6040518163ffffffff1660e01b8152600401600060405180830381865afa15801561304c573d6000803e3d6000fd5b505050506040513d6000823e3d601f19601f82011682018060405250810190613075919061518a565b905060005b825181101561341457600082828151811061309857613097614ead565b5b6020026020010151905060008773ffffffffffffffffffffffffffffffffffffffff16637609d7f68685815181106130d3576130d2614ead565b5b60200260200101516040518263ffffffff1660e01b81526004016130f7919061495f565b60a060405180830381865afa158015613114573d6000803e3d6000fd5b505050506040513d601f19601f820116820180604052508101906131389190615427565b90506000826060015173ffffffffffffffffffffffffffffffffffffffff16631da24f3e896040518263ffffffff1660e01b8152600401613179919061495f565b602060405180830381865afa158015613196573d6000803e3d6000fd5b505050506040513d601f19601f820116820180604052508101906131ba9190614c26565b90506000836080015173ffffffffffffffffffffffffffffffffffffffff166324570f8d8a6040518263ffffffff1660e01b81526004016131fb919061495f565b602060405180830381865afa158015613218573d6000803e3d6000fd5b505050506040513d601f19601f8201168201806040525081019061323c9190614c26565b905060008b73ffffffffffffffffffffffffffffffffffffffff1663b3596f0789888151811061326f5761326e614ead565b5b60200260200101516040518263ffffffff1660e01b8152600401613293919061495f565b602060405180830381865afa1580156132b0573d6000803e3d6000fd5b505050506040513d601f19601f820116820180604052508101906132d49190614c26565b90508786815181106132e9576132e8614ead565b5b602002602001015189878151811061330457613303614ead565b5b60200260200101516000019073ffffffffffffffffffffffffffffffffffffffff16908173ffffffffffffffffffffffffffffffffffffffff16815250508089878151811061335657613355614ead565b5b602002602001015160200181815250508289878151811061337a57613379614ead565b5b602002602001015160400181815250508189878151811061339e5761339d614ead565b5b6020026020010151606001818152505083600001518987815181106133c6576133c5614ead565b5b6020026020010151608001818152505083602001518987815181106133ee576133ed614ead565b5b602002602001015160a001818152505050505050508061340d90614f5f565b905061307a565b505050949350505050565b60008060008060008054906101000a900473ffffffffffffffffffffffffffffffffffffffff1673ffffffffffffffffffffffffffffffffffffffff1663193039d1866040518263ffffffff1660e01b815260040161347e919061495f565b600060405180830381865afa15801561349b573d6000803e3d6000fd5b505050506040513d6000823e3d601f19601f820116820180604052508101906134c49190614edc565b5092509250925060008060008054906101000a900473ffffffffffffffffffffffffffffffffffffffff1673ffffffffffffffffffffffffffffffffffffffff1663f55dd6c16040518163ffffffff1660e01b8152600401602060405180830381865afa158015613539573d6000803e3d6000fd5b505050506040513d601f19601f8201168201806040525081019061355d9190614bb9565b73ffffffffffffffffffffffffffffffffffffffff166302f55b61886040518263ffffffff1660e01b8152600401613595919061495f565b6040805180830381865afa1580156135b1573d6000803e3d6000fd5b505050506040513d601f19601f820116820180604052508101906135d59190614be6565b9150915060008060009054906101000a900473ffffffffffffffffffffffffffffffffffffffff1673ffffffffffffffffffffffffffffffffffffffff16636bbe56cf896040518263ffffffff1660e01b8152600401613635919061495f565b602060405180830381865afa158015613652573d6000803e3d6000fd5b505050506040513d601f19601f820116820180604052508101906136769190614c26565b90506000808211801561368857508383115b61369257836136c0565b818685856136a09190614c82565b6136aa9190614cb6565b6136b49190614d27565b846136bf9190614d58565b5b905060006136cd8861375b565b9050600087116136ec57600083116136e557836136e7565b815b613728565b620f4240876136fb9190614cb6565b86836137079190614cb6565b82866137139190614cb6565b61371d9190614d58565b6137279190614d27565b5b98505050505050505050919050565b60008054906101000a900473ffffffffffffffffffffffffffffffffffffffff1681565b6000805b82518110156137a15782818151811061377b5761377a614ead565b5b60200260200101518261378e9190614d58565b91508061379a90614f5f565b905061375f565b50919050565b6040518060a00160405280600073ffffffffffffffffffffffffffffffffffffffff168152602001600081526020016000815260200160008152602001606081525090565b6040518060a0016040528060008152602001600081526020016000815260200160008152602001600081525090565b6040518060a00160405280600073ffffffffffffffffffffffffffffffffffffffff168152602001600081526020016000815260200160008152602001600081525090565b6040518060400160405280600015158152602001606081525090565b6040518060c00160405280600073ffffffffffffffffffffffffffffffffffffffff168152602001600081526020016000815260200160008152602001600081526020016000151581525090565b6040518060a00160405280600073ffffffffffffffffffffffffffffffffffffffff168152602001600081526020016000815260200160008152602001606081525090565b6040518060c00160405280600073ffffffffffffffffffffffffffffffffffffffff16815260200160008152602001600081526020016000815260200160008152602001600081525090565b600073ffffffffffffffffffffffffffffffffffffffff82169050919050565b6000819050919050565b60006139a061399b6139968461395b565b61397b565b61395b565b9050919050565b60006139b282613985565b9050919050565b60006139c4826139a7565b9050919050565b6139d4816139b9565b82525050565b60006020820190506139ef60008301846139cb565b92915050565b6000604051905090565b600080fd5b600080fd5b6000613a148261395b565b9050919050565b613a2481613a09565b8114613a2f57600080fd5b50565b600081359050613a4181613a1b565b92915050565b600060208284031215613a5d57613a5c6139ff565b5b6000613a6b84828501613a32565b91505092915050565b6000819050919050565b613a8781613a74565b82525050565b6000602082019050613aa26000830184613a7e565b92915050565b6000606082019050613abd6000830186613a7e565b613aca6020830185613a7e565b613ad76040830184613a7e565b949350505050565b6000613aea82613a09565b9050919050565b613afa81613adf565b8114613b0557600080fd5b50565b600081359050613b1781613af1565b92915050565b6000613b2882613a09565b9050919050565b613b3881613b1d565b8114613b4357600080fd5b50565b600081359050613b5581613b2f565b92915050565b60008060408385031215613b7257613b716139ff565b5b6000613b8085828601613b08565b9250506020613b9185828601613b46565b9150509250929050565b600081519050919050565b600082825260208201905092915050565b6000819050602082019050919050565b613bd081613a09565b82525050565b613bdf81613a74565b82525050565b600081519050919050565b600082825260208201905092915050565b6000819050602082019050919050565b6000613c1d8383613bd6565b60208301905092915050565b6000602082019050919050565b6000613c4182613be5565b613c4b8185613bf0565b9350613c5683613c01565b8060005b83811015613c87578151613c6e8882613c11565b9750613c7983613c29565b925050600181019050613c5a565b5085935050505092915050565b600060a083016000830151613cac6000860182613bc7565b506020830151613cbf6020860182613bd6565b506040830151613cd26040860182613bd6565b506060830151613ce56060860182613bd6565b5060808301518482036080860152613cfd8282613c36565b9150508091505092915050565b6000613d168383613c94565b905092915050565b6000602082019050919050565b6000613d3682613b9b565b613d408185613ba6565b935083602082028501613d5285613bb7565b8060005b85811015613d8e5784840389528151613d6f8582613d0a565b9450613d7a83613d1e565b925060208a01995050600181019050613d56565b50829750879550505050505092915050565b60006020820190508181036000830152613dba8184613d2b565b905092915050565b600081519050919050565b600082825260208201905092915050565b6000819050602082019050919050565b60a082016000820151613e046000850182613bd6565b506020820151613e176020850182613bd6565b506040820151613e2a6040850182613bd6565b506060820151613e3d6060850182613bd6565b506080820151613e506080850182613bd6565b50505050565b6000613e628383613dee565b60a08301905092915050565b6000602082019050919050565b6000613e8682613dc2565b613e908185613dcd565b9350613e9b83613dde565b8060005b83811015613ecc578151613eb38882613e56565b9750613ebe83613e6e565b925050600181019050613e9f565b5085935050505092915050565b60006020820190508181036000830152613ef38184613e7b565b905092915050565b600080600060608486031215613f1457613f136139ff565b5b6000613f2286828701613b08565b9350506020613f3386828701613b46565b9250506040613f4486828701613a32565b9150509250925092565b600081519050919050565b600082825260208201905092915050565b6000819050602082019050919050565b60a082016000820151613f906000850182613bc7565b506020820151613fa36020850182613bd6565b506040820151613fb66040850182613bd6565b506060820151613fc96060850182613bd6565b506080820151613fdc6080850182613bd6565b50505050565b6000613fee8383613f7a565b60a08301905092915050565b6000602082019050919050565b600061401282613f4e565b61401c8185613f59565b935061402783613f6a565b8060005b8381101561405857815161403f8882613fe2565b975061404a83613ffa565b92505060018101905061402b565b5085935050505092915050565b6000602082019050818103600083015261407f8184614007565b905092915050565b600080fd5b600080fd5b600080fd5b60008083601f8401126140ac576140ab614087565b5b8235905067ffffffffffffffff8111156140c9576140c861408c565b5b6020830191508360208202830111156140e5576140e4614091565b5b9250929050565b60008060208385031215614103576141026139ff565b5b600083013567ffffffffffffffff81111561412157614120613a04565b5b61412d85828601614096565b92509250509250929050565b600081519050919050565b600082825260208201905092915050565b6000819050602082019050919050565b60008115159050919050565b61417a81614165565b82525050565b600081519050919050565b600082825260208201905092915050565b60005b838110156141ba57808201518184015260208101905061419f565b60008484015250505050565b6000601f19601f8301169050919050565b60006141e282614180565b6141ec818561418b565b93506141fc81856020860161419c565b614205816141c6565b840191505092915050565b60006040830160008301516142286000860182614171565b506020830151848203602086015261424082826141d7565b9150508091505092915050565b60006142598383614210565b905092915050565b6000602082019050919050565b600061427982614139565b6142838185614144565b93508360208202850161429585614155565b8060005b858110156142d157848403895281516142b2858261424d565b94506142bd83614261565b925060208a01995050600181019050614299565b50829750879550505050505092915050565b600060208201905081810360008301526142fd818461426e565b905092915050565b60008060006060848603121561431e5761431d6139ff565b5b600061432c86828701613b08565b935050602061433d86828701613a32565b925050604061434e86828701613a32565b9150509250925092565b600061436382613a09565b9050919050565b61437381614358565b811461437e57600080fd5b50565b6000813590506143908161436a565b92915050565b600080604083850312156143ad576143ac6139ff565b5b60006143bb85828601614381565b92505060206143cc85828601613b46565b9150509250929050565b60006040820190506143eb6000830185613a7e565b6143f86020830184613a7e565b9392505050565b600061440a82613a09565b9050919050565b61441a816143ff565b811461442557600080fd5b50565b60008135905061443781614411565b92915050565b60008060408385031215614454576144536139ff565b5b600061446285828601614428565b925050602061447385828601613b46565b9150509250929050565b600081519050919050565b600082825260208201905092915050565b6000819050602082019050919050565b60c0820160008201516144bf6000850182613bc7565b5060208201516144d26020850182613bd6565b5060408201516144e56040850182613bd6565b5060608201516144f86060850182613bd6565b50608082015161450b6080850182613bd6565b5060a082015161451e60a0850182614171565b50505050565b600061453083836144a9565b60c08301905092915050565b6000602082019050919050565b60006145548261447d565b61455e8185614488565b935061456983614499565b8060005b8381101561459a5781516145818882614524565b975061458c8361453c565b92505060018101905061456d565b5085935050505092915050565b600060208201905081810360008301526145c18184614549565b905092915050565b600081519050919050565b600082825260208201905092915050565b6000819050602082019050919050565b600060a08301600083015161460d6000860182613bc7565b5060208301516146206020860182613bd6565b5060408301516146336040860182613bd6565b5060608301516146466060860182613bd6565b506080830151848203608086015261465e8282613c36565b9150508091505092915050565b600061467783836145f5565b905092915050565b6000602082019050919050565b6000614697826145c9565b6146a181856145d4565b9350836020820285016146b3856145e5565b8060005b858110156146ef57848403895281516146d0858261466b565b94506146db8361467f565b925060208a019950506001810190506146b7565b50829750879550505050505092915050565b6000602082019050818103600083015261471b818461468c565b905092915050565b600061472e82613a09565b9050919050565b61473e81614723565b811461474957600080fd5b50565b60008135905061475b81614735565b92915050565b6000806000806080858703121561477b5761477a6139ff565b5b600061478987828801613b08565b945050602061479a87828801613b46565b93505060406147ab8782880161474c565b92505060606147bc87828801613a32565b91505092959194509250565b600081519050919050565b600082825260208201905092915050565b6000819050602082019050919050565b60c08201600082015161480a6000850182613bc7565b50602082015161481d6020850182613bd6565b5060408201516148306040850182613bd6565b5060608201516148436060850182613bd6565b5060808201516148566080850182613bd6565b5060a082015161486960a0850182613bd6565b50505050565b600061487b83836147f4565b60c08301905092915050565b6000602082019050919050565b600061489f826147c8565b6148a981856147d3565b93506148b4836147e4565b8060005b838110156148e55781516148cc888261486f565b97506148d783614887565b9250506001810190506148b8565b5085935050505092915050565b6000602082019050818103600083015261490c8184614894565b905092915050565b600061491f826139a7565b9050919050565b61492f81614914565b82525050565b600060208201905061494a6000830184614926565b92915050565b61495981613a09565b82525050565b60006020820190506149746000830184614950565b92915050565b7f4e487b7100000000000000000000000000000000000000000000000000000000600052604160045260246000fd5b6149b2826141c6565b810181811067ffffffffffffffff821117156149d1576149d061497a565b5b80604052505050565b60006149e46139f5565b90506149f082826149a9565b919050565b600067ffffffffffffffff821115614a1057614a0f61497a565b5b602082029050602081019050919050565b614a2a81613a74565b8114614a3557600080fd5b50565b600081519050614a4781614a21565b92915050565b6000614a60614a5b846149f5565b6149da565b90508083825260208201905060208402830185811115614a8357614a82614091565b5b835b81811015614aac5780614a988882614a38565b845260208401935050602081019050614a85565b5050509392505050565b600082601f830112614acb57614aca614087565b5b8151614adb848260208601614a4d565b91505092915050565b600080600080600060a08688031215614b0057614aff6139ff565b5b600086015167ffffffffffffffff811115614b1e57614b1d613a04565b5b614b2a88828901614ab6565b9550506020614b3b88828901614a38565b9450506040614b4c88828901614a38565b9350506060614b5d88828901614a38565b9250506080614b6e88828901614a38565b9150509295509295909350565b6000614b8682613a09565b9050919050565b614b9681614b7b565b8114614ba157600080fd5b50565b600081519050614bb381614b8d565b92915050565b600060208284031215614bcf57614bce6139ff565b5b6000614bdd84828501614ba4565b91505092915050565b60008060408385031215614bfd57614bfc6139ff565b5b6000614c0b85828601614a38565b9250506020614c1c85828601614a38565b9150509250929050565b600060208284031215614c3c57614c3b6139ff565b5b6000614c4a84828501614a38565b91505092915050565b7f4e487b7100000000000000000000000000000000000000000000000000000000600052601160045260246000fd5b6000614c8d82613a74565b9150614c9883613a74565b9250828203905081811115614cb057614caf614c53565b5b92915050565b6000614cc182613a74565b9150614ccc83613a74565b9250828202614cda81613a74565b91508282048414831517614cf157614cf0614c53565b5b5092915050565b7f4e487b7100000000000000000000000000000000000000000000000000000000600052601260045260246000fd5b6000614d3282613a74565b9150614d3d83613a74565b925082614d4d57614d4c614cf8565b5b828204905092915050565b6000614d6382613a74565b9150614d6e83613a74565b9250828201905080821115614d8657614d85614c53565b5b92915050565b600067ffffffffffffffff821115614da757614da661497a565b5b602082029050602081019050919050565b600081519050614dc781613a1b565b92915050565b6000614de0614ddb84614d8c565b6149da565b90508083825260208201905060208402830185811115614e0357614e02614091565b5b835b81811015614e2c5780614e188882614db8565b845260208401935050602081019050614e05565b5050509392505050565b600082601f830112614e4b57614e4a614087565b5b8151614e5b848260208601614dcd565b91505092915050565b600060208284031215614e7a57614e796139ff565b5b600082015167ffffffffffffffff811115614e9857614e97613a04565b5b614ea484828501614e36565b91505092915050565b7f4e487b7100000000000000000000000000000000000000000000000000000000600052603260045260246000fd5b60008060008060808587031215614ef657614ef56139ff565b5b600085015167ffffffffffffffff811115614f1457614f13613a04565b5b614f2087828801614ab6565b9450506020614f3187828801614a38565b9350506040614f4287828801614a38565b9250506060614f5387828801614a38565b91505092959194509250565b6000614f6a82613a74565b91507fffffffffffffffffffffffffffffffffffffffffffffffffffffffffffffffff8203614f9c57614f9b614c53565b5b600182019050919050565b600067ffffffffffffffff821115614fc257614fc161497a565b5b602082029050602081019050919050565b600080fd5b600060ff82169050919050565b614fee81614fd8565b8114614ff957600080fd5b50565b60008151905061500b81614fe5565b92915050565b61501a81614165565b811461502557600080fd5b50565b60008151905061503781615011565b92915050565b60008151905061504c8161436a565b92915050565b60008151905061506181614411565b92915050565b600060a0828403121561507d5761507c614fd3565b5b61508760a06149da565b9050600061509784828501614ffc565b60008301525060206150ab84828501615028565b60208301525060406150bf84828501615028565b60408301525060606150d38482850161503d565b60608301525060806150e784828501615052565b60808301525092915050565b600061510661510184614fa7565b6149da565b90508083825260208201905060a0840283018581111561512957615128614091565b5b835b81811015615152578061513e8882615067565b84526020840193505060a08101905061512b565b5050509392505050565b600082601f83011261517157615170614087565b5b81516151818482602086016150f3565b91505092915050565b6000602082840312156151a05761519f6139ff565b5b600082015167ffffffffffffffff8111156151be576151bd613a04565b5b6151ca8482850161515c565b91505092915050565b60006040820190506151e86000830185614950565b6151f56020830184614950565b9392505050565b600080fd5b600080fd5b600080fd5b600082356001606003833603038112615227576152266151fc565b5b80830191505092915050565b600080833560016020038436030381126152505761524f6151fc565b5b80840192508235915067ffffffffffffffff82111561527257615271615201565b5b60208301925060018202360383131561528e5761528d615206565b5b509250929050565b600081905092915050565b82818337600083830152505050565b60006152bc8385615296565b93506152c98385846152a1565b82840190509392505050565b60006152e28284866152b0565b91508190509392505050565b600080600060608486031215615307576153066139ff565b5b600061531586828701614a38565b935050602061532686828701614a38565b925050604061533786828701615028565b9150509250925092565b600060208284031215615357576153566139ff565b5b600061536584828501614db8565b91505092915050565b600060208284031215615384576153836139ff565b5b600061539284828501615028565b91505092915050565b600060a082840312156153b1576153b0614fd3565b5b6153bb60a06149da565b905060006153cb84828501614a38565b60008301525060206153df84828501614a38565b60208301525060406153f384828501614a38565b604083015250606061540784828501614a38565b606083015250608061541b84828501614a38565b60808301525092915050565b600060a0828403121561543d5761543c6139ff565b5b600061544b8482850161539b565b9150509291505056fea264697066735822122088c29def012691f2f28816e83b1819981e8c7f12afb5e22d0570ecdb5448ec6d64736f6c63430008110033",
			"opcodes": "PUSH1 0x80 PUSH1 0x40 MSTORE CALLVALUE DUP1 ISZERO PUSH3 0x11 JUMPI PUSH1 0x0 DUP1 REVERT JUMPDEST POP PUSH1 0x40 MLOAD PUSH3 0x5664 CODESIZE SUB DUP1 PUSH3 0x5664 DUP4 CODECOPY DUP2 DUP2 ADD PUSH1 0x40 MSTORE DUP2 ADD SWAP1 PUSH3 0x37 SWAP2 SWAP1 PUSH3 0x16E JUMP JUMPDEST DUP3 DUP1 PUSH1 0x0 DUP1 PUSH2 0x100 EXP DUP2 SLOAD DUP2 PUSH20 0xFFFFFFFFFFFFFFFFFFFFFFFFFFFFFFFFFFFFFFFF MUL NOT AND SWAP1 DUP4 PUSH20 0xFFFFFFFFFFFFFFFFFFFFFFFFFFFFFFFFFFFFFFFF AND MUL OR SWAP1 SSTORE POP POP DUP2 PUSH1 0x1 PUSH1 0x0 PUSH2 0x100 EXP DUP2 SLOAD DUP2 PUSH20 0xFFFFFFFFFFFFFFFFFFFFFFFFFFFFFFFFFFFFFFFF MUL NOT AND SWAP1 DUP4 PUSH20 0xFFFFFFFFFFFFFFFFFFFFFFFFFFFFFFFFFFFFFFFF AND MUL OR SWAP1 SSTORE POP DUP1 PUSH1 0x2 PUSH1 0x0 PUSH2 0x100 EXP DUP2 SLOAD DUP2 PUSH20 0xFFFFFFFFFFFFFFFFFFFFFFFFFFFFFFFFFFFFFFFF MUL NOT AND SWAP1 DUP4 PUSH20 0xFFFFFFFFFFFFFFFFFFFFFFFFFFFFFFFFFFFFFFFF AND MUL OR SWAP1 SSTORE POP POP POP POP PUSH3 0x1CA JUMP JUMPDEST PUSH1 0x0 DUP1 REVERT JUMPDEST PUSH1 0x0 PUSH20 0xFFFFFFFFFFFFFFFFFFFFFFFFFFFFFFFFFFFFFFFF DUP3 AND SWAP1 POP SWAP2 SWAP1 POP JUMP JUMPDEST PUSH1 0x0 PUSH3 0x136 DUP3 PUSH3 0x109 JUMP JUMPDEST SWAP1 POP SWAP2 SWAP1 POP JUMP JUMPDEST PUSH3 0x148 DUP2 PUSH3 0x129 JUMP JUMPDEST DUP2 EQ PUSH3 0x154 JUMPI PUSH1 0x0 DUP1 REVERT JUMPDEST POP JUMP JUMPDEST PUSH1 0x0 DUP2 MLOAD SWAP1 POP PUSH3 0x168 DUP2 PUSH3 0x13D JUMP JUMPDEST SWAP3 SWAP2 POP POP JUMP JUMPDEST PUSH1 0x0 DUP1 PUSH1 0x0 PUSH1 0x60 DUP5 DUP7 SUB SLT ISZERO PUSH3 0x18A JUMPI PUSH3 0x189 PUSH3 0x104 JUMP JUMPDEST JUMPDEST PUSH1 0x0 PUSH3 0x19A DUP7 DUP3 DUP8 ADD PUSH3 0x157 JUMP JUMPDEST SWAP4 POP POP PUSH1 0x20 PUSH3 0x1AD DUP7 DUP3 DUP8 ADD PUSH3 0x157 JUMP JUMPDEST SWAP3 POP POP PUSH1 0x40 PUSH3 0x1C0 DUP7 DUP3 DUP8 ADD PUSH3 0x157 JUMP JUMPDEST SWAP2 POP POP SWAP3 POP SWAP3 POP SWAP3 JUMP JUMPDEST PUSH2 0x548A DUP1 PUSH3 0x1DA PUSH1 0x0 CODECOPY PUSH1 0x0 RETURN INVALID PUSH1 0x80 PUSH1 0x40 MSTORE PUSH1 0x4 CALLDATASIZE LT PUSH2 0x114 JUMPI PUSH1 0x0 CALLDATALOAD PUSH1 0xE0 SHR DUP1 PUSH4 0x82AD56CB GT PUSH2 0xA0 JUMPI DUP1 PUSH4 0xC9F58A42 GT PUSH2 0x64 JUMPI DUP1 PUSH4 0xC9F58A42 EQ PUSH2 0x448 JUMPI DUP1 PUSH4 0xE3D416BF EQ PUSH2 0x485 JUMPI DUP1 PUSH4 0xEF9BEDA9 EQ PUSH2 0x4C2 JUMPI DUP1 PUSH4 0xF1745D3D EQ PUSH2 0x4FF JUMPI DUP1 PUSH4 0xF887EA40 EQ PUSH2 0x53C JUMPI PUSH2 0x114 JUMP JUMPDEST DUP1 PUSH4 0x82AD56CB EQ PUSH2 0x31E JUMPI DUP1 PUSH4 0x85786968 EQ PUSH2 0x34E JUMPI DUP1 PUSH4 0xB9B43585 EQ PUSH2 0x38D JUMPI DUP1 PUSH4 0xBEEA729F EQ PUSH2 0x3CB JUMPI DUP1 PUSH4 0xC1E30FBE EQ PUSH2 0x40A JUMPI PUSH2 0x114 JUMP JUMPDEST DUP1 PUSH4 0x35FE70F4 GT PUSH2 0xE7 JUMPI DUP1 PUSH4 0x35FE70F4 EQ PUSH2 0x1EB JUMPI DUP1 PUSH4 0x37E72649 EQ PUSH2 0x228 JUMPI DUP1 PUSH4 0x63BB6ADD EQ PUSH2 0x267 JUMPI DUP1 PUSH4 0x6EB2909B EQ PUSH2 0x2A4 JUMPI DUP1 PUSH4 0x8129B156 EQ PUSH2 0x2E1 JUMPI PUSH2 0x114 JUMP JUMPDEST DUP1 PUSH4 0x11089F44 EQ PUSH2 0x119 JUMPI DUP1 PUSH4 0x2206D3BD EQ PUSH2 0x144 JUMPI DUP1 PUSH4 0x22F98667 EQ PUSH2 0x16F JUMPI DUP1 PUSH4 0x34C7E984 EQ PUSH2 0x1AC JUMPI JUMPDEST PUSH1 0x0 DUP1 REVERT JUMPDEST CALLVALUE DUP1 ISZERO PUSH2 0x125 JUMPI PUSH1 0x0 DUP1 REVERT JUMPDEST POP PUSH2 0x12E PUSH2 0x567 JUMP JUMPDEST PUSH1 0x40 MLOAD PUSH2 0x13B SWAP2 SWAP1 PUSH2 0x39DA JUMP JUMPDEST PUSH1 0x40 MLOAD DUP1 SWAP2 SUB SWAP1 RETURN JUMPDEST CALLVALUE DUP1 ISZERO PUSH2 0x150 JUMPI PUSH1 0x0 DUP1 REVERT JUMPDEST POP PUSH2 0x159 PUSH2 0x58D JUMP JUMPDEST PUSH1 0x40 MLOAD PUSH2 0x166 SWAP2 SWAP1 PUSH2 0x39DA JUMP JUMPDEST PUSH1 0x40 MLOAD DUP1 SWAP2 SUB SWAP1 RETURN JUMPDEST CALLVALUE DUP1 ISZERO PUSH2 0x17B JUMPI PUSH1 0x0 DUP1 REVERT JUMPDEST POP PUSH2 0x196 PUSH1 0x4 DUP1 CALLDATASIZE SUB DUP2 ADD SWAP1 PUSH2 0x191 SWAP2 SWAP1 PUSH2 0x3A47 JUMP JUMPDEST PUSH2 0x5B3 JUMP JUMPDEST PUSH1 0x40 MLOAD PUSH2 0x1A3 SWAP2 SWAP1 PUSH2 0x3A8D JUMP JUMPDEST PUSH1 0x40 MLOAD DUP1 SWAP2 SUB SWAP1 RETURN JUMPDEST CALLVALUE DUP1 ISZERO PUSH2 0x1B8 JUMPI PUSH1 0x0 DUP1 REVERT JUMPDEST POP PUSH2 0x1D3 PUSH1 0x4 DUP1 CALLDATASIZE SUB DUP2 ADD SWAP1 PUSH2 0x1CE SWAP2 SWAP1 PUSH2 0x3A47 JUMP JUMPDEST PUSH2 0x8BE JUMP JUMPDEST PUSH1 0x40 MLOAD PUSH2 0x1E2 SWAP4 SWAP3 SWAP2 SWAP1 PUSH2 0x3AA8 JUMP JUMPDEST PUSH1 0x40 MLOAD DUP1 SWAP2 SUB SWAP1 RETURN JUMPDEST CALLVALUE DUP1 ISZERO PUSH2 0x1F7 JUMPI PUSH1 0x0 DUP1 REVERT JUMPDEST POP PUSH2 0x212 PUSH1 0x4 DUP1 CALLDATASIZE SUB DUP2 ADD SWAP1 PUSH2 0x20D SWAP2 SWAP1 PUSH2 0x3A47 JUMP JUMPDEST PUSH2 0xA11 JUMP JUMPDEST PUSH1 0x40 MLOAD PUSH2 0x21F SWAP2 SWAP1 PUSH2 0x3A8D JUMP JUMPDEST PUSH1 0x40 MLOAD DUP1 SWAP2 SUB SWAP1 RETURN JUMPDEST CALLVALUE DUP1 ISZERO PUSH2 0x234 JUMPI PUSH1 0x0 DUP1 REVERT JUMPDEST POP PUSH2 0x24F PUSH1 0x4 DUP1 CALLDATASIZE SUB DUP2 ADD SWAP1 PUSH2 0x24A SWAP2 SWAP1 PUSH2 0x3A47 JUMP JUMPDEST PUSH2 0xCAB JUMP JUMPDEST PUSH1 0x40 MLOAD PUSH2 0x25E SWAP4 SWAP3 SWAP2 SWAP1 PUSH2 0x3AA8 JUMP JUMPDEST PUSH1 0x40 MLOAD DUP1 SWAP2 SUB SWAP1 RETURN JUMPDEST CALLVALUE DUP1 ISZERO PUSH2 0x273 JUMPI PUSH1 0x0 DUP1 REVERT JUMPDEST POP PUSH2 0x28E PUSH1 0x4 DUP1 CALLDATASIZE SUB DUP2 ADD SWAP1 PUSH2 0x289 SWAP2 SWAP1 PUSH2 0x3B5B JUMP JUMPDEST PUSH2 0xDFE JUMP JUMPDEST PUSH1 0x40 MLOAD PUSH2 0x29B SWAP2 SWAP1 PUSH2 0x3DA0 JUMP JUMPDEST PUSH1 0x40 MLOAD DUP1 SWAP2 SUB SWAP1 RETURN JUMPDEST CALLVALUE DUP1 ISZERO PUSH2 0x2B0 JUMPI PUSH1 0x0 DUP1 REVERT JUMPDEST POP PUSH2 0x2CB PUSH1 0x4 DUP1 CALLDATASIZE SUB DUP2 ADD SWAP1 PUSH2 0x2C6 SWAP2 SWAP1 PUSH2 0x3B5B JUMP JUMPDEST PUSH2 0x114A JUMP JUMPDEST PUSH1 0x40 MLOAD PUSH2 0x2D8 SWAP2 SWAP1 PUSH2 0x3ED9 JUMP JUMPDEST PUSH1 0x40 MLOAD DUP1 SWAP2 SUB SWAP1 RETURN JUMPDEST CALLVALUE DUP1 ISZERO PUSH2 0x2ED JUMPI PUSH1 0x0 DUP1 REVERT JUMPDEST POP PUSH2 0x308 PUSH1 0x4 DUP1 CALLDATASIZE SUB DUP2 ADD SWAP1 PUSH2 0x303 SWAP2 SWAP1 PUSH2 0x3EFB JUMP JUMPDEST PUSH2 0x15E7 JUMP JUMPDEST PUSH1 0x40 MLOAD PUSH2 0x315 SWAP2 SWAP1 PUSH2 0x4065 JUMP JUMPDEST PUSH1 0x40 MLOAD DUP1 SWAP2 SUB SWAP1 RETURN JUMPDEST PUSH2 0x338 PUSH1 0x4 DUP1 CALLDATASIZE SUB DUP2 ADD SWAP1 PUSH2 0x333 SWAP2 SWAP1 PUSH2 0x40EC JUMP JUMPDEST PUSH2 0x1AA8 JUMP JUMPDEST PUSH1 0x40 MLOAD PUSH2 0x345 SWAP2 SWAP1 PUSH2 0x42E3 JUMP JUMPDEST PUSH1 0x40 MLOAD DUP1 SWAP2 SUB SWAP1 RETURN JUMPDEST CALLVALUE DUP1 ISZERO PUSH2 0x35A JUMPI PUSH1 0x0 DUP1 REVERT JUMPDEST POP PUSH2 0x375 PUSH1 0x4 DUP1 CALLDATASIZE SUB DUP2 ADD SWAP1 PUSH2 0x370 SWAP2 SWAP1 PUSH2 0x4305 JUMP JUMPDEST PUSH2 0x1C72 JUMP JUMPDEST PUSH1 0x40 MLOAD PUSH2 0x384 SWAP4 SWAP3 SWAP2 SWAP1 PUSH2 0x3AA8 JUMP JUMPDEST PUSH1 0x40 MLOAD DUP1 SWAP2 SUB SWAP1 RETURN JUMPDEST CALLVALUE DUP1 ISZERO PUSH2 0x399 JUMPI PUSH1 0x0 DUP1 REVERT JUMPDEST POP PUSH2 0x3B4 PUSH1 0x4 DUP1 CALLDATASIZE SUB DUP2 ADD SWAP1 PUSH2 0x3AF SWAP2 SWAP1 PUSH2 0x4396 JUMP JUMPDEST PUSH2 0x1D83 JUMP JUMPDEST PUSH1 0x40 MLOAD PUSH2 0x3C2 SWAP3 SWAP2 SWAP1 PUSH2 0x43D6 JUMP JUMPDEST PUSH1 0x40 MLOAD DUP1 SWAP2 SUB SWAP1 RETURN JUMPDEST CALLVALUE DUP1 ISZERO PUSH2 0x3D7 JUMPI PUSH1 0x0 DUP1 REVERT JUMPDEST POP PUSH2 0x3F2 PUSH1 0x4 DUP1 CALLDATASIZE SUB DUP2 ADD SWAP1 PUSH2 0x3ED SWAP2 SWAP1 PUSH2 0x3B5B JUMP JUMPDEST PUSH2 0x2023 JUMP JUMPDEST PUSH1 0x40 MLOAD PUSH2 0x401 SWAP4 SWAP3 SWAP2 SWAP1 PUSH2 0x3AA8 JUMP JUMPDEST PUSH1 0x40 MLOAD DUP1 SWAP2 SUB SWAP1 RETURN JUMPDEST CALLVALUE DUP1 ISZERO PUSH2 0x416 JUMPI PUSH1 0x0 DUP1 REVERT JUMPDEST POP PUSH2 0x431 PUSH1 0x4 DUP1 CALLDATASIZE SUB DUP2 ADD SWAP1 PUSH2 0x42C SWAP2 SWAP1 PUSH2 0x443D JUMP JUMPDEST PUSH2 0x23C3 JUMP JUMPDEST PUSH1 0x40 MLOAD PUSH2 0x43F SWAP3 SWAP2 SWAP1 PUSH2 0x43D6 JUMP JUMPDEST PUSH1 0x40 MLOAD DUP1 SWAP2 SUB SWAP1 RETURN JUMPDEST CALLVALUE DUP1 ISZERO PUSH2 0x454 JUMPI PUSH1 0x0 DUP1 REVERT JUMPDEST POP PUSH2 0x46F PUSH1 0x4 DUP1 CALLDATASIZE SUB DUP2 ADD SWAP1 PUSH2 0x46A SWAP2 SWAP1 PUSH2 0x3EFB JUMP JUMPDEST PUSH2 0x2663 JUMP JUMPDEST PUSH1 0x40 MLOAD PUSH2 0x47C SWAP2 SWAP1 PUSH2 0x45A7 JUMP JUMPDEST PUSH1 0x40 MLOAD DUP1 SWAP2 SUB SWAP1 RETURN JUMPDEST CALLVALUE DUP1 ISZERO PUSH2 0x491 JUMPI PUSH1 0x0 DUP1 REVERT JUMPDEST POP PUSH2 0x4AC PUSH1 0x4 DUP1 CALLDATASIZE SUB DUP2 ADD SWAP1 PUSH2 0x4A7 SWAP2 SWAP1 PUSH2 0x3B5B JUMP JUMPDEST PUSH2 0x2BE1 JUMP JUMPDEST PUSH1 0x40 MLOAD PUSH2 0x4B9 SWAP2 SWAP1 PUSH2 0x4701 JUMP JUMPDEST PUSH1 0x40 MLOAD DUP1 SWAP2 SUB SWAP1 RETURN JUMPDEST CALLVALUE DUP1 ISZERO PUSH2 0x4CE JUMPI PUSH1 0x0 DUP1 REVERT JUMPDEST POP PUSH2 0x4E9 PUSH1 0x4 DUP1 CALLDATASIZE SUB DUP2 ADD SWAP1 PUSH2 0x4E4 SWAP2 SWAP1 PUSH2 0x4761 JUMP JUMPDEST PUSH2 0x2F2E JUMP JUMPDEST PUSH1 0x40 MLOAD PUSH2 0x4F6 SWAP2 SWAP1 PUSH2 0x48F2 JUMP JUMPDEST PUSH1 0x40 MLOAD DUP1 SWAP2 SUB SWAP1 RETURN JUMPDEST CALLVALUE DUP1 ISZERO PUSH2 0x50B JUMPI PUSH1 0x0 DUP1 REVERT JUMPDEST POP PUSH2 0x526 PUSH1 0x4 DUP1 CALLDATASIZE SUB DUP2 ADD SWAP1 PUSH2 0x521 SWAP2 SWAP1 PUSH2 0x3A47 JUMP JUMPDEST PUSH2 0x341F JUMP JUMPDEST PUSH1 0x40 MLOAD PUSH2 0x533 SWAP2 SWAP1 PUSH2 0x3A8D JUMP JUMPDEST PUSH1 0x40 MLOAD DUP1 SWAP2 SUB SWAP1 RETURN JUMPDEST CALLVALUE DUP1 ISZERO PUSH2 0x548 JUMPI PUSH1 0x0 DUP1 REVERT JUMPDEST POP PUSH2 0x551 PUSH2 0x3737 JUMP JUMPDEST PUSH1 0x40 MLOAD PUSH2 0x55E SWAP2 SWAP1 PUSH2 0x4935 JUMP JUMPDEST PUSH1 0x40 MLOAD DUP1 SWAP2 SUB SWAP1 RETURN JUMPDEST PUSH1 0x2 PUSH1 0x0 SWAP1 SLOAD SWAP1 PUSH2 0x100 EXP SWAP1 DIV PUSH20 0xFFFFFFFFFFFFFFFFFFFFFFFFFFFFFFFFFFFFFFFF AND DUP2 JUMP JUMPDEST PUSH1 0x1 PUSH1 0x0 SWAP1 SLOAD SWAP1 PUSH2 0x100 EXP SWAP1 DIV PUSH20 0xFFFFFFFFFFFFFFFFFFFFFFFFFFFFFFFFFFFFFFFF AND DUP2 JUMP JUMPDEST PUSH1 0x0 DUP1 PUSH1 0x0 DUP1 PUSH1 0x0 DUP1 SLOAD SWAP1 PUSH2 0x100 EXP SWAP1 DIV PUSH20 0xFFFFFFFFFFFFFFFFFFFFFFFFFFFFFFFFFFFFFFFF AND PUSH20 0xFFFFFFFFFFFFFFFFFFFFFFFFFFFFFFFFFFFFFFFF AND PUSH4 0x31664EBF DUP7 PUSH1 0x40 MLOAD DUP3 PUSH4 0xFFFFFFFF AND PUSH1 0xE0 SHL DUP2 MSTORE PUSH1 0x4 ADD PUSH2 0x612 SWAP2 SWAP1 PUSH2 0x495F JUMP JUMPDEST PUSH1 0x0 PUSH1 0x40 MLOAD DUP1 DUP4 SUB DUP2 DUP7 GAS STATICCALL ISZERO DUP1 ISZERO PUSH2 0x62F JUMPI RETURNDATASIZE PUSH1 0x0 DUP1 RETURNDATACOPY RETURNDATASIZE PUSH1 0x0 REVERT JUMPDEST POP POP POP POP PUSH1 0x40 MLOAD RETURNDATASIZE PUSH1 0x0 DUP3 RETURNDATACOPY RETURNDATASIZE PUSH1 0x1F NOT PUSH1 0x1F DUP3 ADD AND DUP3 ADD DUP1 PUSH1 0x40 MSTORE POP DUP2 ADD SWAP1 PUSH2 0x658 SWAP2 SWAP1 PUSH2 0x4AE4 JUMP JUMPDEST POP SWAP4 POP SWAP4 POP SWAP4 POP POP PUSH1 0x0 DUP1 PUSH1 0x0 DUP1 SLOAD SWAP1 PUSH2 0x100 EXP SWAP1 DIV PUSH20 0xFFFFFFFFFFFFFFFFFFFFFFFFFFFFFFFFFFFFFFFF AND PUSH20 0xFFFFFFFFFFFFFFFFFFFFFFFFFFFFFFFFFFFFFFFF AND PUSH4 0xF55DD6C1 PUSH1 0x40 MLOAD DUP2 PUSH4 0xFFFFFFFF AND PUSH1 0xE0 SHL DUP2 MSTORE PUSH1 0x4 ADD PUSH1 0x20 PUSH1 0x40 MLOAD DUP1 DUP4 SUB DUP2 DUP7 GAS STATICCALL ISZERO DUP1 ISZERO PUSH2 0x6CE JUMPI RETURNDATASIZE PUSH1 0x0 DUP1 RETURNDATACOPY RETURNDATASIZE PUSH1 0x0 REVERT JUMPDEST POP POP POP POP PUSH1 0x40 MLOAD RETURNDATASIZE PUSH1 0x1F NOT PUSH1 0x1F DUP3 ADD AND DUP3 ADD DUP1 PUSH1 0x40 MSTORE POP DUP2 ADD SWAP1 PUSH2 0x6F2 SWAP2 SWAP1 PUSH2 0x4BB9 JUMP JUMPDEST PUSH20 0xFFFFFFFFFFFFFFFFFFFFFFFFFFFFFFFFFFFFFFFF AND PUSH4 0x2F55B61 DUP9 PUSH1 0x40 MLOAD DUP3 PUSH4 0xFFFFFFFF AND PUSH1 0xE0 SHL DUP2 MSTORE PUSH1 0x4 ADD PUSH2 0x72A SWAP2 SWAP1 PUSH2 0x495F JUMP JUMPDEST PUSH1 0x40 DUP1 MLOAD DUP1 DUP4 SUB DUP2 DUP7 GAS STATICCALL ISZERO DUP1 ISZERO PUSH2 0x746 JUMPI RETURNDATASIZE PUSH1 0x0 DUP1 RETURNDATACOPY RETURNDATASIZE PUSH1 0x0 REVERT JUMPDEST POP POP POP POP PUSH1 0x40 MLOAD RETURNDATASIZE PUSH1 0x1F NOT PUSH1 0x1F DUP3 ADD AND DUP3 ADD DUP1 PUSH1 0x40 MSTORE POP DUP2 ADD SWAP1 PUSH2 0x76A SWAP2 SWAP1 PUSH2 0x4BE6 JUMP JUMPDEST SWAP2 POP SWAP2 POP PUSH1 0x0 DUP1 PUSH1 0x0 SWAP1 SLOAD SWAP1 PUSH2 0x100 EXP SWAP1 DIV PUSH20 0xFFFFFFFFFFFFFFFFFFFFFFFFFFFFFFFFFFFFFFFF AND PUSH20 0xFFFFFFFFFFFFFFFFFFFFFFFFFFFFFFFFFFFFFFFF AND PUSH4 0xE2E1CA2B DUP10 PUSH1 0x40 MLOAD DUP3 PUSH4 0xFFFFFFFF AND PUSH1 0xE0 SHL DUP2 MSTORE PUSH1 0x4 ADD PUSH2 0x7CA SWAP2 SWAP1 PUSH2 0x495F JUMP JUMPDEST PUSH1 0x20 PUSH1 0x40 MLOAD DUP1 DUP4 SUB DUP2 DUP7 GAS STATICCALL ISZERO DUP1 ISZERO PUSH2 0x7E7 JUMPI RETURNDATASIZE PUSH1 0x0 DUP1 RETURNDATACOPY RETURNDATASIZE PUSH1 0x0 REVERT JUMPDEST POP POP POP POP PUSH1 0x40 MLOAD RETURNDATASIZE PUSH1 0x1F NOT PUSH1 0x1F DUP3 ADD AND DUP3 ADD DUP1 PUSH1 0x40 MSTORE POP DUP2 ADD SWAP1 PUSH2 0x80B SWAP2 SWAP1 PUSH2 0x4C26 JUMP JUMPDEST SWAP1 POP PUSH1 0x0 DUP1 DUP6 GT DUP1 ISZERO PUSH2 0x81D JUMPI POP DUP4 DUP4 GT JUMPDEST PUSH2 0x827 JUMPI DUP4 PUSH2 0x855 JUMP JUMPDEST DUP5 DUP3 DUP6 DUP6 PUSH2 0x835 SWAP2 SWAP1 PUSH2 0x4C82 JUMP JUMPDEST PUSH2 0x83F SWAP2 SWAP1 PUSH2 0x4CB6 JUMP JUMPDEST PUSH2 0x849 SWAP2 SWAP1 PUSH2 0x4D27 JUMP JUMPDEST DUP5 PUSH2 0x854 SWAP2 SWAP1 PUSH2 0x4D58 JUMP JUMPDEST JUMPDEST SWAP1 POP PUSH1 0x0 DUP6 GT PUSH2 0x874 JUMPI PUSH1 0x0 DUP3 GT PUSH2 0x86D JUMPI DUP4 PUSH2 0x86F JUMP JUMPDEST DUP1 JUMPDEST PUSH2 0x8B0 JUMP JUMPDEST PUSH3 0xF4240 DUP6 PUSH2 0x883 SWAP2 SWAP1 PUSH2 0x4CB6 JUMP JUMPDEST DUP7 DUP3 PUSH2 0x88F SWAP2 SWAP1 PUSH2 0x4CB6 JUMP JUMPDEST DUP9 DUP7 PUSH2 0x89B SWAP2 SWAP1 PUSH2 0x4CB6 JUMP JUMPDEST PUSH2 0x8A5 SWAP2 SWAP1 PUSH2 0x4D58 JUMP JUMPDEST PUSH2 0x8AF SWAP2 SWAP1 PUSH2 0x4D27 JUMP JUMPDEST JUMPDEST SWAP8 POP POP POP POP POP POP POP POP SWAP2 SWAP1 POP JUMP JUMPDEST PUSH1 0x0 DUP1 PUSH1 0x0 PUSH2 0x8CC DUP5 PUSH2 0x5B3 JUMP JUMPDEST SWAP3 POP PUSH1 0x1 PUSH1 0x0 SWAP1 SLOAD SWAP1 PUSH2 0x100 EXP SWAP1 DIV PUSH20 0xFFFFFFFFFFFFFFFFFFFFFFFFFFFFFFFFFFFFFFFF AND PUSH20 0xFFFFFFFFFFFFFFFFFFFFFFFFFFFFFFFFFFFFFFFF AND PUSH4 0x22F98667 DUP6 PUSH1 0x40 MLOAD DUP3 PUSH4 0xFFFFFFFF AND PUSH1 0xE0 SHL DUP2 MSTORE PUSH1 0x4 ADD PUSH2 0x929 SWAP2 SWAP1 PUSH2 0x495F JUMP JUMPDEST PUSH1 0x20 PUSH1 0x40 MLOAD DUP1 DUP4 SUB DUP2 DUP7 GAS STATICCALL ISZERO DUP1 ISZERO PUSH2 0x946 JUMPI RETURNDATASIZE PUSH1 0x0 DUP1 RETURNDATACOPY RETURNDATASIZE PUSH1 0x0 REVERT JUMPDEST POP POP POP POP PUSH1 0x40 MLOAD RETURNDATASIZE PUSH1 0x1F NOT PUSH1 0x1F DUP3 ADD AND DUP3 ADD DUP1 PUSH1 0x40 MSTORE POP DUP2 ADD SWAP1 PUSH2 0x96A SWAP2 SWAP1 PUSH2 0x4C26 JUMP JUMPDEST SWAP2 POP PUSH1 0x2 PUSH1 0x0 SWAP1 SLOAD SWAP1 PUSH2 0x100 EXP SWAP1 DIV PUSH20 0xFFFFFFFFFFFFFFFFFFFFFFFFFFFFFFFFFFFFFFFF AND PUSH20 0xFFFFFFFFFFFFFFFFFFFFFFFFFFFFFFFFFFFFFFFF AND PUSH4 0x22F98667 DUP6 PUSH1 0x40 MLOAD DUP3 PUSH4 0xFFFFFFFF AND PUSH1 0xE0 SHL DUP2 MSTORE PUSH1 0x4 ADD PUSH2 0x9C7 SWAP2 SWAP1 PUSH2 0x495F JUMP JUMPDEST PUSH1 0x20 PUSH1 0x40 MLOAD DUP1 DUP4 SUB DUP2 DUP7 GAS STATICCALL ISZERO DUP1 ISZERO PUSH2 0x9E4 JUMPI RETURNDATASIZE PUSH1 0x0 DUP1 RETURNDATACOPY RETURNDATASIZE PUSH1 0x0 REVERT JUMPDEST POP POP POP POP PUSH1 0x40 MLOAD RETURNDATASIZE PUSH1 0x1F NOT PUSH1 0x1F DUP3 ADD AND DUP3 ADD DUP1 PUSH1 0x40 MSTORE POP DUP2 ADD SWAP1 PUSH2 0xA08 SWAP2 SWAP1 PUSH2 0x4C26 JUMP JUMPDEST SWAP1 POP SWAP2 SWAP4 SWAP1 SWAP3 POP JUMP JUMPDEST PUSH1 0x0 DUP1 PUSH1 0x0 DUP1 PUSH1 0x0 SWAP1 SLOAD SWAP1 PUSH2 0x100 EXP SWAP1 DIV PUSH20 0xFFFFFFFFFFFFFFFFFFFFFFFFFFFFFFFFFFFFFFFF AND PUSH20 0xFFFFFFFFFFFFFFFFFFFFFFFFFFFFFFFFFFFFFFFF AND PUSH4 0xF55DD6C1 PUSH1 0x40 MLOAD DUP2 PUSH4 0xFFFFFFFF AND PUSH1 0xE0 SHL DUP2 MSTORE PUSH1 0x4 ADD PUSH1 0x20 PUSH1 0x40 MLOAD DUP1 DUP4 SUB DUP2 DUP7 GAS STATICCALL ISZERO DUP1 ISZERO PUSH2 0xA82 JUMPI RETURNDATASIZE PUSH1 0x0 DUP1 RETURNDATACOPY RETURNDATASIZE PUSH1 0x0 REVERT JUMPDEST POP POP POP POP PUSH1 0x40 MLOAD RETURNDATASIZE PUSH1 0x1F NOT PUSH1 0x1F DUP3 ADD AND DUP3 ADD DUP1 PUSH1 0x40 MSTORE POP DUP2 ADD SWAP1 PUSH2 0xAA6 SWAP2 SWAP1 PUSH2 0x4BB9 JUMP JUMPDEST PUSH20 0xFFFFFFFFFFFFFFFFFFFFFFFFFFFFFFFFFFFFFFFF AND PUSH4 0x2F55B61 DUP6 PUSH1 0x40 MLOAD DUP3 PUSH4 0xFFFFFFFF AND PUSH1 0xE0 SHL DUP2 MSTORE PUSH1 0x4 ADD PUSH2 0xADE SWAP2 SWAP1 PUSH2 0x495F JUMP JUMPDEST PUSH1 0x40 DUP1 MLOAD DUP1 DUP4 SUB DUP2 DUP7 GAS STATICCALL ISZERO DUP1 ISZERO PUSH2 0xAFA JUMPI RETURNDATASIZE PUSH1 0x0 DUP1 RETURNDATACOPY RETURNDATASIZE PUSH1 0x0 REVERT JUMPDEST POP POP POP POP PUSH1 0x40 MLOAD RETURNDATASIZE PUSH1 0x1F NOT PUSH1 0x1F DUP3 ADD AND DUP3 ADD DUP1 PUSH1 0x40 MSTORE POP DUP2 ADD SWAP1 PUSH2 0xB1E SWAP2 SWAP1 PUSH2 0x4BE6 JUMP JUMPDEST SWAP2 POP SWAP2 POP PUSH1 0x0 DUP1 PUSH1 0x0 SWAP1 SLOAD SWAP1 PUSH2 0x100 EXP SWAP1 DIV PUSH20 0xFFFFFFFFFFFFFFFFFFFFFFFFFFFFFFFFFFFFFFFF AND PUSH20 0xFFFFFFFFFFFFFFFFFFFFFFFFFFFFFFFFFFFFFFFF AND PUSH4 0x6BBE56CF DUP7 PUSH1 0x40 MLOAD DUP3 PUSH4 0xFFFFFFFF AND PUSH1 0xE0 SHL DUP2 MSTORE PUSH1 0x4 ADD PUSH2 0xB7E SWAP2 SWAP1 PUSH2 0x495F JUMP JUMPDEST PUSH1 0x20 PUSH1 0x40 MLOAD DUP1 DUP4 SUB DUP2 DUP7 GAS STATICCALL ISZERO DUP1 ISZERO PUSH2 0xB9B JUMPI RETURNDATASIZE PUSH1 0x0 DUP1 RETURNDATACOPY RETURNDATASIZE PUSH1 0x0 REVERT JUMPDEST POP POP POP POP PUSH1 0x40 MLOAD RETURNDATASIZE PUSH1 0x1F NOT PUSH1 0x1F DUP3 ADD AND DUP3 ADD DUP1 PUSH1 0x40 MSTORE POP DUP2 ADD SWAP1 PUSH2 0xBBF SWAP2 SWAP1 PUSH2 0x4C26 JUMP JUMPDEST SWAP1 POP PUSH1 0x0 DUP2 GT DUP1 ISZERO PUSH2 0xBD0 JUMPI POP DUP3 DUP3 GT JUMPDEST PUSH2 0xBDA JUMPI DUP3 PUSH2 0xCA1 JUMP JUMPDEST DUP1 PUSH1 0x0 DUP1 SLOAD SWAP1 PUSH2 0x100 EXP SWAP1 DIV PUSH20 0xFFFFFFFFFFFFFFFFFFFFFFFFFFFFFFFFFFFFFFFF AND PUSH20 0xFFFFFFFFFFFFFFFFFFFFFFFFFFFFFFFFFFFFFFFF AND PUSH4 0xE2E1CA2B DUP8 PUSH1 0x40 MLOAD DUP3 PUSH4 0xFFFFFFFF AND PUSH1 0xE0 SHL DUP2 MSTORE PUSH1 0x4 ADD PUSH2 0xC34 SWAP2 SWAP1 PUSH2 0x495F JUMP JUMPDEST PUSH1 0x20 PUSH1 0x40 MLOAD DUP1 DUP4 SUB DUP2 DUP7 GAS STATICCALL ISZERO DUP1 ISZERO PUSH2 0xC51 JUMPI RETURNDATASIZE PUSH1 0x0 DUP1 RETURNDATACOPY RETURNDATASIZE PUSH1 0x0 REVERT JUMPDEST POP POP POP POP PUSH1 0x40 MLOAD RETURNDATASIZE PUSH1 0x1F NOT PUSH1 0x1F DUP3 ADD AND DUP3 ADD DUP1 PUSH1 0x40 MSTORE POP DUP2 ADD SWAP1 PUSH2 0xC75 SWAP2 SWAP1 PUSH2 0x4C26 JUMP JUMPDEST DUP5 DUP5 PUSH2 0xC81 SWAP2 SWAP1 PUSH2 0x4C82 JUMP JUMPDEST PUSH2 0xC8B SWAP2 SWAP1 PUSH2 0x4CB6 JUMP JUMPDEST PUSH2 0xC95 SWAP2 SWAP1 PUSH2 0x4D27 JUMP JUMPDEST DUP4 PUSH2 0xCA0 SWAP2 SWAP1 PUSH2 0x4D58 JUMP JUMPDEST JUMPDEST SWAP4 POP POP POP POP SWAP2 SWAP1 POP JUMP JUMPDEST PUSH1 0x0 DUP1 PUSH1 0x0 PUSH2 0xCB9 DUP5 PUSH2 0x341F JUMP JUMPDEST SWAP3 POP PUSH1 0x1 PUSH1 0x0 SWAP1 SLOAD SWAP1 PUSH2 0x100 EXP SWAP1 DIV PUSH20 0xFFFFFFFFFFFFFFFFFFFFFFFFFFFFFFFFFFFFFFFF AND PUSH20 0xFFFFFFFFFFFFFFFFFFFFFFFFFFFFFFFFFFFFFFFF AND PUSH4 0xF1745D3D DUP6 PUSH1 0x40 MLOAD DUP3 PUSH4 0xFFFFFFFF AND PUSH1 0xE0 SHL DUP2 MSTORE PUSH1 0x4 ADD PUSH2 0xD16 SWAP2 SWAP1 PUSH2 0x495F JUMP JUMPDEST PUSH1 0x20 PUSH1 0x40 MLOAD DUP1 DUP4 SUB DUP2 DUP7 GAS STATICCALL ISZERO DUP1 ISZERO PUSH2 0xD33 JUMPI RETURNDATASIZE PUSH1 0x0 DUP1 RETURNDATACOPY RETURNDATASIZE PUSH1 0x0 REVERT JUMPDEST POP POP POP POP PUSH1 0x40 MLOAD RETURNDATASIZE PUSH1 0x1F NOT PUSH1 0x1F DUP3 ADD AND DUP3 ADD DUP1 PUSH1 0x40 MSTORE POP DUP2 ADD SWAP1 PUSH2 0xD57 SWAP2 SWAP1 PUSH2 0x4C26 JUMP JUMPDEST SWAP2 POP PUSH1 0x2 PUSH1 0x0 SWAP1 SLOAD SWAP1 PUSH2 0x100 EXP SWAP1 DIV PUSH20 0xFFFFFFFFFFFFFFFFFFFFFFFFFFFFFFFFFFFFFFFF AND PUSH20 0xFFFFFFFFFFFFFFFFFFFFFFFFFFFFFFFFFFFFFFFF AND PUSH4 0xF1745D3D DUP6 PUSH1 0x40 MLOAD DUP3 PUSH4 0xFFFFFFFF AND PUSH1 0xE0 SHL DUP2 MSTORE PUSH1 0x4 ADD PUSH2 0xDB4 SWAP2 SWAP1 PUSH2 0x495F JUMP JUMPDEST PUSH1 0x20 PUSH1 0x40 MLOAD DUP1 DUP4 SUB DUP2 DUP7 GAS STATICCALL ISZERO DUP1 ISZERO PUSH2 0xDD1 JUMPI RETURNDATASIZE PUSH1 0x0 DUP1 RETURNDATACOPY RETURNDATASIZE PUSH1 0x0 REVERT JUMPDEST POP POP POP POP PUSH1 0x40 MLOAD RETURNDATASIZE PUSH1 0x1F NOT PUSH1 0x1F DUP3 ADD AND DUP3 ADD DUP1 PUSH1 0x40 MSTORE POP DUP2 ADD SWAP1 PUSH2 0xDF5 SWAP2 SWAP1 PUSH2 0x4C26 JUMP JUMPDEST SWAP1 POP SWAP2 SWAP4 SWAP1 SWAP3 POP JUMP JUMPDEST PUSH1 0x60 PUSH1 0x0 DUP4 PUSH20 0xFFFFFFFFFFFFFFFFFFFFFFFFFFFFFFFFFFFFFFFF AND PUSH4 0xF65BAEFA PUSH1 0x40 MLOAD DUP2 PUSH4 0xFFFFFFFF AND PUSH1 0xE0 SHL DUP2 MSTORE PUSH1 0x4 ADD PUSH1 0x0 PUSH1 0x40 MLOAD DUP1 DUP4 SUB DUP2 DUP7 GAS STATICCALL ISZERO DUP1 ISZERO PUSH2 0xE4D JUMPI RETURNDATASIZE PUSH1 0x0 DUP1 RETURNDATACOPY RETURNDATASIZE PUSH1 0x0 REVERT JUMPDEST POP POP POP POP PUSH1 0x40 MLOAD RETURNDATASIZE PUSH1 0x0 DUP3 RETURNDATACOPY RETURNDATASIZE PUSH1 0x1F NOT PUSH1 0x1F DUP3 ADD AND DUP3 ADD DUP1 PUSH1 0x40 MSTORE POP DUP2 ADD SWAP1 PUSH2 0xE76 SWAP2 SWAP1 PUSH2 0x4E64 JUMP JUMPDEST SWAP1 POP DUP1 MLOAD PUSH8 0xFFFFFFFFFFFFFFFF DUP2 GT ISZERO PUSH2 0xE93 JUMPI PUSH2 0xE92 PUSH2 0x497A JUMP JUMPDEST JUMPDEST PUSH1 0x40 MLOAD SWAP1 DUP1 DUP3 MSTORE DUP1 PUSH1 0x20 MUL PUSH1 0x20 ADD DUP3 ADD PUSH1 0x40 MSTORE DUP1 ISZERO PUSH2 0xECC JUMPI DUP2 PUSH1 0x20 ADD JUMPDEST PUSH2 0xEB9 PUSH2 0x37A7 JUMP JUMPDEST DUP2 MSTORE PUSH1 0x20 ADD SWAP1 PUSH1 0x1 SWAP1 SUB SWAP1 DUP2 PUSH2 0xEB1 JUMPI SWAP1 POP JUMPDEST POP SWAP2 POP PUSH1 0x0 JUMPDEST DUP2 MLOAD DUP2 LT ISZERO PUSH2 0x1142 JUMPI PUSH1 0x0 DUP1 PUSH1 0x0 DUP8 PUSH20 0xFFFFFFFFFFFFFFFFFFFFFFFFFFFFFFFFFFFFFFFF AND PUSH4 0x193039D1 DUP7 DUP7 DUP2 MLOAD DUP2 LT PUSH2 0xF0F JUMPI PUSH2 0xF0E PUSH2 0x4EAD JUMP JUMPDEST JUMPDEST PUSH1 0x20 MUL PUSH1 0x20 ADD ADD MLOAD PUSH1 0x40 MLOAD DUP3 PUSH4 0xFFFFFFFF AND PUSH1 0xE0 SHL DUP2 MSTORE PUSH1 0x4 ADD PUSH2 0xF33 SWAP2 SWAP1 PUSH2 0x495F JUMP JUMPDEST PUSH1 0x0 PUSH1 0x40 MLOAD DUP1 DUP4 SUB DUP2 DUP7 GAS STATICCALL ISZERO DUP1 ISZERO PUSH2 0xF50 JUMPI RETURNDATASIZE PUSH1 0x0 DUP1 RETURNDATACOPY RETURNDATASIZE PUSH1 0x0 REVERT JUMPDEST POP POP POP POP PUSH1 0x40 MLOAD RETURNDATASIZE PUSH1 0x0 DUP3 RETURNDATACOPY RETURNDATASIZE PUSH1 0x1F NOT PUSH1 0x1F DUP3 ADD AND DUP3 ADD DUP1 PUSH1 0x40 MSTORE POP DUP2 ADD SWAP1 PUSH2 0xF79 SWAP2 SWAP1 PUSH2 0x4EDC JUMP JUMPDEST POP SWAP3 POP SWAP3 POP SWAP3 POP PUSH1 0x0 DUP8 PUSH20 0xFFFFFFFFFFFFFFFFFFFFFFFFFFFFFFFFFFFFFFFF AND PUSH4 0xB3596F07 DUP8 DUP8 DUP2 MLOAD DUP2 LT PUSH2 0xFB1 JUMPI PUSH2 0xFB0 PUSH2 0x4EAD JUMP JUMPDEST JUMPDEST PUSH1 0x20 MUL PUSH1 0x20 ADD ADD MLOAD PUSH1 0x40 MLOAD DUP3 PUSH4 0xFFFFFFFF AND PUSH1 0xE0 SHL DUP2 MSTORE PUSH1 0x4 ADD PUSH2 0xFD5 SWAP2 SWAP1 PUSH2 0x495F JUMP JUMPDEST PUSH1 0x20 PUSH1 0x40 MLOAD DUP1 DUP4 SUB DUP2 DUP7 GAS STATICCALL ISZERO DUP1 ISZERO PUSH2 0xFF2 JUMPI RETURNDATASIZE PUSH1 0x0 DUP1 RETURNDATACOPY RETURNDATASIZE PUSH1 0x0 REVERT JUMPDEST POP POP POP POP PUSH1 0x40 MLOAD RETURNDATASIZE PUSH1 0x1F NOT PUSH1 0x1F DUP3 ADD AND DUP3 ADD DUP1 PUSH1 0x40 MSTORE POP DUP2 ADD SWAP1 PUSH2 0x1016 SWAP2 SWAP1 PUSH2 0x4C26 JUMP JUMPDEST SWAP1 POP DUP6 DUP6 DUP2 MLOAD DUP2 LT PUSH2 0x102B JUMPI PUSH2 0x102A PUSH2 0x4EAD JUMP JUMPDEST JUMPDEST PUSH1 0x20 MUL PUSH1 0x20 ADD ADD MLOAD DUP8 DUP7 DUP2 MLOAD DUP2 LT PUSH2 0x1046 JUMPI PUSH2 0x1045 PUSH2 0x4EAD JUMP JUMPDEST JUMPDEST PUSH1 0x20 MUL PUSH1 0x20 ADD ADD MLOAD PUSH1 0x0 ADD SWAP1 PUSH20 0xFFFFFFFFFFFFFFFFFFFFFFFFFFFFFFFFFFFFFFFF AND SWAP1 DUP2 PUSH20 0xFFFFFFFFFFFFFFFFFFFFFFFFFFFFFFFFFFFFFFFF AND DUP2 MSTORE POP POP DUP3 DUP8 DUP7 DUP2 MLOAD DUP2 LT PUSH2 0x1098 JUMPI PUSH2 0x1097 PUSH2 0x4EAD JUMP JUMPDEST JUMPDEST PUSH1 0x20 MUL PUSH1 0x20 ADD ADD MLOAD PUSH1 0x20 ADD DUP2 DUP2 MSTORE POP POP PUSH4 0x5F5E100 DUP2 DUP5 PUSH2 0x10B9 SWAP2 SWAP1 PUSH2 0x4CB6 JUMP JUMPDEST PUSH2 0x10C3 SWAP2 SWAP1 PUSH2 0x4D27 JUMP JUMPDEST DUP8 DUP7 DUP2 MLOAD DUP2 LT PUSH2 0x10D6 JUMPI PUSH2 0x10D5 PUSH2 0x4EAD JUMP JUMPDEST JUMPDEST PUSH1 0x20 MUL PUSH1 0x20 ADD ADD MLOAD PUSH1 0x40 ADD DUP2 DUP2 MSTORE POP POP DUP2 DUP8 DUP7 DUP2 MLOAD DUP2 LT PUSH2 0x10FA JUMPI PUSH2 0x10F9 PUSH2 0x4EAD JUMP JUMPDEST JUMPDEST PUSH1 0x20 MUL PUSH1 0x20 ADD ADD MLOAD PUSH1 0x60 ADD DUP2 DUP2 MSTORE POP POP DUP4 DUP8 DUP7 DUP2 MLOAD DUP2 LT PUSH2 0x111E JUMPI PUSH2 0x111D PUSH2 0x4EAD JUMP JUMPDEST JUMPDEST PUSH1 0x20 MUL PUSH1 0x20 ADD ADD MLOAD PUSH1 0x80 ADD DUP2 SWAP1 MSTORE POP POP POP POP POP DUP1 PUSH2 0x113B SWAP1 PUSH2 0x4F5F JUMP JUMPDEST SWAP1 POP PUSH2 0xED2 JUMP JUMPDEST POP POP SWAP3 SWAP2 POP POP JUMP JUMPDEST PUSH1 0x60 PUSH1 0x0 DUP4 PUSH20 0xFFFFFFFFFFFFFFFFFFFFFFFFFFFFFFFFFFFFFFFF AND PUSH4 0xF65BAEFA PUSH1 0x40 MLOAD DUP2 PUSH4 0xFFFFFFFF AND PUSH1 0xE0 SHL DUP2 MSTORE PUSH1 0x4 ADD PUSH1 0x0 PUSH1 0x40 MLOAD DUP1 DUP4 SUB DUP2 DUP7 GAS STATICCALL ISZERO DUP1 ISZERO PUSH2 0x1199 JUMPI RETURNDATASIZE PUSH1 0x0 DUP1 RETURNDATACOPY RETURNDATASIZE PUSH1 0x0 REVERT JUMPDEST POP POP POP POP PUSH1 0x40 MLOAD RETURNDATASIZE PUSH1 0x0 DUP3 RETURNDATACOPY RETURNDATASIZE PUSH1 0x1F NOT PUSH1 0x1F DUP3 ADD AND DUP3 ADD DUP1 PUSH1 0x40 MSTORE POP DUP2 ADD SWAP1 PUSH2 0x11C2 SWAP2 SWAP1 PUSH2 0x4E64 JUMP JUMPDEST SWAP1 POP DUP1 MLOAD PUSH8 0xFFFFFFFFFFFFFFFF DUP2 GT ISZERO PUSH2 0x11DF JUMPI PUSH2 0x11DE PUSH2 0x497A JUMP JUMPDEST JUMPDEST PUSH1 0x40 MLOAD SWAP1 DUP1 DUP3 MSTORE DUP1 PUSH1 0x20 MUL PUSH1 0x20 ADD DUP3 ADD PUSH1 0x40 MSTORE DUP1 ISZERO PUSH2 0x1218 JUMPI DUP2 PUSH1 0x20 ADD JUMPDEST PUSH2 0x1205 PUSH2 0x37EC JUMP JUMPDEST DUP2 MSTORE PUSH1 0x20 ADD SWAP1 PUSH1 0x1 SWAP1 SUB SWAP1 DUP2 PUSH2 0x11FD JUMPI SWAP1 POP JUMPDEST POP SWAP2 POP PUSH1 0x0 JUMPDEST DUP2 MLOAD DUP2 LT ISZERO PUSH2 0x15DF JUMPI PUSH1 0x0 DUP5 PUSH20 0xFFFFFFFFFFFFFFFFFFFFFFFFFFFFFFFFFFFFFFFF AND PUSH4 0xB3596F07 DUP5 DUP5 DUP2 MLOAD DUP2 LT PUSH2 0x1258 JUMPI PUSH2 0x1257 PUSH2 0x4EAD JUMP JUMPDEST JUMPDEST PUSH1 0x20 MUL PUSH1 0x20 ADD ADD MLOAD PUSH1 0x40 MLOAD DUP3 PUSH4 0xFFFFFFFF AND PUSH1 0xE0 SHL DUP2 MSTORE PUSH1 0x4 ADD PUSH2 0x127C SWAP2 SWAP1 PUSH2 0x495F JUMP JUMPDEST PUSH1 0x20 PUSH1 0x40 MLOAD DUP1 DUP4 SUB DUP2 DUP7 GAS STATICCALL ISZERO DUP1 ISZERO PUSH2 0x1299 JUMPI RETURNDATASIZE PUSH1 0x0 DUP1 RETURNDATACOPY RETURNDATASIZE PUSH1 0x0 REVERT JUMPDEST POP POP POP POP PUSH1 0x40 MLOAD RETURNDATASIZE PUSH1 0x1F NOT PUSH1 0x1F DUP3 ADD AND DUP3 ADD DUP1 PUSH1 0x40 MSTORE POP DUP2 ADD SWAP1 PUSH2 0x12BD SWAP2 SWAP1 PUSH2 0x4C26 JUMP JUMPDEST SWAP1 POP PUSH4 0x5F5E100 DUP2 DUP8 PUSH20 0xFFFFFFFFFFFFFFFFFFFFFFFFFFFFFFFFFFFFFFFF AND PUSH4 0x6BBE56CF DUP7 DUP7 DUP2 MLOAD DUP2 LT PUSH2 0x12F4 JUMPI PUSH2 0x12F3 PUSH2 0x4EAD JUMP JUMPDEST JUMPDEST PUSH1 0x20 MUL PUSH1 0x20 ADD ADD MLOAD PUSH1 0x40 MLOAD DUP3 PUSH4 0xFFFFFFFF AND PUSH1 0xE0 SHL DUP2 MSTORE PUSH1 0x4 ADD PUSH2 0x1318 SWAP2 SWAP1 PUSH2 0x495F JUMP JUMPDEST PUSH1 0x20 PUSH1 0x40 MLOAD DUP1 DUP4 SUB DUP2 DUP7 GAS STATICCALL ISZERO DUP1 ISZERO PUSH2 0x1335 JUMPI RETURNDATASIZE PUSH1 0x0 DUP1 RETURNDATACOPY RETURNDATASIZE PUSH1 0x0 REVERT JUMPDEST POP POP POP POP PUSH1 0x40 MLOAD RETURNDATASIZE PUSH1 0x1F NOT PUSH1 0x1F DUP3 ADD AND DUP3 ADD DUP1 PUSH1 0x40 MSTORE POP DUP2 ADD SWAP1 PUSH2 0x1359 SWAP2 SWAP1 PUSH2 0x4C26 JUMP JUMPDEST PUSH2 0x1363 SWAP2 SWAP1 PUSH2 0x4CB6 JUMP JUMPDEST PUSH2 0x136D SWAP2 SWAP1 PUSH2 0x4D27 JUMP JUMPDEST DUP5 DUP4 DUP2 MLOAD DUP2 LT PUSH2 0x1380 JUMPI PUSH2 0x137F PUSH2 0x4EAD JUMP JUMPDEST JUMPDEST PUSH1 0x20 MUL PUSH1 0x20 ADD ADD MLOAD PUSH1 0x0 ADD DUP2 DUP2 MSTORE POP POP PUSH2 0x13B3 DUP4 DUP4 DUP2 MLOAD DUP2 LT PUSH2 0x13A6 JUMPI PUSH2 0x13A5 PUSH2 0x4EAD JUMP JUMPDEST JUMPDEST PUSH1 0x20 MUL PUSH1 0x20 ADD ADD MLOAD PUSH2 0x5B3 JUMP JUMPDEST DUP5 DUP4 DUP2 MLOAD DUP2 LT PUSH2 0x13C6 JUMPI PUSH2 0x13C5 PUSH2 0x4EAD JUMP JUMPDEST JUMPDEST PUSH1 0x20 MUL PUSH1 0x20 ADD ADD MLOAD PUSH1 0x20 ADD DUP2 DUP2 MSTORE POP POP PUSH4 0x5F5E100 DUP2 DUP8 PUSH20 0xFFFFFFFFFFFFFFFFFFFFFFFFFFFFFFFFFFFFFFFF AND PUSH4 0xE2E1CA2B DUP7 DUP7 DUP2 MLOAD DUP2 LT PUSH2 0x140B JUMPI PUSH2 0x140A PUSH2 0x4EAD JUMP JUMPDEST JUMPDEST PUSH1 0x20 MUL PUSH1 0x20 ADD ADD MLOAD PUSH1 0x40 MLOAD DUP3 PUSH4 0xFFFFFFFF AND PUSH1 0xE0 SHL DUP2 MSTORE PUSH1 0x4 ADD PUSH2 0x142F SWAP2 SWAP1 PUSH2 0x495F JUMP JUMPDEST PUSH1 0x20 PUSH1 0x40 MLOAD DUP1 DUP4 SUB DUP2 DUP7 GAS STATICCALL ISZERO DUP1 ISZERO PUSH2 0x144C JUMPI RETURNDATASIZE PUSH1 0x0 DUP1 RETURNDATACOPY RETURNDATASIZE PUSH1 0x0 REVERT JUMPDEST POP POP POP POP PUSH1 0x40 MLOAD RETURNDATASIZE PUSH1 0x1F NOT PUSH1 0x1F DUP3 ADD AND DUP3 ADD DUP1 PUSH1 0x40 MSTORE POP DUP2 ADD SWAP1 PUSH2 0x1470 SWAP2 SWAP1 PUSH2 0x4C26 JUMP JUMPDEST PUSH2 0x147A SWAP2 SWAP1 PUSH2 0x4CB6 JUMP JUMPDEST PUSH2 0x1484 SWAP2 SWAP1 PUSH2 0x4D27 JUMP JUMPDEST DUP5 DUP4 DUP2 MLOAD DUP2 LT PUSH2 0x1497 JUMPI PUSH2 0x1496 PUSH2 0x4EAD JUMP JUMPDEST JUMPDEST PUSH1 0x20 MUL PUSH1 0x20 ADD ADD MLOAD PUSH1 0x40 ADD DUP2 DUP2 MSTORE POP POP PUSH2 0x14CA DUP4 DUP4 DUP2 MLOAD DUP2 LT PUSH2 0x14BD JUMPI PUSH2 0x14BC PUSH2 0x4EAD JUMP JUMPDEST JUMPDEST PUSH1 0x20 MUL PUSH1 0x20 ADD ADD MLOAD PUSH2 0x341F JUMP JUMPDEST DUP5 DUP4 DUP2 MLOAD DUP2 LT PUSH2 0x14DD JUMPI PUSH2 0x14DC PUSH2 0x4EAD JUMP JUMPDEST JUMPDEST PUSH1 0x20 MUL PUSH1 0x20 ADD ADD MLOAD PUSH1 0x20 ADD DUP2 DUP2 MSTORE POP POP PUSH1 0x0 DUP7 PUSH20 0xFFFFFFFFFFFFFFFFFFFFFFFFFFFFFFFFFFFFFFFF AND PUSH4 0x31664EBF DUP6 DUP6 DUP2 MLOAD DUP2 LT PUSH2 0x151E JUMPI PUSH2 0x151D PUSH2 0x4EAD JUMP JUMPDEST JUMPDEST PUSH1 0x20 MUL PUSH1 0x20 ADD ADD MLOAD PUSH1 0x40 MLOAD DUP3 PUSH4 0xFFFFFFFF AND PUSH1 0xE0 SHL DUP2 MSTORE PUSH1 0x4 ADD PUSH2 0x1542 SWAP2 SWAP1 PUSH2 0x495F JUMP JUMPDEST PUSH1 0x0 PUSH1 0x40 MLOAD DUP1 DUP4 SUB DUP2 DUP7 GAS STATICCALL ISZERO DUP1 ISZERO PUSH2 0x155F JUMPI RETURNDATASIZE PUSH1 0x0 DUP1 RETURNDATACOPY RETURNDATASIZE PUSH1 0x0 REVERT JUMPDEST POP POP POP POP PUSH1 0x40 MLOAD RETURNDATASIZE PUSH1 0x0 DUP3 RETURNDATACOPY RETURNDATASIZE PUSH1 0x1F NOT PUSH1 0x1F DUP3 ADD AND DUP3 ADD DUP1 PUSH1 0x40 MSTORE POP DUP2 ADD SWAP1 PUSH2 0x1588 SWAP2 SWAP1 PUSH2 0x4AE4 JUMP JUMPDEST POP POP SWAP3 POP POP POP PUSH4 0x5F5E100 DUP3 DUP3 PUSH2 0x159F SWAP2 SWAP1 PUSH2 0x4CB6 JUMP JUMPDEST PUSH2 0x15A9 SWAP2 SWAP1 PUSH2 0x4D27 JUMP JUMPDEST DUP6 DUP5 DUP2 MLOAD DUP2 LT PUSH2 0x15BC JUMPI PUSH2 0x15BB PUSH2 0x4EAD JUMP JUMPDEST JUMPDEST PUSH1 0x20 MUL PUSH1 0x20 ADD ADD MLOAD PUSH1 0x80 ADD DUP2 DUP2 MSTORE POP POP POP POP DUP1 PUSH2 0x15D8 SWAP1 PUSH2 0x4F5F JUMP JUMPDEST SWAP1 POP PUSH2 0x121E JUMP JUMPDEST POP POP SWAP3 SWAP2 POP POP JUMP JUMPDEST PUSH1 0x60 PUSH1 0x0 DUP5 PUSH20 0xFFFFFFFFFFFFFFFFFFFFFFFFFFFFFFFFFFFFFFFF AND PUSH4 0xF65BAEFA PUSH1 0x40 MLOAD DUP2 PUSH4 0xFFFFFFFF AND PUSH1 0xE0 SHL DUP2 MSTORE PUSH1 0x4 ADD PUSH1 0x0 PUSH1 0x40 MLOAD DUP1 DUP4 SUB DUP2 DUP7 GAS STATICCALL ISZERO DUP1 ISZERO PUSH2 0x1636 JUMPI RETURNDATASIZE PUSH1 0x0 DUP1 RETURNDATACOPY RETURNDATASIZE PUSH1 0x0 REVERT JUMPDEST POP POP POP POP PUSH1 0x40 MLOAD RETURNDATASIZE PUSH1 0x0 DUP3 RETURNDATACOPY RETURNDATASIZE PUSH1 0x1F NOT PUSH1 0x1F DUP3 ADD AND DUP3 ADD DUP1 PUSH1 0x40 MSTORE POP DUP2 ADD SWAP1 PUSH2 0x165F SWAP2 SWAP1 PUSH2 0x4E64 JUMP JUMPDEST SWAP1 POP DUP1 MLOAD PUSH8 0xFFFFFFFFFFFFFFFF DUP2 GT ISZERO PUSH2 0x167C JUMPI PUSH2 0x167B PUSH2 0x497A JUMP JUMPDEST JUMPDEST PUSH1 0x40 MLOAD SWAP1 DUP1 DUP3 MSTORE DUP1 PUSH1 0x20 MUL PUSH1 0x20 ADD DUP3 ADD PUSH1 0x40 MSTORE DUP1 ISZERO PUSH2 0x16B5 JUMPI DUP2 PUSH1 0x20 ADD JUMPDEST PUSH2 0x16A2 PUSH2 0x381B JUMP JUMPDEST DUP2 MSTORE PUSH1 0x20 ADD SWAP1 PUSH1 0x1 SWAP1 SUB SWAP1 DUP2 PUSH2 0x169A JUMPI SWAP1 POP JUMPDEST POP SWAP2 POP PUSH1 0x0 DUP6 PUSH20 0xFFFFFFFFFFFFFFFFFFFFFFFFFFFFFFFFFFFFFFFF AND PUSH4 0x67E4AC2C PUSH1 0x40 MLOAD DUP2 PUSH4 0xFFFFFFFF AND PUSH1 0xE0 SHL DUP2 MSTORE PUSH1 0x4 ADD PUSH1 0x0 PUSH1 0x40 MLOAD DUP1 DUP4 SUB DUP2 DUP7 GAS STATICCALL ISZERO DUP1 ISZERO PUSH2 0x1705 JUMPI RETURNDATASIZE PUSH1 0x0 DUP1 RETURNDATACOPY RETURNDATASIZE PUSH1 0x0 REVERT JUMPDEST POP POP POP POP PUSH1 0x40 MLOAD RETURNDATASIZE PUSH1 0x0 DUP3 RETURNDATACOPY RETURNDATASIZE PUSH1 0x1F NOT PUSH1 0x1F DUP3 ADD AND DUP3 ADD DUP1 PUSH1 0x40 MSTORE POP DUP2 ADD SWAP1 PUSH2 0x172E SWAP2 SWAP1 PUSH2 0x518A JUMP JUMPDEST SWAP1 POP PUSH1 0x0 JUMPDEST DUP3 MLOAD DUP2 LT ISZERO PUSH2 0x1A9E JUMPI PUSH1 0x0 DUP3 DUP3 DUP2 MLOAD DUP2 LT PUSH2 0x1751 JUMPI PUSH2 0x1750 PUSH2 0x4EAD JUMP JUMPDEST JUMPDEST PUSH1 0x20 MUL PUSH1 0x20 ADD ADD MLOAD SWAP1 POP PUSH1 0x0 DUP2 PUSH1 0x80 ADD MLOAD PUSH20 0xFFFFFFFFFFFFFFFFFFFFFFFFFFFFFFFFFFFFFFFF AND PUSH4 0x24570F8D DUP9 PUSH1 0x40 MLOAD DUP3 PUSH4 0xFFFFFFFF AND PUSH1 0xE0 SHL DUP2 MSTORE PUSH1 0x4 ADD PUSH2 0x179A SWAP2 SWAP1 PUSH2 0x495F JUMP JUMPDEST PUSH1 0x20 PUSH1 0x40 MLOAD DUP1 DUP4 SUB DUP2 DUP7 GAS STATICCALL ISZERO DUP1 ISZERO PUSH2 0x17B7 JUMPI RETURNDATASIZE PUSH1 0x0 DUP1 RETURNDATACOPY RETURNDATASIZE PUSH1 0x0 REVERT JUMPDEST POP POP POP POP PUSH1 0x40 MLOAD RETURNDATASIZE PUSH1 0x1F NOT PUSH1 0x1F DUP3 ADD AND DUP3 ADD DUP1 PUSH1 0x40 MSTORE POP DUP2 ADD SWAP1 PUSH2 0x17DB SWAP2 SWAP1 PUSH2 0x4C26 JUMP JUMPDEST SWAP1 POP PUSH1 0x0 DUP2 SUB PUSH2 0x17EC JUMPI POP POP PUSH2 0x1A8D JUMP JUMPDEST PUSH1 0x0 DUP9 PUSH20 0xFFFFFFFFFFFFFFFFFFFFFFFFFFFFFFFFFFFFFFFF AND PUSH4 0xB3596F07 DUP8 DUP7 DUP2 MLOAD DUP2 LT PUSH2 0x181D JUMPI PUSH2 0x181C PUSH2 0x4EAD JUMP JUMPDEST JUMPDEST PUSH1 0x20 MUL PUSH1 0x20 ADD ADD MLOAD PUSH1 0x40 MLOAD DUP3 PUSH4 0xFFFFFFFF AND PUSH1 0xE0 SHL DUP2 MSTORE PUSH1 0x4 ADD PUSH2 0x1841 SWAP2 SWAP1 PUSH2 0x495F JUMP JUMPDEST PUSH1 0x20 PUSH1 0x40 MLOAD DUP1 DUP4 SUB DUP2 DUP7 GAS STATICCALL ISZERO DUP1 ISZERO PUSH2 0x185E JUMPI RETURNDATASIZE PUSH1 0x0 DUP1 RETURNDATACOPY RETURNDATASIZE PUSH1 0x0 REVERT JUMPDEST POP POP POP POP PUSH1 0x40 MLOAD RETURNDATASIZE PUSH1 0x1F NOT PUSH1 0x1F DUP3 ADD AND DUP3 ADD DUP1 PUSH1 0x40 MSTORE POP DUP2 ADD SWAP1 PUSH2 0x1882 SWAP2 SWAP1 PUSH2 0x4C26 JUMP JUMPDEST SWAP1 POP PUSH1 0x0 PUSH2 0x18A9 DUP8 DUP7 DUP2 MLOAD DUP2 LT PUSH2 0x189C JUMPI PUSH2 0x189B PUSH2 0x4EAD JUMP JUMPDEST JUMPDEST PUSH1 0x20 MUL PUSH1 0x20 ADD ADD MLOAD PUSH2 0x341F JUMP JUMPDEST SWAP1 POP DUP7 DUP6 DUP2 MLOAD DUP2 LT PUSH2 0x18BE JUMPI PUSH2 0x18BD PUSH2 0x4EAD JUMP JUMPDEST JUMPDEST PUSH1 0x20 MUL PUSH1 0x20 ADD ADD MLOAD DUP9 DUP7 DUP2 MLOAD DUP2 LT PUSH2 0x18D9 JUMPI PUSH2 0x18D8 PUSH2 0x4EAD JUMP JUMPDEST JUMPDEST PUSH1 0x20 MUL PUSH1 0x20 ADD ADD MLOAD PUSH1 0x0 ADD SWAP1 PUSH20 0xFFFFFFFFFFFFFFFFFFFFFFFFFFFFFFFFFFFFFFFF AND SWAP1 DUP2 PUSH20 0xFFFFFFFFFFFFFFFFFFFFFFFFFFFFFFFFFFFFFFFF AND DUP2 MSTORE POP POP PUSH4 0x5F5E100 DUP3 DUP5 PUSH2 0x1928 SWAP2 SWAP1 PUSH2 0x4CB6 JUMP JUMPDEST PUSH2 0x1932 SWAP2 SWAP1 PUSH2 0x4D27 JUMP JUMPDEST DUP9 DUP7 DUP2 MLOAD DUP2 LT PUSH2 0x1945 JUMPI PUSH2 0x1944 PUSH2 0x4EAD JUMP JUMPDEST JUMPDEST PUSH1 0x20 MUL PUSH1 0x20 ADD ADD MLOAD PUSH1 0x20 ADD DUP2 DUP2 MSTORE POP POP DUP1 DUP9 DUP7 DUP2 MLOAD DUP2 LT PUSH2 0x1969 JUMPI PUSH2 0x1968 PUSH2 0x4EAD JUMP JUMPDEST JUMPDEST PUSH1 0x20 MUL PUSH1 0x20 ADD ADD MLOAD PUSH1 0x40 ADD DUP2 DUP2 MSTORE POP POP DUP11 PUSH20 0xFFFFFFFFFFFFFFFFFFFFFFFFFFFFFFFFFFFFFFFF AND PUSH4 0x676573BF DUP11 DUP10 DUP9 DUP2 MLOAD DUP2 LT PUSH2 0x19A9 JUMPI PUSH2 0x19A8 PUSH2 0x4EAD JUMP JUMPDEST JUMPDEST PUSH1 0x20 MUL PUSH1 0x20 ADD ADD MLOAD PUSH1 0x40 MLOAD DUP4 PUSH4 0xFFFFFFFF AND PUSH1 0xE0 SHL DUP2 MSTORE PUSH1 0x4 ADD PUSH2 0x19CE SWAP3 SWAP2 SWAP1 PUSH2 0x51D3 JUMP JUMPDEST PUSH1 0x20 PUSH1 0x40 MLOAD DUP1 DUP4 SUB DUP2 DUP7 GAS STATICCALL ISZERO DUP1 ISZERO PUSH2 0x19EB JUMPI RETURNDATASIZE PUSH1 0x0 DUP1 RETURNDATACOPY RETURNDATASIZE PUSH1 0x0 REVERT JUMPDEST POP POP POP POP PUSH1 0x40 MLOAD RETURNDATASIZE PUSH1 0x1F NOT PUSH1 0x1F DUP3 ADD AND DUP3 ADD DUP1 PUSH1 0x40 MSTORE POP DUP2 ADD SWAP1 PUSH2 0x1A0F SWAP2 SWAP1 PUSH2 0x4C26 JUMP JUMPDEST DUP9 DUP7 DUP2 MLOAD DUP2 LT PUSH2 0x1A22 JUMPI PUSH2 0x1A21 PUSH2 0x4EAD JUMP JUMPDEST JUMPDEST PUSH1 0x20 MUL PUSH1 0x20 ADD ADD MLOAD PUSH1 0x60 ADD DUP2 DUP2 MSTORE POP POP PUSH2 0x16D DUP2 PUSH4 0x5F5E100 DUP5 DUP7 PUSH2 0x1A47 SWAP2 SWAP1 PUSH2 0x4CB6 JUMP JUMPDEST PUSH2 0x1A51 SWAP2 SWAP1 PUSH2 0x4D27 JUMP JUMPDEST PUSH2 0x1A5B SWAP2 SWAP1 PUSH2 0x4CB6 JUMP JUMPDEST PUSH2 0x1A65 SWAP2 SWAP1 PUSH2 0x4D27 JUMP JUMPDEST DUP9 DUP7 DUP2 MLOAD DUP2 LT PUSH2 0x1A78 JUMPI PUSH2 0x1A77 PUSH2 0x4EAD JUMP JUMPDEST JUMPDEST PUSH1 0x20 MUL PUSH1 0x20 ADD ADD MLOAD PUSH1 0x80 ADD DUP2 DUP2 MSTORE POP POP POP POP POP POP JUMPDEST DUP1 PUSH2 0x1A97 SWAP1 PUSH2 0x4F5F JUMP JUMPDEST SWAP1 POP PUSH2 0x1733 JUMP JUMPDEST POP POP POP SWAP4 SWAP3 POP POP POP JUMP JUMPDEST PUSH1 0x60 PUSH1 0x0 DUP4 DUP4 SWAP1 POP SWAP1 POP DUP1 PUSH8 0xFFFFFFFFFFFFFFFF DUP2 GT ISZERO PUSH2 0x1ACC JUMPI PUSH2 0x1ACB PUSH2 0x497A JUMP JUMPDEST JUMPDEST PUSH1 0x40 MLOAD SWAP1 DUP1 DUP3 MSTORE DUP1 PUSH1 0x20 MUL PUSH1 0x20 ADD DUP3 ADD PUSH1 0x40 MSTORE DUP1 ISZERO PUSH2 0x1B05 JUMPI DUP2 PUSH1 0x20 ADD JUMPDEST PUSH2 0x1AF2 PUSH2 0x3860 JUMP JUMPDEST DUP2 MSTORE PUSH1 0x20 ADD SWAP1 PUSH1 0x1 SWAP1 SUB SWAP1 DUP2 PUSH2 0x1AEA JUMPI SWAP1 POP JUMPDEST POP SWAP2 POP CALLDATASIZE PUSH1 0x0 JUMPDEST DUP3 DUP2 LT ISZERO PUSH2 0x1C69 JUMPI PUSH1 0x0 DUP5 DUP3 DUP2 MLOAD DUP2 LT PUSH2 0x1B29 JUMPI PUSH2 0x1B28 PUSH2 0x4EAD JUMP JUMPDEST JUMPDEST PUSH1 0x20 MUL PUSH1 0x20 ADD ADD MLOAD SWAP1 POP DUP7 DUP7 DUP4 DUP2 DUP2 LT PUSH2 0x1B46 JUMPI PUSH2 0x1B45 PUSH2 0x4EAD JUMP JUMPDEST JUMPDEST SWAP1 POP PUSH1 0x20 MUL DUP2 ADD SWAP1 PUSH2 0x1B58 SWAP2 SWAP1 PUSH2 0x520B JUMP JUMPDEST SWAP3 POP DUP3 PUSH1 0x0 ADD PUSH1 0x20 DUP2 ADD SWAP1 PUSH2 0x1B6D SWAP2 SWAP1 PUSH2 0x3A47 JUMP JUMPDEST PUSH20 0xFFFFFFFFFFFFFFFFFFFFFFFFFFFFFFFFFFFFFFFF AND DUP4 DUP1 PUSH1 0x40 ADD SWAP1 PUSH2 0x1B93 SWAP2 SWAP1 PUSH2 0x5233 JUMP JUMPDEST PUSH1 0x40 MLOAD PUSH2 0x1BA1 SWAP3 SWAP2 SWAP1 PUSH2 0x52D5 JUMP JUMPDEST PUSH1 0x0 PUSH1 0x40 MLOAD DUP1 DUP4 SUB DUP2 PUSH1 0x0 DUP7 GAS CALL SWAP2 POP POP RETURNDATASIZE DUP1 PUSH1 0x0 DUP2 EQ PUSH2 0x1BDE JUMPI PUSH1 0x40 MLOAD SWAP2 POP PUSH1 0x1F NOT PUSH1 0x3F RETURNDATASIZE ADD AND DUP3 ADD PUSH1 0x40 MSTORE RETURNDATASIZE DUP3 MSTORE RETURNDATASIZE PUSH1 0x0 PUSH1 0x20 DUP5 ADD RETURNDATACOPY PUSH2 0x1BE3 JUMP JUMPDEST PUSH1 0x60 SWAP2 POP JUMPDEST POP DUP3 PUSH1 0x0 ADD DUP4 PUSH1 0x20 ADD DUP3 SWAP1 MSTORE DUP3 ISZERO ISZERO ISZERO ISZERO DUP2 MSTORE POP POP POP DUP1 MLOAD PUSH1 0x20 DUP5 ADD CALLDATALOAD OR PUSH2 0x1C5D JUMPI PUSH32 0x8C379A000000000000000000000000000000000000000000000000000000000 PUSH1 0x0 MSTORE PUSH1 0x20 PUSH1 0x4 MSTORE PUSH1 0x17 PUSH1 0x24 MSTORE PUSH32 0x4D756C746963616C6C333A2063616C6C206661696C6564000000000000000000 PUSH1 0x44 MSTORE PUSH1 0x64 PUSH1 0x0 REVERT JUMPDEST DUP2 PUSH1 0x1 ADD SWAP2 POP POP PUSH2 0x1B0C JUMP JUMPDEST POP POP POP SWAP3 SWAP2 POP POP JUMP JUMPDEST PUSH1 0x0 DUP1 PUSH1 0x0 DUP6 PUSH20 0xFFFFFFFFFFFFFFFFFFFFFFFFFFFFFFFFFFFFFFFF AND PUSH4 0xCAF7315B DUP7 DUP7 PUSH1 0x40 MLOAD DUP4 PUSH4 0xFFFFFFFF AND PUSH1 0xE0 SHL DUP2 MSTORE PUSH1 0x4 ADD PUSH2 0x1CB2 SWAP3 SWAP2 SWAP1 PUSH2 0x51D3 JUMP JUMPDEST PUSH1 0x60 PUSH1 0x40 MLOAD DUP1 DUP4 SUB DUP2 DUP7 GAS STATICCALL ISZERO DUP1 ISZERO PUSH2 0x1CCF JUMPI RETURNDATASIZE PUSH1 0x0 DUP1 RETURNDATACOPY RETURNDATASIZE PUSH1 0x0 REVERT JUMPDEST POP POP POP POP PUSH1 0x40 MLOAD RETURNDATASIZE PUSH1 0x1F NOT PUSH1 0x1F DUP3 ADD AND DUP3 ADD DUP1 PUSH1 0x40 MSTORE POP DUP2 ADD SWAP1 PUSH2 0x1CF3 SWAP2 SWAP1 PUSH2 0x52EE JUMP JUMPDEST POP DUP1 SWAP4 POP DUP2 SWAP5 POP POP POP DUP6 PUSH20 0xFFFFFFFFFFFFFFFFFFFFFFFFFFFFFFFFFFFFFFFF AND PUSH4 0x676573BF DUP7 DUP7 PUSH1 0x40 MLOAD DUP4 PUSH4 0xFFFFFFFF AND PUSH1 0xE0 SHL DUP2 MSTORE PUSH1 0x4 ADD PUSH2 0x1D37 SWAP3 SWAP2 SWAP1 PUSH2 0x51D3 JUMP JUMPDEST PUSH1 0x20 PUSH1 0x40 MLOAD DUP1 DUP4 SUB DUP2 DUP7 GAS STATICCALL ISZERO DUP1 ISZERO PUSH2 0x1D54 JUMPI RETURNDATASIZE PUSH1 0x0 DUP1 RETURNDATACOPY RETURNDATASIZE PUSH1 0x0 REVERT JUMPDEST POP POP POP POP PUSH1 0x40 MLOAD RETURNDATASIZE PUSH1 0x1F NOT PUSH1 0x1F DUP3 ADD AND DUP3 ADD DUP1 PUSH1 0x40 MSTORE POP DUP2 ADD SWAP1 PUSH2 0x1D78 SWAP2 SWAP1 PUSH2 0x4C26 JUMP JUMPDEST SWAP1 POP SWAP4 POP SWAP4 POP SWAP4 SWAP1 POP JUMP JUMPDEST PUSH1 0x0 DUP1 PUSH1 0x0 DUP5 PUSH20 0xFFFFFFFFFFFFFFFFFFFFFFFFFFFFFFFFFFFFFFFF AND PUSH4 0x6F307DC3 PUSH1 0x40 MLOAD DUP2 PUSH4 0xFFFFFFFF AND PUSH1 0xE0 SHL DUP2 MSTORE PUSH1 0x4 ADD PUSH1 0x20 PUSH1 0x40 MLOAD DUP1 DUP4 SUB DUP2 DUP7 GAS STATICCALL ISZERO DUP1 ISZERO PUSH2 0x1DD3 JUMPI RETURNDATASIZE PUSH1 0x0 DUP1 RETURNDATACOPY RETURNDATASIZE PUSH1 0x0 REVERT JUMPDEST POP POP POP POP PUSH1 0x40 MLOAD RETURNDATASIZE PUSH1 0x1F NOT PUSH1 0x1F DUP3 ADD AND DUP3 ADD DUP1 PUSH1 0x40 MSTORE POP DUP2 ADD SWAP1 PUSH2 0x1DF7 SWAP2 SWAP1 PUSH2 0x5341 JUMP JUMPDEST SWAP1 POP PUSH1 0x0 DUP1 DUP7 PUSH20 0xFFFFFFFFFFFFFFFFFFFFFFFFFFFFFFFFFFFFFFFF AND PUSH4 0x18160DDD PUSH1 0x40 MLOAD DUP2 PUSH4 0xFFFFFFFF AND PUSH1 0xE0 SHL DUP2 MSTORE PUSH1 0x4 ADD PUSH1 0x20 PUSH1 0x40 MLOAD DUP1 DUP4 SUB DUP2 DUP7 GAS STATICCALL ISZERO DUP1 ISZERO PUSH2 0x1E47 JUMPI RETURNDATASIZE PUSH1 0x0 DUP1 RETURNDATACOPY RETURNDATASIZE PUSH1 0x0 REVERT JUMPDEST POP POP POP POP PUSH1 0x40 MLOAD RETURNDATASIZE PUSH1 0x1F NOT PUSH1 0x1F DUP3 ADD AND DUP3 ADD DUP1 PUSH1 0x40 MSTORE POP DUP2 ADD SWAP1 PUSH2 0x1E6B SWAP2 SWAP1 PUSH2 0x4C26 JUMP JUMPDEST GT PUSH2 0x1E77 JUMPI PUSH1 0x0 PUSH2 0x1F73 JUMP JUMPDEST DUP6 PUSH20 0xFFFFFFFFFFFFFFFFFFFFFFFFFFFFFFFFFFFFFFFF AND PUSH4 0x18160DDD PUSH1 0x40 MLOAD DUP2 PUSH4 0xFFFFFFFF AND PUSH1 0xE0 SHL DUP2 MSTORE PUSH1 0x4 ADD PUSH1 0x20 PUSH1 0x40 MLOAD DUP1 DUP4 SUB DUP2 DUP7 GAS STATICCALL ISZERO DUP1 ISZERO PUSH2 0x1EC2 JUMPI RETURNDATASIZE PUSH1 0x0 DUP1 RETURNDATACOPY RETURNDATASIZE PUSH1 0x0 REVERT JUMPDEST POP POP POP POP PUSH1 0x40 MLOAD RETURNDATASIZE PUSH1 0x1F NOT PUSH1 0x1F DUP3 ADD AND DUP3 ADD DUP1 PUSH1 0x40 MSTORE POP DUP2 ADD SWAP1 PUSH2 0x1EE6 SWAP2 SWAP1 PUSH2 0x4C26 JUMP JUMPDEST PUSH8 0xDE0B6B3A7640000 DUP8 PUSH20 0xFFFFFFFFFFFFFFFFFFFFFFFFFFFFFFFFFFFFFFFF AND PUSH4 0xB1BF962D PUSH1 0x40 MLOAD DUP2 PUSH4 0xFFFFFFFF AND PUSH1 0xE0 SHL DUP2 MSTORE PUSH1 0x4 ADD PUSH1 0x20 PUSH1 0x40 MLOAD DUP1 DUP4 SUB DUP2 DUP7 GAS STATICCALL ISZERO DUP1 ISZERO PUSH2 0x1F3A JUMPI RETURNDATASIZE PUSH1 0x0 DUP1 RETURNDATACOPY RETURNDATASIZE PUSH1 0x0 REVERT JUMPDEST POP POP POP POP PUSH1 0x40 MLOAD RETURNDATASIZE PUSH1 0x1F NOT PUSH1 0x1F DUP3 ADD AND DUP3 ADD DUP1 PUSH1 0x40 MSTORE POP DUP2 ADD SWAP1 PUSH2 0x1F5E SWAP2 SWAP1 PUSH2 0x4C26 JUMP JUMPDEST PUSH2 0x1F68 SWAP2 SWAP1 PUSH2 0x4CB6 JUMP JUMPDEST PUSH2 0x1F72 SWAP2 SWAP1 PUSH2 0x4D27 JUMP JUMPDEST JUMPDEST SWAP1 POP PUSH1 0x0 DUP6 PUSH20 0xFFFFFFFFFFFFFFFFFFFFFFFFFFFFFFFFFFFFFFFF AND PUSH4 0xB3596F07 DUP5 PUSH1 0x40 MLOAD DUP3 PUSH4 0xFFFFFFFF AND PUSH1 0xE0 SHL DUP2 MSTORE PUSH1 0x4 ADD PUSH2 0x1FB0 SWAP2 SWAP1 PUSH2 0x495F JUMP JUMPDEST PUSH1 0x20 PUSH1 0x40 MLOAD DUP1 DUP4 SUB DUP2 DUP7 GAS STATICCALL ISZERO DUP1 ISZERO PUSH2 0x1FCD JUMPI RETURNDATASIZE PUSH1 0x0 DUP1 RETURNDATACOPY RETURNDATASIZE PUSH1 0x0 REVERT JUMPDEST POP POP POP POP PUSH1 0x40 MLOAD RETURNDATASIZE PUSH1 0x1F NOT PUSH1 0x1F DUP3 ADD AND DUP3 ADD DUP1 PUSH1 0x40 MSTORE POP DUP2 ADD SWAP1 PUSH2 0x1FF1 SWAP2 SWAP1 PUSH2 0x4C26 JUMP JUMPDEST SWAP1 POP PUSH1 0x0 PUSH4 0x5F5E100 DUP3 DUP5 PUSH2 0x2006 SWAP2 SWAP1 PUSH2 0x4CB6 JUMP JUMPDEST PUSH2 0x2010 SWAP2 SWAP1 PUSH2 0x4D27 JUMP JUMPDEST SWAP1 POP DUP3 DUP2 SWAP6 POP SWAP6 POP POP POP POP POP SWAP3 POP SWAP3 SWAP1 POP JUMP JUMPDEST PUSH1 0x0 DUP1 PUSH1 0x0 DUP1 PUSH1 0x0 DUP1 PUSH1 0x0 DUP1 PUSH1 0x0 DUP1 PUSH1 0x0 DUP13 PUSH20 0xFFFFFFFFFFFFFFFFFFFFFFFFFFFFFFFFFFFFFFFF AND PUSH4 0xF65BAEFA PUSH1 0x40 MLOAD DUP2 PUSH4 0xFFFFFFFF AND PUSH1 0xE0 SHL DUP2 MSTORE PUSH1 0x4 ADD PUSH1 0x0 PUSH1 0x40 MLOAD DUP1 DUP4 SUB DUP2 DUP7 GAS STATICCALL ISZERO DUP1 ISZERO PUSH2 0x207F JUMPI RETURNDATASIZE PUSH1 0x0 DUP1 RETURNDATACOPY RETURNDATASIZE PUSH1 0x0 REVERT JUMPDEST POP POP POP POP PUSH1 0x40 MLOAD RETURNDATASIZE PUSH1 0x0 DUP3 RETURNDATACOPY RETURNDATASIZE PUSH1 0x1F NOT PUSH1 0x1F DUP3 ADD AND DUP3 ADD DUP1 PUSH1 0x40 MSTORE POP DUP2 ADD SWAP1 PUSH2 0x20A8 SWAP2 SWAP1 PUSH2 0x4E64 JUMP JUMPDEST SWAP1 POP PUSH1 0x0 JUMPDEST DUP2 MLOAD DUP2 LT ISZERO PUSH2 0x23AA JUMPI DUP14 PUSH20 0xFFFFFFFFFFFFFFFFFFFFFFFFFFFFFFFFFFFFFFFF AND PUSH4 0x6BBE56CF DUP4 DUP4 DUP2 MLOAD DUP2 LT PUSH2 0x20E5 JUMPI PUSH2 0x20E4 PUSH2 0x4EAD JUMP JUMPDEST JUMPDEST PUSH1 0x20 MUL PUSH1 0x20 ADD ADD MLOAD PUSH1 0x40 MLOAD DUP3 PUSH4 0xFFFFFFFF AND PUSH1 0xE0 SHL DUP2 MSTORE PUSH1 0x4 ADD PUSH2 0x2109 SWAP2 SWAP1 PUSH2 0x495F JUMP JUMPDEST PUSH1 0x20 PUSH1 0x40 MLOAD DUP1 DUP4 SUB DUP2 DUP7 GAS STATICCALL ISZERO DUP1 ISZERO PUSH2 0x2126 JUMPI RETURNDATASIZE PUSH1 0x0 DUP1 RETURNDATACOPY RETURNDATASIZE PUSH1 0x0 REVERT JUMPDEST POP POP POP POP PUSH1 0x40 MLOAD RETURNDATASIZE PUSH1 0x1F NOT PUSH1 0x1F DUP3 ADD AND DUP3 ADD DUP1 PUSH1 0x40 MSTORE POP DUP2 ADD SWAP1 PUSH2 0x214A SWAP2 SWAP1 PUSH2 0x4C26 JUMP JUMPDEST SWAP6 POP DUP14 PUSH20 0xFFFFFFFFFFFFFFFFFFFFFFFFFFFFFFFFFFFFFFFF AND PUSH4 0xE2E1CA2B DUP4 DUP4 DUP2 MLOAD DUP2 LT PUSH2 0x217B JUMPI PUSH2 0x217A PUSH2 0x4EAD JUMP JUMPDEST JUMPDEST PUSH1 0x20 MUL PUSH1 0x20 ADD ADD MLOAD PUSH1 0x40 MLOAD DUP3 PUSH4 0xFFFFFFFF AND PUSH1 0xE0 SHL DUP2 MSTORE PUSH1 0x4 ADD PUSH2 0x219F SWAP2 SWAP1 PUSH2 0x495F JUMP JUMPDEST PUSH1 0x20 PUSH1 0x40 MLOAD DUP1 DUP4 SUB DUP2 DUP7 GAS STATICCALL ISZERO DUP1 ISZERO PUSH2 0x21BC JUMPI RETURNDATASIZE PUSH1 0x0 DUP1 RETURNDATACOPY RETURNDATASIZE PUSH1 0x0 REVERT JUMPDEST POP POP POP POP PUSH1 0x40 MLOAD RETURNDATASIZE PUSH1 0x1F NOT PUSH1 0x1F DUP3 ADD AND DUP3 ADD DUP1 PUSH1 0x40 MSTORE POP DUP2 ADD SWAP1 PUSH2 0x21E0 SWAP2 SWAP1 PUSH2 0x4C26 JUMP JUMPDEST SWAP5 POP DUP14 PUSH20 0xFFFFFFFFFFFFFFFFFFFFFFFFFFFFFFFFFFFFFFFF AND PUSH4 0x31664EBF DUP4 DUP4 DUP2 MLOAD DUP2 LT PUSH2 0x2211 JUMPI PUSH2 0x2210 PUSH2 0x4EAD JUMP JUMPDEST JUMPDEST PUSH1 0x20 MUL PUSH1 0x20 ADD ADD MLOAD PUSH1 0x40 MLOAD DUP3 PUSH4 0xFFFFFFFF AND PUSH1 0xE0 SHL DUP2 MSTORE PUSH1 0x4 ADD PUSH2 0x2235 SWAP2 SWAP1 PUSH2 0x495F JUMP JUMPDEST PUSH1 0x0 PUSH1 0x40 MLOAD DUP1 DUP4 SUB DUP2 DUP7 GAS STATICCALL ISZERO DUP1 ISZERO PUSH2 0x2252 JUMPI RETURNDATASIZE PUSH1 0x0 DUP1 RETURNDATACOPY RETURNDATASIZE PUSH1 0x0 REVERT JUMPDEST POP POP POP POP PUSH1 0x40 MLOAD RETURNDATASIZE PUSH1 0x0 DUP3 RETURNDATACOPY RETURNDATASIZE PUSH1 0x1F NOT PUSH1 0x1F DUP3 ADD AND DUP3 ADD DUP1 PUSH1 0x40 MSTORE POP DUP2 ADD SWAP1 PUSH2 0x227B SWAP2 SWAP1 PUSH2 0x4AE4 JUMP JUMPDEST SWAP1 SWAP2 SWAP3 SWAP4 POP SWAP1 SWAP2 SWAP3 POP SWAP1 POP POP DUP1 SWAP5 POP POP DUP13 PUSH20 0xFFFFFFFFFFFFFFFFFFFFFFFFFFFFFFFFFFFFFFFF AND PUSH4 0xB3596F07 DUP4 DUP4 DUP2 MLOAD DUP2 LT PUSH2 0x22BA JUMPI PUSH2 0x22B9 PUSH2 0x4EAD JUMP JUMPDEST JUMPDEST PUSH1 0x20 MUL PUSH1 0x20 ADD ADD MLOAD PUSH1 0x40 MLOAD DUP3 PUSH4 0xFFFFFFFF AND PUSH1 0xE0 SHL DUP2 MSTORE PUSH1 0x4 ADD PUSH2 0x22DE SWAP2 SWAP1 PUSH2 0x495F JUMP JUMPDEST PUSH1 0x20 PUSH1 0x40 MLOAD DUP1 DUP4 SUB DUP2 DUP7 GAS STATICCALL ISZERO DUP1 ISZERO PUSH2 0x22FB JUMPI RETURNDATASIZE PUSH1 0x0 DUP1 RETURNDATACOPY RETURNDATASIZE PUSH1 0x0 REVERT JUMPDEST POP POP POP POP PUSH1 0x40 MLOAD RETURNDATASIZE PUSH1 0x1F NOT PUSH1 0x1F DUP3 ADD AND DUP3 ADD DUP1 PUSH1 0x40 MSTORE POP DUP2 ADD SWAP1 PUSH2 0x231F SWAP2 SWAP1 PUSH2 0x4C26 JUMP JUMPDEST SWAP3 POP PUSH4 0x5F5E100 DUP4 DUP8 PUSH2 0x2332 SWAP2 SWAP1 PUSH2 0x4CB6 JUMP JUMPDEST PUSH2 0x233C SWAP2 SWAP1 PUSH2 0x4D27 JUMP JUMPDEST DUP10 PUSH2 0x2347 SWAP2 SWAP1 PUSH2 0x4D58 JUMP JUMPDEST SWAP9 POP PUSH4 0x5F5E100 DUP4 DUP7 PUSH2 0x235A SWAP2 SWAP1 PUSH2 0x4CB6 JUMP JUMPDEST PUSH2 0x2364 SWAP2 SWAP1 PUSH2 0x4D27 JUMP JUMPDEST DUP9 PUSH2 0x236F SWAP2 SWAP1 PUSH2 0x4D58 JUMP JUMPDEST SWAP8 POP PUSH4 0x5F5E100 DUP4 DUP6 PUSH2 0x2382 SWAP2 SWAP1 PUSH2 0x4CB6 JUMP JUMPDEST PUSH2 0x238C SWAP2 SWAP1 PUSH2 0x4D27 JUMP JUMPDEST DUP8 PUSH2 0x2397 SWAP2 SWAP1 PUSH2 0x4D58 JUMP JUMPDEST SWAP7 POP DUP1 PUSH2 0x23A3 SWAP1 PUSH2 0x4F5F JUMP JUMPDEST SWAP1 POP PUSH2 0x20AD JUMP JUMPDEST POP DUP8 DUP8 DUP8 SWAP11 POP SWAP11 POP SWAP11 POP POP POP POP POP POP POP POP POP SWAP3 POP SWAP3 POP SWAP3 JUMP JUMPDEST PUSH1 0x0 DUP1 PUSH1 0x0 DUP5 PUSH20 0xFFFFFFFFFFFFFFFFFFFFFFFFFFFFFFFFFFFFFFFF AND PUSH4 0x6F307DC3 PUSH1 0x40 MLOAD DUP2 PUSH4 0xFFFFFFFF AND PUSH1 0xE0 SHL DUP2 MSTORE PUSH1 0x4 ADD PUSH1 0x20 PUSH1 0x40 MLOAD DUP1 DUP4 SUB DUP2 DUP7 GAS STATICCALL ISZERO DUP1 ISZERO PUSH2 0x2413 JUMPI RETURNDATASIZE PUSH1 0x0 DUP1 RETURNDATACOPY RETURNDATASIZE PUSH1 0x0 REVERT JUMPDEST POP POP POP POP PUSH1 0x40 MLOAD RETURNDATASIZE PUSH1 0x1F NOT PUSH1 0x1F DUP3 ADD AND DUP3 ADD DUP1 PUSH1 0x40 MSTORE POP DUP2 ADD SWAP1 PUSH2 0x2437 SWAP2 SWAP1 PUSH2 0x5341 JUMP JUMPDEST SWAP1 POP PUSH1 0x0 DUP1 DUP7 PUSH20 0xFFFFFFFFFFFFFFFFFFFFFFFFFFFFFFFFFFFFFFFF AND PUSH4 0x18160DDD PUSH1 0x40 MLOAD DUP2 PUSH4 0xFFFFFFFF AND PUSH1 0xE0 SHL DUP2 MSTORE PUSH1 0x4 ADD PUSH1 0x20 PUSH1 0x40 MLOAD DUP1 DUP4 SUB DUP2 DUP7 GAS STATICCALL ISZERO DUP1 ISZERO PUSH2 0x2487 JUMPI RETURNDATASIZE PUSH1 0x0 DUP1 RETURNDATACOPY RETURNDATASIZE PUSH1 0x0 REVERT JUMPDEST POP POP POP POP PUSH1 0x40 MLOAD RETURNDATASIZE PUSH1 0x1F NOT PUSH1 0x1F DUP3 ADD AND DUP3 ADD DUP1 PUSH1 0x40 MSTORE POP DUP2 ADD SWAP1 PUSH2 0x24AB SWAP2 SWAP1 PUSH2 0x4C26 JUMP JUMPDEST GT PUSH2 0x24B7 JUMPI PUSH1 0x0 PUSH2 0x25B3 JUMP JUMPDEST DUP6 PUSH20 0xFFFFFFFFFFFFFFFFFFFFFFFFFFFFFFFFFFFFFFFF AND PUSH4 0x18160DDD PUSH1 0x40 MLOAD DUP2 PUSH4 0xFFFFFFFF AND PUSH1 0xE0 SHL DUP2 MSTORE PUSH1 0x4 ADD PUSH1 0x20 PUSH1 0x40 MLOAD DUP1 DUP4 SUB DUP2 DUP7 GAS STATICCALL ISZERO DUP1 ISZERO PUSH2 0x2502 JUMPI RETURNDATASIZE PUSH1 0x0 DUP1 RETURNDATACOPY RETURNDATASIZE PUSH1 0x0 REVERT JUMPDEST POP POP POP POP PUSH1 0x40 MLOAD RETURNDATASIZE PUSH1 0x1F NOT PUSH1 0x1F DUP3 ADD AND DUP3 ADD DUP1 PUSH1 0x40 MSTORE POP DUP2 ADD SWAP1 PUSH2 0x2526 SWAP2 SWAP1 PUSH2 0x4C26 JUMP JUMPDEST PUSH8 0xDE0B6B3A7640000 DUP8 PUSH20 0xFFFFFFFFFFFFFFFFFFFFFFFFFFFFFFFFFFFFFFFF AND PUSH4 0xFC7B9C18 PUSH1 0x40 MLOAD DUP2 PUSH4 0xFFFFFFFF AND PUSH1 0xE0 SHL DUP2 MSTORE PUSH1 0x4 ADD PUSH1 0x20 PUSH1 0x40 MLOAD DUP1 DUP4 SUB DUP2 DUP7 GAS STATICCALL ISZERO DUP1 ISZERO PUSH2 0x257A JUMPI RETURNDATASIZE PUSH1 0x0 DUP1 RETURNDATACOPY RETURNDATASIZE PUSH1 0x0 REVERT JUMPDEST POP POP POP POP PUSH1 0x40 MLOAD RETURNDATASIZE PUSH1 0x1F NOT PUSH1 0x1F DUP3 ADD AND DUP3 ADD DUP1 PUSH1 0x40 MSTORE POP DUP2 ADD SWAP1 PUSH2 0x259E SWAP2 SWAP1 PUSH2 0x4C26 JUMP JUMPDEST PUSH2 0x25A8 SWAP2 SWAP1 PUSH2 0x4CB6 JUMP JUMPDEST PUSH2 0x25B2 SWAP2 SWAP1 PUSH2 0x4D27 JUMP JUMPDEST JUMPDEST SWAP1 POP PUSH1 0x0 DUP6 PUSH20 0xFFFFFFFFFFFFFFFFFFFFFFFFFFFFFFFFFFFFFFFF AND PUSH4 0xB3596F07 DUP5 PUSH1 0x40 MLOAD DUP3 PUSH4 0xFFFFFFFF AND PUSH1 0xE0 SHL DUP2 MSTORE PUSH1 0x4 ADD PUSH2 0x25F0 SWAP2 SWAP1 PUSH2 0x495F JUMP JUMPDEST PUSH1 0x20 PUSH1 0x40 MLOAD DUP1 DUP4 SUB DUP2 DUP7 GAS STATICCALL ISZERO DUP1 ISZERO PUSH2 0x260D JUMPI RETURNDATASIZE PUSH1 0x0 DUP1 RETURNDATACOPY RETURNDATASIZE PUSH1 0x0 REVERT JUMPDEST POP POP POP POP PUSH1 0x40 MLOAD RETURNDATASIZE PUSH1 0x1F NOT PUSH1 0x1F DUP3 ADD AND DUP3 ADD DUP1 PUSH1 0x40 MSTORE POP DUP2 ADD SWAP1 PUSH2 0x2631 SWAP2 SWAP1 PUSH2 0x4C26 JUMP JUMPDEST SWAP1 POP PUSH1 0x0 PUSH4 0x5F5E100 DUP3 DUP5 PUSH2 0x2646 SWAP2 SWAP1 PUSH2 0x4CB6 JUMP JUMPDEST PUSH2 0x2650 SWAP2 SWAP1 PUSH2 0x4D27 JUMP JUMPDEST SWAP1 POP DUP3 DUP2 SWAP6 POP SWAP6 POP POP POP POP POP SWAP3 POP SWAP3 SWAP1 POP JUMP JUMPDEST PUSH1 0x60 PUSH1 0x0 DUP5 PUSH20 0xFFFFFFFFFFFFFFFFFFFFFFFFFFFFFFFFFFFFFFFF AND PUSH4 0xF65BAEFA PUSH1 0x40 MLOAD DUP2 PUSH4 0xFFFFFFFF AND PUSH1 0xE0 SHL DUP2 MSTORE PUSH1 0x4 ADD PUSH1 0x0 PUSH1 0x40 MLOAD DUP1 DUP4 SUB DUP2 DUP7 GAS STATICCALL ISZERO DUP1 ISZERO PUSH2 0x26B2 JUMPI RETURNDATASIZE PUSH1 0x0 DUP1 RETURNDATACOPY RETURNDATASIZE PUSH1 0x0 REVERT JUMPDEST POP POP POP POP PUSH1 0x40 MLOAD RETURNDATASIZE PUSH1 0x0 DUP3 RETURNDATACOPY RETURNDATASIZE PUSH1 0x1F NOT PUSH1 0x1F DUP3 ADD AND DUP3 ADD DUP1 PUSH1 0x40 MSTORE POP DUP2 ADD SWAP1 PUSH2 0x26DB SWAP2 SWAP1 PUSH2 0x4E64 JUMP JUMPDEST SWAP1 POP DUP1 MLOAD PUSH8 0xFFFFFFFFFFFFFFFF DUP2 GT ISZERO PUSH2 0x26F8 JUMPI PUSH2 0x26F7 PUSH2 0x497A JUMP JUMPDEST JUMPDEST PUSH1 0x40 MLOAD SWAP1 DUP1 DUP3 MSTORE DUP1 PUSH1 0x20 MUL PUSH1 0x20 ADD DUP3 ADD PUSH1 0x40 MSTORE DUP1 ISZERO PUSH2 0x2731 JUMPI DUP2 PUSH1 0x20 ADD JUMPDEST PUSH2 0x271E PUSH2 0x387C JUMP JUMPDEST DUP2 MSTORE PUSH1 0x20 ADD SWAP1 PUSH1 0x1 SWAP1 SUB SWAP1 DUP2 PUSH2 0x2716 JUMPI SWAP1 POP JUMPDEST POP SWAP2 POP PUSH1 0x0 DUP6 PUSH20 0xFFFFFFFFFFFFFFFFFFFFFFFFFFFFFFFFFFFFFFFF AND PUSH4 0x67E4AC2C PUSH1 0x40 MLOAD DUP2 PUSH4 0xFFFFFFFF AND PUSH1 0xE0 SHL DUP2 MSTORE PUSH1 0x4 ADD PUSH1 0x0 PUSH1 0x40 MLOAD DUP1 DUP4 SUB DUP2 DUP7 GAS STATICCALL ISZERO DUP1 ISZERO PUSH2 0x2781 JUMPI RETURNDATASIZE PUSH1 0x0 DUP1 RETURNDATACOPY RETURNDATASIZE PUSH1 0x0 REVERT JUMPDEST POP POP POP POP PUSH1 0x40 MLOAD RETURNDATASIZE PUSH1 0x0 DUP3 RETURNDATACOPY RETURNDATASIZE PUSH1 0x1F NOT PUSH1 0x1F DUP3 ADD AND DUP3 ADD DUP1 PUSH1 0x40 MSTORE POP DUP2 ADD SWAP1 PUSH2 0x27AA SWAP2 SWAP1 PUSH2 0x518A JUMP JUMPDEST SWAP1 POP PUSH1 0x0 JUMPDEST DUP3 MLOAD DUP2 LT ISZERO PUSH2 0x2BD7 JUMPI PUSH1 0x0 DUP3 DUP3 DUP2 MLOAD DUP2 LT PUSH2 0x27CD JUMPI PUSH2 0x27CC PUSH2 0x4EAD JUMP JUMPDEST JUMPDEST PUSH1 0x20 MUL PUSH1 0x20 ADD ADD MLOAD SWAP1 POP PUSH1 0x0 DUP2 PUSH1 0x60 ADD MLOAD PUSH20 0xFFFFFFFFFFFFFFFFFFFFFFFFFFFFFFFFFFFFFFFF AND PUSH4 0x1DA24F3E DUP9 PUSH1 0x40 MLOAD DUP3 PUSH4 0xFFFFFFFF AND PUSH1 0xE0 SHL DUP2 MSTORE PUSH1 0x4 ADD PUSH2 0x2816 SWAP2 SWAP1 PUSH2 0x495F JUMP JUMPDEST PUSH1 0x20 PUSH1 0x40 MLOAD DUP1 DUP4 SUB DUP2 DUP7 GAS STATICCALL ISZERO DUP1 ISZERO PUSH2 0x2833 JUMPI RETURNDATASIZE PUSH1 0x0 DUP1 RETURNDATACOPY RETURNDATASIZE PUSH1 0x0 REVERT JUMPDEST POP POP POP POP PUSH1 0x40 MLOAD RETURNDATASIZE PUSH1 0x1F NOT PUSH1 0x1F DUP3 ADD AND DUP3 ADD DUP1 PUSH1 0x40 MSTORE POP DUP2 ADD SWAP1 PUSH2 0x2857 SWAP2 SWAP1 PUSH2 0x4C26 JUMP JUMPDEST SWAP1 POP PUSH1 0x0 DUP2 SUB PUSH2 0x2868 JUMPI POP POP PUSH2 0x2BC6 JUMP JUMPDEST PUSH1 0x0 DUP9 PUSH20 0xFFFFFFFFFFFFFFFFFFFFFFFFFFFFFFFFFFFFFFFF AND PUSH4 0xB3596F07 DUP8 DUP7 DUP2 MLOAD DUP2 LT PUSH2 0x2899 JUMPI PUSH2 0x2898 PUSH2 0x4EAD JUMP JUMPDEST JUMPDEST PUSH1 0x20 MUL PUSH1 0x20 ADD ADD MLOAD PUSH1 0x40 MLOAD DUP3 PUSH4 0xFFFFFFFF AND PUSH1 0xE0 SHL DUP2 MSTORE PUSH1 0x4 ADD PUSH2 0x28BD SWAP2 SWAP1 PUSH2 0x495F JUMP JUMPDEST PUSH1 0x20 PUSH1 0x40 MLOAD DUP1 DUP4 SUB DUP2 DUP7 GAS STATICCALL ISZERO DUP1 ISZERO PUSH2 0x28DA JUMPI RETURNDATASIZE PUSH1 0x0 DUP1 RETURNDATACOPY RETURNDATASIZE PUSH1 0x0 REVERT JUMPDEST POP POP POP POP PUSH1 0x40 MLOAD RETURNDATASIZE PUSH1 0x1F NOT PUSH1 0x1F DUP3 ADD AND DUP3 ADD DUP1 PUSH1 0x40 MSTORE POP DUP2 ADD SWAP1 PUSH2 0x28FE SWAP2 SWAP1 PUSH2 0x4C26 JUMP JUMPDEST SWAP1 POP PUSH1 0x0 PUSH2 0x2925 DUP8 DUP7 DUP2 MLOAD DUP2 LT PUSH2 0x2918 JUMPI PUSH2 0x2917 PUSH2 0x4EAD JUMP JUMPDEST JUMPDEST PUSH1 0x20 MUL PUSH1 0x20 ADD ADD MLOAD PUSH2 0x5B3 JUMP JUMPDEST SWAP1 POP DUP7 DUP6 DUP2 MLOAD DUP2 LT PUSH2 0x293A JUMPI PUSH2 0x2939 PUSH2 0x4EAD JUMP JUMPDEST JUMPDEST PUSH1 0x20 MUL PUSH1 0x20 ADD ADD MLOAD DUP9 DUP7 DUP2 MLOAD DUP2 LT PUSH2 0x2955 JUMPI PUSH2 0x2954 PUSH2 0x4EAD JUMP JUMPDEST JUMPDEST PUSH1 0x20 MUL PUSH1 0x20 ADD ADD MLOAD PUSH1 0x0 ADD SWAP1 PUSH20 0xFFFFFFFFFFFFFFFFFFFFFFFFFFFFFFFFFFFFFFFF AND SWAP1 DUP2 PUSH20 0xFFFFFFFFFFFFFFFFFFFFFFFFFFFFFFFFFFFFFFFF AND DUP2 MSTORE POP POP PUSH4 0x5F5E100 DUP3 DUP5 PUSH2 0x29A4 SWAP2 SWAP1 PUSH2 0x4CB6 JUMP JUMPDEST PUSH2 0x29AE SWAP2 SWAP1 PUSH2 0x4D27 JUMP JUMPDEST DUP9 DUP7 DUP2 MLOAD DUP2 LT PUSH2 0x29C1 JUMPI PUSH2 0x29C0 PUSH2 0x4EAD JUMP JUMPDEST JUMPDEST PUSH1 0x20 MUL PUSH1 0x20 ADD ADD MLOAD PUSH1 0x20 ADD DUP2 DUP2 MSTORE POP POP DUP1 DUP9 DUP7 DUP2 MLOAD DUP2 LT PUSH2 0x29E5 JUMPI PUSH2 0x29E4 PUSH2 0x4EAD JUMP JUMPDEST JUMPDEST PUSH1 0x20 MUL PUSH1 0x20 ADD ADD MLOAD PUSH1 0x40 ADD DUP2 DUP2 MSTORE POP POP DUP7 DUP6 DUP2 MLOAD DUP2 LT PUSH2 0x2A08 JUMPI PUSH2 0x2A07 PUSH2 0x4EAD JUMP JUMPDEST JUMPDEST PUSH1 0x20 MUL PUSH1 0x20 ADD ADD MLOAD PUSH20 0xFFFFFFFFFFFFFFFFFFFFFFFFFFFFFFFFFFFFFFFF AND PUSH4 0x70A08231 DUP11 PUSH1 0x40 MLOAD DUP3 PUSH4 0xFFFFFFFF AND PUSH1 0xE0 SHL DUP2 MSTORE PUSH1 0x4 ADD PUSH2 0x2A48 SWAP2 SWAP1 PUSH2 0x495F JUMP JUMPDEST PUSH1 0x20 PUSH1 0x40 MLOAD DUP1 DUP4 SUB DUP2 DUP7 GAS STATICCALL ISZERO DUP1 ISZERO PUSH2 0x2A65 JUMPI RETURNDATASIZE PUSH1 0x0 DUP1 RETURNDATACOPY RETURNDATASIZE PUSH1 0x0 REVERT JUMPDEST POP POP POP POP PUSH1 0x40 MLOAD RETURNDATASIZE PUSH1 0x1F NOT PUSH1 0x1F DUP3 ADD AND DUP3 ADD DUP1 PUSH1 0x40 MSTORE POP DUP2 ADD SWAP1 PUSH2 0x2A89 SWAP2 SWAP1 PUSH2 0x4C26 JUMP JUMPDEST DUP9 DUP7 DUP2 MLOAD DUP2 LT PUSH2 0x2A9C JUMPI PUSH2 0x2A9B PUSH2 0x4EAD JUMP JUMPDEST JUMPDEST PUSH1 0x20 MUL PUSH1 0x20 ADD ADD MLOAD PUSH1 0x60 ADD DUP2 DUP2 MSTORE POP POP PUSH2 0x16D DUP2 PUSH4 0x5F5E100 DUP5 DUP7 PUSH2 0x2AC1 SWAP2 SWAP1 PUSH2 0x4CB6 JUMP JUMPDEST PUSH2 0x2ACB SWAP2 SWAP1 PUSH2 0x4D27 JUMP JUMPDEST PUSH2 0x2AD5 SWAP2 SWAP1 PUSH2 0x4CB6 JUMP JUMPDEST PUSH2 0x2ADF SWAP2 SWAP1 PUSH2 0x4D27 JUMP JUMPDEST DUP9 DUP7 DUP2 MLOAD DUP2 LT PUSH2 0x2AF2 JUMPI PUSH2 0x2AF1 PUSH2 0x4EAD JUMP JUMPDEST JUMPDEST PUSH1 0x20 MUL PUSH1 0x20 ADD ADD MLOAD PUSH1 0x80 ADD DUP2 DUP2 MSTORE POP POP DUP11 PUSH20 0xFFFFFFFFFFFFFFFFFFFFFFFFFFFFFFFFFFFFFFFF AND PUSH4 0x5CFBDF7F DUP9 DUP8 DUP2 MLOAD DUP2 LT PUSH2 0x2B31 JUMPI PUSH2 0x2B30 PUSH2 0x4EAD JUMP JUMPDEST JUMPDEST PUSH1 0x20 MUL PUSH1 0x20 ADD ADD MLOAD DUP12 PUSH1 0x40 MLOAD DUP4 PUSH4 0xFFFFFFFF AND PUSH1 0xE0 SHL DUP2 MSTORE PUSH1 0x4 ADD PUSH2 0x2B57 SWAP3 SWAP2 SWAP1 PUSH2 0x51D3 JUMP JUMPDEST PUSH1 0x20 PUSH1 0x40 MLOAD DUP1 DUP4 SUB DUP2 DUP7 GAS STATICCALL ISZERO DUP1 ISZERO PUSH2 0x2B74 JUMPI RETURNDATASIZE PUSH1 0x0 DUP1 RETURNDATACOPY RETURNDATASIZE PUSH1 0x0 REVERT JUMPDEST POP POP POP POP PUSH1 0x40 MLOAD RETURNDATASIZE PUSH1 0x1F NOT PUSH1 0x1F DUP3 ADD AND DUP3 ADD DUP1 PUSH1 0x40 MSTORE POP DUP2 ADD SWAP1 PUSH2 0x2B98 SWAP2 SWAP1 PUSH2 0x536E JUMP JUMPDEST DUP9 DUP7 DUP2 MLOAD DUP2 LT PUSH2 0x2BAB JUMPI PUSH2 0x2BAA PUSH2 0x4EAD JUMP JUMPDEST JUMPDEST PUSH1 0x20 MUL PUSH1 0x20 ADD ADD MLOAD PUSH1 0xA0 ADD SWAP1 ISZERO ISZERO SWAP1 DUP2 ISZERO ISZERO DUP2 MSTORE POP POP POP POP POP POP JUMPDEST DUP1 PUSH2 0x2BD0 SWAP1 PUSH2 0x4F5F JUMP JUMPDEST SWAP1 POP PUSH2 0x27AF JUMP JUMPDEST POP POP POP SWAP4 SWAP3 POP POP POP JUMP JUMPDEST PUSH1 0x60 PUSH1 0x0 DUP4 PUSH20 0xFFFFFFFFFFFFFFFFFFFFFFFFFFFFFFFFFFFFFFFF AND PUSH4 0xF65BAEFA PUSH1 0x40 MLOAD DUP2 PUSH4 0xFFFFFFFF AND PUSH1 0xE0 SHL DUP2 MSTORE PUSH1 0x4 ADD PUSH1 0x0 PUSH1 0x40 MLOAD DUP1 DUP4 SUB DUP2 DUP7 GAS STATICCALL ISZERO DUP1 ISZERO PUSH2 0x2C30 JUMPI RETURNDATASIZE PUSH1 0x0 DUP1 RETURNDATACOPY RETURNDATASIZE PUSH1 0x0 REVERT JUMPDEST POP POP POP POP PUSH1 0x40 MLOAD RETURNDATASIZE PUSH1 0x0 DUP3 RETURNDATACOPY RETURNDATASIZE PUSH1 0x1F NOT PUSH1 0x1F DUP3 ADD AND DUP3 ADD DUP1 PUSH1 0x40 MSTORE POP DUP2 ADD SWAP1 PUSH2 0x2C59 SWAP2 SWAP1 PUSH2 0x4E64 JUMP JUMPDEST SWAP1 POP DUP1 MLOAD PUSH8 0xFFFFFFFFFFFFFFFF DUP2 GT ISZERO PUSH2 0x2C76 JUMPI PUSH2 0x2C75 PUSH2 0x497A JUMP JUMPDEST JUMPDEST PUSH1 0x40 MLOAD SWAP1 DUP1 DUP3 MSTORE DUP1 PUSH1 0x20 MUL PUSH1 0x20 ADD DUP3 ADD PUSH1 0x40 MSTORE DUP1 ISZERO PUSH2 0x2CAF JUMPI DUP2 PUSH1 0x20 ADD JUMPDEST PUSH2 0x2C9C PUSH2 0x38CA JUMP JUMPDEST DUP2 MSTORE PUSH1 0x20 ADD SWAP1 PUSH1 0x1 SWAP1 SUB SWAP1 DUP2 PUSH2 0x2C94 JUMPI SWAP1 POP JUMPDEST POP SWAP2 POP PUSH1 0x0 JUMPDEST DUP2 MLOAD DUP2 LT ISZERO PUSH2 0x2F26 JUMPI PUSH1 0x0 DUP1 PUSH1 0x0 DUP8 PUSH20 0xFFFFFFFFFFFFFFFFFFFFFFFFFFFFFFFFFFFFFFFF AND PUSH4 0x31664EBF DUP7 DUP7 DUP2 MLOAD DUP2 LT PUSH2 0x2CF2 JUMPI PUSH2 0x2CF1 PUSH2 0x4EAD JUMP JUMPDEST JUMPDEST PUSH1 0x20 MUL PUSH1 0x20 ADD ADD MLOAD PUSH1 0x40 MLOAD DUP3 PUSH4 0xFFFFFFFF AND PUSH1 0xE0 SHL DUP2 MSTORE PUSH1 0x4 ADD PUSH2 0x2D16 SWAP2 SWAP1 PUSH2 0x495F JUMP JUMPDEST PUSH1 0x0 PUSH1 0x40 MLOAD DUP1 DUP4 SUB DUP2 DUP7 GAS STATICCALL ISZERO DUP1 ISZERO PUSH2 0x2D33 JUMPI RETURNDATASIZE PUSH1 0x0 DUP1 RETURNDATACOPY RETURNDATASIZE PUSH1 0x0 REVERT JUMPDEST POP POP POP POP PUSH1 0x40 MLOAD RETURNDATASIZE PUSH1 0x0 DUP3 RETURNDATACOPY RETURNDATASIZE PUSH1 0x1F NOT PUSH1 0x1F DUP3 ADD AND DUP3 ADD DUP1 PUSH1 0x40 MSTORE POP DUP2 ADD SWAP1 PUSH2 0x2D5C SWAP2 SWAP1 PUSH2 0x4AE4 JUMP JUMPDEST POP SWAP4 POP SWAP4 POP POP SWAP3 POP PUSH1 0x0 DUP8 PUSH20 0xFFFFFFFFFFFFFFFFFFFFFFFFFFFFFFFFFFFFFFFF AND PUSH4 0xB3596F07 DUP8 DUP8 DUP2 MLOAD DUP2 LT PUSH2 0x2D95 JUMPI PUSH2 0x2D94 PUSH2 0x4EAD JUMP JUMPDEST JUMPDEST PUSH1 0x20 MUL PUSH1 0x20 ADD ADD MLOAD PUSH1 0x40 MLOAD DUP3 PUSH4 0xFFFFFFFF AND PUSH1 0xE0 SHL DUP2 MSTORE PUSH1 0x4 ADD PUSH2 0x2DB9 SWAP2 SWAP1 PUSH2 0x495F JUMP JUMPDEST PUSH1 0x20 PUSH1 0x40 MLOAD DUP1 DUP4 SUB DUP2 DUP7 GAS STATICCALL ISZERO DUP1 ISZERO PUSH2 0x2DD6 JUMPI RETURNDATASIZE PUSH1 0x0 DUP1 RETURNDATACOPY RETURNDATASIZE PUSH1 0x0 REVERT JUMPDEST POP POP POP POP PUSH1 0x40 MLOAD RETURNDATASIZE PUSH1 0x1F NOT PUSH1 0x1F DUP3 ADD AND DUP3 ADD DUP1 PUSH1 0x40 MSTORE POP DUP2 ADD SWAP1 PUSH2 0x2DFA SWAP2 SWAP1 PUSH2 0x4C26 JUMP JUMPDEST SWAP1 POP DUP6 DUP6 DUP2 MLOAD DUP2 LT PUSH2 0x2E0F JUMPI PUSH2 0x2E0E PUSH2 0x4EAD JUMP JUMPDEST JUMPDEST PUSH1 0x20 MUL PUSH1 0x20 ADD ADD MLOAD DUP8 DUP7 DUP2 MLOAD DUP2 LT PUSH2 0x2E2A JUMPI PUSH2 0x2E29 PUSH2 0x4EAD JUMP JUMPDEST JUMPDEST PUSH1 0x20 MUL PUSH1 0x20 ADD ADD MLOAD PUSH1 0x0 ADD SWAP1 PUSH20 0xFFFFFFFFFFFFFFFFFFFFFFFFFFFFFFFFFFFFFFFF AND SWAP1 DUP2 PUSH20 0xFFFFFFFFFFFFFFFFFFFFFFFFFFFFFFFFFFFFFFFF AND DUP2 MSTORE POP POP DUP2 DUP8 DUP7 DUP2 MLOAD DUP2 LT PUSH2 0x2E7C JUMPI PUSH2 0x2E7B PUSH2 0x4EAD JUMP JUMPDEST JUMPDEST PUSH1 0x20 MUL PUSH1 0x20 ADD ADD MLOAD PUSH1 0x20 ADD DUP2 DUP2 MSTORE POP POP PUSH4 0x5F5E100 DUP2 DUP4 PUSH2 0x2E9D SWAP2 SWAP1 PUSH2 0x4CB6 JUMP JUMPDEST PUSH2 0x2EA7 SWAP2 SWAP1 PUSH2 0x4D27 JUMP JUMPDEST DUP8 DUP7 DUP2 MLOAD DUP2 LT PUSH2 0x2EBA JUMPI PUSH2 0x2EB9 PUSH2 0x4EAD JUMP JUMPDEST JUMPDEST PUSH1 0x20 MUL PUSH1 0x20 ADD ADD MLOAD PUSH1 0x40 ADD DUP2 DUP2 MSTORE POP POP DUP3 DUP8 DUP7 DUP2 MLOAD DUP2 LT PUSH2 0x2EDE JUMPI PUSH2 0x2EDD PUSH2 0x4EAD JUMP JUMPDEST JUMPDEST PUSH1 0x20 MUL PUSH1 0x20 ADD ADD MLOAD PUSH1 0x60 ADD DUP2 DUP2 MSTORE POP POP DUP4 DUP8 DUP7 DUP2 MLOAD DUP2 LT PUSH2 0x2F02 JUMPI PUSH2 0x2F01 PUSH2 0x4EAD JUMP JUMPDEST JUMPDEST PUSH1 0x20 MUL PUSH1 0x20 ADD ADD MLOAD PUSH1 0x80 ADD DUP2 SWAP1 MSTORE POP POP POP POP POP DUP1 PUSH2 0x2F1F SWAP1 PUSH2 0x4F5F JUMP JUMPDEST SWAP1 POP PUSH2 0x2CB5 JUMP JUMPDEST POP POP SWAP3 SWAP2 POP POP JUMP JUMPDEST PUSH1 0x60 PUSH1 0x0 DUP6 PUSH20 0xFFFFFFFFFFFFFFFFFFFFFFFFFFFFFFFFFFFFFFFF AND PUSH4 0xF65BAEFA PUSH1 0x40 MLOAD DUP2 PUSH4 0xFFFFFFFF AND PUSH1 0xE0 SHL DUP2 MSTORE PUSH1 0x4 ADD PUSH1 0x0 PUSH1 0x40 MLOAD DUP1 DUP4 SUB DUP2 DUP7 GAS STATICCALL ISZERO DUP1 ISZERO PUSH2 0x2F7D JUMPI RETURNDATASIZE PUSH1 0x0 DUP1 RETURNDATACOPY RETURNDATASIZE PUSH1 0x0 REVERT JUMPDEST POP POP POP POP PUSH1 0x40 MLOAD RETURNDATASIZE PUSH1 0x0 DUP3 RETURNDATACOPY RETURNDATASIZE PUSH1 0x1F NOT PUSH1 0x1F DUP3 ADD AND DUP3 ADD DUP1 PUSH1 0x40 MSTORE POP DUP2 ADD SWAP1 PUSH2 0x2FA6 SWAP2 SWAP1 PUSH2 0x4E64 JUMP JUMPDEST SWAP1 POP DUP1 MLOAD PUSH8 0xFFFFFFFFFFFFFFFF DUP2 GT ISZERO PUSH2 0x2FC3 JUMPI PUSH2 0x2FC2 PUSH2 0x497A JUMP JUMPDEST JUMPDEST PUSH1 0x40 MLOAD SWAP1 DUP1 DUP3 MSTORE DUP1 PUSH1 0x20 MUL PUSH1 0x20 ADD DUP3 ADD PUSH1 0x40 MSTORE DUP1 ISZERO PUSH2 0x2FFC JUMPI DUP2 PUSH1 0x20 ADD JUMPDEST PUSH2 0x2FE9 PUSH2 0x390F JUMP JUMPDEST DUP2 MSTORE PUSH1 0x20 ADD SWAP1 PUSH1 0x1 SWAP1 SUB SWAP1 DUP2 PUSH2 0x2FE1 JUMPI SWAP1 POP JUMPDEST POP SWAP2 POP PUSH1 0x0 DUP7 PUSH20 0xFFFFFFFFFFFFFFFFFFFFFFFFFFFFFFFFFFFFFFFF AND PUSH4 0x67E4AC2C PUSH1 0x40 MLOAD DUP2 PUSH4 0xFFFFFFFF AND PUSH1 0xE0 SHL DUP2 MSTORE PUSH1 0x4 ADD PUSH1 0x0 PUSH1 0x40 MLOAD DUP1 DUP4 SUB DUP2 DUP7 GAS STATICCALL ISZERO DUP1 ISZERO PUSH2 0x304C JUMPI RETURNDATASIZE PUSH1 0x0 DUP1 RETURNDATACOPY RETURNDATASIZE PUSH1 0x0 REVERT JUMPDEST POP POP POP POP PUSH1 0x40 MLOAD RETURNDATASIZE PUSH1 0x0 DUP3 RETURNDATACOPY RETURNDATASIZE PUSH1 0x1F NOT PUSH1 0x1F DUP3 ADD AND DUP3 ADD DUP1 PUSH1 0x40 MSTORE POP DUP2 ADD SWAP1 PUSH2 0x3075 SWAP2 SWAP1 PUSH2 0x518A JUMP JUMPDEST SWAP1 POP PUSH1 0x0 JUMPDEST DUP3 MLOAD DUP2 LT ISZERO PUSH2 0x3414 JUMPI PUSH1 0x0 DUP3 DUP3 DUP2 MLOAD DUP2 LT PUSH2 0x3098 JUMPI PUSH2 0x3097 PUSH2 0x4EAD JUMP JUMPDEST JUMPDEST PUSH1 0x20 MUL PUSH1 0x20 ADD ADD MLOAD SWAP1 POP PUSH1 0x0 DUP8 PUSH20 0xFFFFFFFFFFFFFFFFFFFFFFFFFFFFFFFFFFFFFFFF AND PUSH4 0x7609D7F6 DUP7 DUP6 DUP2 MLOAD DUP2 LT PUSH2 0x30D3 JUMPI PUSH2 0x30D2 PUSH2 0x4EAD JUMP JUMPDEST JUMPDEST PUSH1 0x20 MUL PUSH1 0x20 ADD ADD MLOAD PUSH1 0x40 MLOAD DUP3 PUSH4 0xFFFFFFFF AND PUSH1 0xE0 SHL DUP2 MSTORE PUSH1 0x4 ADD PUSH2 0x30F7 SWAP2 SWAP1 PUSH2 0x495F JUMP JUMPDEST PUSH1 0xA0 PUSH1 0x40 MLOAD DUP1 DUP4 SUB DUP2 DUP7 GAS STATICCALL ISZERO DUP1 ISZERO PUSH2 0x3114 JUMPI RETURNDATASIZE PUSH1 0x0 DUP1 RETURNDATACOPY RETURNDATASIZE PUSH1 0x0 REVERT JUMPDEST POP POP POP POP PUSH1 0x40 MLOAD RETURNDATASIZE PUSH1 0x1F NOT PUSH1 0x1F DUP3 ADD AND DUP3 ADD DUP1 PUSH1 0x40 MSTORE POP DUP2 ADD SWAP1 PUSH2 0x3138 SWAP2 SWAP1 PUSH2 0x5427 JUMP JUMPDEST SWAP1 POP PUSH1 0x0 DUP3 PUSH1 0x60 ADD MLOAD PUSH20 0xFFFFFFFFFFFFFFFFFFFFFFFFFFFFFFFFFFFFFFFF AND PUSH4 0x1DA24F3E DUP10 PUSH1 0x40 MLOAD DUP3 PUSH4 0xFFFFFFFF AND PUSH1 0xE0 SHL DUP2 MSTORE PUSH1 0x4 ADD PUSH2 0x3179 SWAP2 SWAP1 PUSH2 0x495F JUMP JUMPDEST PUSH1 0x20 PUSH1 0x40 MLOAD DUP1 DUP4 SUB DUP2 DUP7 GAS STATICCALL ISZERO DUP1 ISZERO PUSH2 0x3196 JUMPI RETURNDATASIZE PUSH1 0x0 DUP1 RETURNDATACOPY RETURNDATASIZE PUSH1 0x0 REVERT JUMPDEST POP POP POP POP PUSH1 0x40 MLOAD RETURNDATASIZE PUSH1 0x1F NOT PUSH1 0x1F DUP3 ADD AND DUP3 ADD DUP1 PUSH1 0x40 MSTORE POP DUP2 ADD SWAP1 PUSH2 0x31BA SWAP2 SWAP1 PUSH2 0x4C26 JUMP JUMPDEST SWAP1 POP PUSH1 0x0 DUP4 PUSH1 0x80 ADD MLOAD PUSH20 0xFFFFFFFFFFFFFFFFFFFFFFFFFFFFFFFFFFFFFFFF AND PUSH4 0x24570F8D DUP11 PUSH1 0x40 MLOAD DUP3 PUSH4 0xFFFFFFFF AND PUSH1 0xE0 SHL DUP2 MSTORE PUSH1 0x4 ADD PUSH2 0x31FB SWAP2 SWAP1 PUSH2 0x495F JUMP JUMPDEST PUSH1 0x20 PUSH1 0x40 MLOAD DUP1 DUP4 SUB DUP2 DUP7 GAS STATICCALL ISZERO DUP1 ISZERO PUSH2 0x3218 JUMPI RETURNDATASIZE PUSH1 0x0 DUP1 RETURNDATACOPY RETURNDATASIZE PUSH1 0x0 REVERT JUMPDEST POP POP POP POP PUSH1 0x40 MLOAD RETURNDATASIZE PUSH1 0x1F NOT PUSH1 0x1F DUP3 ADD AND DUP3 ADD DUP1 PUSH1 0x40 MSTORE POP DUP2 ADD SWAP1 PUSH2 0x323C SWAP2 SWAP1 PUSH2 0x4C26 JUMP JUMPDEST SWAP1 POP PUSH1 0x0 DUP12 PUSH20 0xFFFFFFFFFFFFFFFFFFFFFFFFFFFFFFFFFFFFFFFF AND PUSH4 0xB3596F07 DUP10 DUP9 DUP2 MLOAD DUP2 LT PUSH2 0x326F JUMPI PUSH2 0x326E PUSH2 0x4EAD JUMP JUMPDEST JUMPDEST PUSH1 0x20 MUL PUSH1 0x20 ADD ADD MLOAD PUSH1 0x40 MLOAD DUP3 PUSH4 0xFFFFFFFF AND PUSH1 0xE0 SHL DUP2 MSTORE PUSH1 0x4 ADD PUSH2 0x3293 SWAP2 SWAP1 PUSH2 0x495F JUMP JUMPDEST PUSH1 0x20 PUSH1 0x40 MLOAD DUP1 DUP4 SUB DUP2 DUP7 GAS STATICCALL ISZERO DUP1 ISZERO PUSH2 0x32B0 JUMPI RETURNDATASIZE PUSH1 0x0 DUP1 RETURNDATACOPY RETURNDATASIZE PUSH1 0x0 REVERT JUMPDEST POP POP POP POP PUSH1 0x40 MLOAD RETURNDATASIZE PUSH1 0x1F NOT PUSH1 0x1F DUP3 ADD AND DUP3 ADD DUP1 PUSH1 0x40 MSTORE POP DUP2 ADD SWAP1 PUSH2 0x32D4 SWAP2 SWAP1 PUSH2 0x4C26 JUMP JUMPDEST SWAP1 POP DUP8 DUP7 DUP2 MLOAD DUP2 LT PUSH2 0x32E9 JUMPI PUSH2 0x32E8 PUSH2 0x4EAD JUMP JUMPDEST JUMPDEST PUSH1 0x20 MUL PUSH1 0x20 ADD ADD MLOAD DUP10 DUP8 DUP2 MLOAD DUP2 LT PUSH2 0x3304 JUMPI PUSH2 0x3303 PUSH2 0x4EAD JUMP JUMPDEST JUMPDEST PUSH1 0x20 MUL PUSH1 0x20 ADD ADD MLOAD PUSH1 0x0 ADD SWAP1 PUSH20 0xFFFFFFFFFFFFFFFFFFFFFFFFFFFFFFFFFFFFFFFF AND SWAP1 DUP2 PUSH20 0xFFFFFFFFFFFFFFFFFFFFFFFFFFFFFFFFFFFFFFFF AND DUP2 MSTORE POP POP DUP1 DUP10 DUP8 DUP2 MLOAD DUP2 LT PUSH2 0x3356 JUMPI PUSH2 0x3355 PUSH2 0x4EAD JUMP JUMPDEST JUMPDEST PUSH1 0x20 MUL PUSH1 0x20 ADD ADD MLOAD PUSH1 0x20 ADD DUP2 DUP2 MSTORE POP POP DUP3 DUP10 DUP8 DUP2 MLOAD DUP2 LT PUSH2 0x337A JUMPI PUSH2 0x3379 PUSH2 0x4EAD JUMP JUMPDEST JUMPDEST PUSH1 0x20 MUL PUSH1 0x20 ADD ADD MLOAD PUSH1 0x40 ADD DUP2 DUP2 MSTORE POP POP DUP2 DUP10 DUP8 DUP2 MLOAD DUP2 LT PUSH2 0x339E JUMPI PUSH2 0x339D PUSH2 0x4EAD JUMP JUMPDEST JUMPDEST PUSH1 0x20 MUL PUSH1 0x20 ADD ADD MLOAD PUSH1 0x60 ADD DUP2 DUP2 MSTORE POP POP DUP4 PUSH1 0x0 ADD MLOAD DUP10 DUP8 DUP2 MLOAD DUP2 LT PUSH2 0x33C6 JUMPI PUSH2 0x33C5 PUSH2 0x4EAD JUMP JUMPDEST JUMPDEST PUSH1 0x20 MUL PUSH1 0x20 ADD ADD MLOAD PUSH1 0x80 ADD DUP2 DUP2 MSTORE POP POP DUP4 PUSH1 0x20 ADD MLOAD DUP10 DUP8 DUP2 MLOAD DUP2 LT PUSH2 0x33EE JUMPI PUSH2 0x33ED PUSH2 0x4EAD JUMP JUMPDEST JUMPDEST PUSH1 0x20 MUL PUSH1 0x20 ADD ADD MLOAD PUSH1 0xA0 ADD DUP2 DUP2 MSTORE POP POP POP POP POP POP POP DUP1 PUSH2 0x340D SWAP1 PUSH2 0x4F5F JUMP JUMPDEST SWAP1 POP PUSH2 0x307A JUMP JUMPDEST POP POP POP SWAP5 SWAP4 POP POP POP POP JUMP JUMPDEST PUSH1 0x0 DUP1 PUSH1 0x0 DUP1 PUSH1 0x0 DUP1 SLOAD SWAP1 PUSH2 0x100 EXP SWAP1 DIV PUSH20 0xFFFFFFFFFFFFFFFFFFFFFFFFFFFFFFFFFFFFFFFF AND PUSH20 0xFFFFFFFFFFFFFFFFFFFFFFFFFFFFFFFFFFFFFFFF AND PUSH4 0x193039D1 DUP7 PUSH1 0x40 MLOAD DUP3 PUSH4 0xFFFFFFFF AND PUSH1 0xE0 SHL DUP2 MSTORE PUSH1 0x4 ADD PUSH2 0x347E SWAP2 SWAP1 PUSH2 0x495F JUMP JUMPDEST PUSH1 0x0 PUSH1 0x40 MLOAD DUP1 DUP4 SUB DUP2 DUP7 GAS STATICCALL ISZERO DUP1 ISZERO PUSH2 0x349B JUMPI RETURNDATASIZE PUSH1 0x0 DUP1 RETURNDATACOPY RETURNDATASIZE PUSH1 0x0 REVERT JUMPDEST POP POP POP POP PUSH1 0x40 MLOAD RETURNDATASIZE PUSH1 0x0 DUP3 RETURNDATACOPY RETURNDATASIZE PUSH1 0x1F NOT PUSH1 0x1F DUP3 ADD AND DUP3 ADD DUP1 PUSH1 0x40 MSTORE POP DUP2 ADD SWAP1 PUSH2 0x34C4 SWAP2 SWAP1 PUSH2 0x4EDC JUMP JUMPDEST POP SWAP3 POP SWAP3 POP SWAP3 POP PUSH1 0x0 DUP1 PUSH1 0x0 DUP1 SLOAD SWAP1 PUSH2 0x100 EXP SWAP1 DIV PUSH20 0xFFFFFFFFFFFFFFFFFFFFFFFFFFFFFFFFFFFFFFFF AND PUSH20 0xFFFFFFFFFFFFFFFFFFFFFFFFFFFFFFFFFFFFFFFF AND PUSH4 0xF55DD6C1 PUSH1 0x40 MLOAD DUP2 PUSH4 0xFFFFFFFF AND PUSH1 0xE0 SHL DUP2 MSTORE PUSH1 0x4 ADD PUSH1 0x20 PUSH1 0x40 MLOAD DUP1 DUP4 SUB DUP2 DUP7 GAS STATICCALL ISZERO DUP1 ISZERO PUSH2 0x3539 JUMPI RETURNDATASIZE PUSH1 0x0 DUP1 RETURNDATACOPY RETURNDATASIZE PUSH1 0x0 REVERT JUMPDEST POP POP POP POP PUSH1 0x40 MLOAD RETURNDATASIZE PUSH1 0x1F NOT PUSH1 0x1F DUP3 ADD AND DUP3 ADD DUP1 PUSH1 0x40 MSTORE POP DUP2 ADD SWAP1 PUSH2 0x355D SWAP2 SWAP1 PUSH2 0x4BB9 JUMP JUMPDEST PUSH20 0xFFFFFFFFFFFFFFFFFFFFFFFFFFFFFFFFFFFFFFFF AND PUSH4 0x2F55B61 DUP9 PUSH1 0x40 MLOAD DUP3 PUSH4 0xFFFFFFFF AND PUSH1 0xE0 SHL DUP2 MSTORE PUSH1 0x4 ADD PUSH2 0x3595 SWAP2 SWAP1 PUSH2 0x495F JUMP JUMPDEST PUSH1 0x40 DUP1 MLOAD DUP1 DUP4 SUB DUP2 DUP7 GAS STATICCALL ISZERO DUP1 ISZERO PUSH2 0x35B1 JUMPI RETURNDATASIZE PUSH1 0x0 DUP1 RETURNDATACOPY RETURNDATASIZE PUSH1 0x0 REVERT JUMPDEST POP POP POP POP PUSH1 0x40 MLOAD RETURNDATASIZE PUSH1 0x1F NOT PUSH1 0x1F DUP3 ADD AND DUP3 ADD DUP1 PUSH1 0x40 MSTORE POP DUP2 ADD SWAP1 PUSH2 0x35D5 SWAP2 SWAP1 PUSH2 0x4BE6 JUMP JUMPDEST SWAP2 POP SWAP2 POP PUSH1 0x0 DUP1 PUSH1 0x0 SWAP1 SLOAD SWAP1 PUSH2 0x100 EXP SWAP1 DIV PUSH20 0xFFFFFFFFFFFFFFFFFFFFFFFFFFFFFFFFFFFFFFFF AND PUSH20 0xFFFFFFFFFFFFFFFFFFFFFFFFFFFFFFFFFFFFFFFF AND PUSH4 0x6BBE56CF DUP10 PUSH1 0x40 MLOAD DUP3 PUSH4 0xFFFFFFFF AND PUSH1 0xE0 SHL DUP2 MSTORE PUSH1 0x4 ADD PUSH2 0x3635 SWAP2 SWAP1 PUSH2 0x495F JUMP JUMPDEST PUSH1 0x20 PUSH1 0x40 MLOAD DUP1 DUP4 SUB DUP2 DUP7 GAS STATICCALL ISZERO DUP1 ISZERO PUSH2 0x3652 JUMPI RETURNDATASIZE PUSH1 0x0 DUP1 RETURNDATACOPY RETURNDATASIZE PUSH1 0x0 REVERT JUMPDEST POP POP POP POP PUSH1 0x40 MLOAD RETURNDATASIZE PUSH1 0x1F NOT PUSH1 0x1F DUP3 ADD AND DUP3 ADD DUP1 PUSH1 0x40 MSTORE POP DUP2 ADD SWAP1 PUSH2 0x3676 SWAP2 SWAP1 PUSH2 0x4C26 JUMP JUMPDEST SWAP1 POP PUSH1 0x0 DUP1 DUP3 GT DUP1 ISZERO PUSH2 0x3688 JUMPI POP DUP4 DUP4 GT JUMPDEST PUSH2 0x3692 JUMPI DUP4 PUSH2 0x36C0 JUMP JUMPDEST DUP2 DUP7 DUP6 DUP6 PUSH2 0x36A0 SWAP2 SWAP1 PUSH2 0x4C82 JUMP JUMPDEST PUSH2 0x36AA SWAP2 SWAP1 PUSH2 0x4CB6 JUMP JUMPDEST PUSH2 0x36B4 SWAP2 SWAP1 PUSH2 0x4D27 JUMP JUMPDEST DUP5 PUSH2 0x36BF SWAP2 SWAP1 PUSH2 0x4D58 JUMP JUMPDEST JUMPDEST SWAP1 POP PUSH1 0x0 PUSH2 0x36CD DUP9 PUSH2 0x375B JUMP JUMPDEST SWAP1 POP PUSH1 0x0 DUP8 GT PUSH2 0x36EC JUMPI PUSH1 0x0 DUP4 GT PUSH2 0x36E5 JUMPI DUP4 PUSH2 0x36E7 JUMP JUMPDEST DUP2 JUMPDEST PUSH2 0x3728 JUMP JUMPDEST PUSH3 0xF4240 DUP8 PUSH2 0x36FB SWAP2 SWAP1 PUSH2 0x4CB6 JUMP JUMPDEST DUP7 DUP4 PUSH2 0x3707 SWAP2 SWAP1 PUSH2 0x4CB6 JUMP JUMPDEST DUP3 DUP7 PUSH2 0x3713 SWAP2 SWAP1 PUSH2 0x4CB6 JUMP JUMPDEST PUSH2 0x371D SWAP2 SWAP1 PUSH2 0x4D58 JUMP JUMPDEST PUSH2 0x3727 SWAP2 SWAP1 PUSH2 0x4D27 JUMP JUMPDEST JUMPDEST SWAP9 POP POP POP POP POP POP POP POP POP SWAP2 SWAP1 POP JUMP JUMPDEST PUSH1 0x0 DUP1 SLOAD SWAP1 PUSH2 0x100 EXP SWAP1 DIV PUSH20 0xFFFFFFFFFFFFFFFFFFFFFFFFFFFFFFFFFFFFFFFF AND DUP2 JUMP JUMPDEST PUSH1 0x0 DUP1 JUMPDEST DUP3 MLOAD DUP2 LT ISZERO PUSH2 0x37A1 JUMPI DUP3 DUP2 DUP2 MLOAD DUP2 LT PUSH2 0x377B JUMPI PUSH2 0x377A PUSH2 0x4EAD JUMP JUMPDEST JUMPDEST PUSH1 0x20 MUL PUSH1 0x20 ADD ADD MLOAD DUP3 PUSH2 0x378E SWAP2 SWAP1 PUSH2 0x4D58 JUMP JUMPDEST SWAP2 POP DUP1 PUSH2 0x379A SWAP1 PUSH2 0x4F5F JUMP JUMPDEST SWAP1 POP PUSH2 0x375F JUMP JUMPDEST POP SWAP2 SWAP1 POP JUMP JUMPDEST PUSH1 0x40 MLOAD DUP1 PUSH1 0xA0 ADD PUSH1 0x40 MSTORE DUP1 PUSH1 0x0 PUSH20 0xFFFFFFFFFFFFFFFFFFFFFFFFFFFFFFFFFFFFFFFF AND DUP2 MSTORE PUSH1 0x20 ADD PUSH1 0x0 DUP2 MSTORE PUSH1 0x20 ADD PUSH1 0x0 DUP2 MSTORE PUSH1 0x20 ADD PUSH1 0x0 DUP2 MSTORE PUSH1 0x20 ADD PUSH1 0x60 DUP2 MSTORE POP SWAP1 JUMP JUMPDEST PUSH1 0x40 MLOAD DUP1 PUSH1 0xA0 ADD PUSH1 0x40 MSTORE DUP1 PUSH1 0x0 DUP2 MSTORE PUSH1 0x20 ADD PUSH1 0x0 DUP2 MSTORE PUSH1 0x20 ADD PUSH1 0x0 DUP2 MSTORE PUSH1 0x20 ADD PUSH1 0x0 DUP2 MSTORE PUSH1 0x20 ADD PUSH1 0x0 DUP2 MSTORE POP SWAP1 JUMP JUMPDEST PUSH1 0x40 MLOAD DUP1 PUSH1 0xA0 ADD PUSH1 0x40 MSTORE DUP1 PUSH1 0x0 PUSH20 0xFFFFFFFFFFFFFFFFFFFFFFFFFFFFFFFFFFFFFFFF AND DUP2 MSTORE PUSH1 0x20 ADD PUSH1 0x0 DUP2 MSTORE PUSH1 0x20 ADD PUSH1 0x0 DUP2 MSTORE PUSH1 0x20 ADD PUSH1 0x0 DUP2 MSTORE PUSH1 0x20 ADD PUSH1 0x0 DUP2 MSTORE POP SWAP1 JUMP JUMPDEST PUSH1 0x40 MLOAD DUP1 PUSH1 0x40 ADD PUSH1 0x40 MSTORE DUP1 PUSH1 0x0 ISZERO ISZERO DUP2 MSTORE PUSH1 0x20 ADD PUSH1 0x60 DUP2 MSTORE POP SWAP1 JUMP JUMPDEST PUSH1 0x40 MLOAD DUP1 PUSH1 0xC0 ADD PUSH1 0x40 MSTORE DUP1 PUSH1 0x0 PUSH20 0xFFFFFFFFFFFFFFFFFFFFFFFFFFFFFFFFFFFFFFFF AND DUP2 MSTORE PUSH1 0x20 ADD PUSH1 0x0 DUP2 MSTORE PUSH1 0x20 ADD PUSH1 0x0 DUP2 MSTORE PUSH1 0x20 ADD PUSH1 0x0 DUP2 MSTORE PUSH1 0x20 ADD PUSH1 0x0 DUP2 MSTORE PUSH1 0x20 ADD PUSH1 0x0 ISZERO ISZERO DUP2 MSTORE POP SWAP1 JUMP JUMPDEST PUSH1 0x40 MLOAD DUP1 PUSH1 0xA0 ADD PUSH1 0x40 MSTORE DUP1 PUSH1 0x0 PUSH20 0xFFFFFFFFFFFFFFFFFFFFFFFFFFFFFFFFFFFFFFFF AND DUP2 MSTORE PUSH1 0x20 ADD PUSH1 0x0 DUP2 MSTORE PUSH1 0x20 ADD PUSH1 0x0 DUP2 MSTORE PUSH1 0x20 ADD PUSH1 0x0 DUP2 MSTORE PUSH1 0x20 ADD PUSH1 0x60 DUP2 MSTORE POP SWAP1 JUMP JUMPDEST PUSH1 0x40 MLOAD DUP1 PUSH1 0xC0 ADD PUSH1 0x40 MSTORE DUP1 PUSH1 0x0 PUSH20 0xFFFFFFFFFFFFFFFFFFFFFFFFFFFFFFFFFFFFFFFF AND DUP2 MSTORE PUSH1 0x20 ADD PUSH1 0x0 DUP2 MSTORE PUSH1 0x20 ADD PUSH1 0x0 DUP2 MSTORE PUSH1 0x20 ADD PUSH1 0x0 DUP2 MSTORE PUSH1 0x20 ADD PUSH1 0x0 DUP2 MSTORE PUSH1 0x20 ADD PUSH1 0x0 DUP2 MSTORE POP SWAP1 JUMP JUMPDEST PUSH1 0x0 PUSH20 0xFFFFFFFFFFFFFFFFFFFFFFFFFFFFFFFFFFFFFFFF DUP3 AND SWAP1 POP SWAP2 SWAP1 POP JUMP JUMPDEST PUSH1 0x0 DUP2 SWAP1 POP SWAP2 SWAP1 POP JUMP JUMPDEST PUSH1 0x0 PUSH2 0x39A0 PUSH2 0x399B PUSH2 0x3996 DUP5 PUSH2 0x395B JUMP JUMPDEST PUSH2 0x397B JUMP JUMPDEST PUSH2 0x395B JUMP JUMPDEST SWAP1 POP SWAP2 SWAP1 POP JUMP JUMPDEST PUSH1 0x0 PUSH2 0x39B2 DUP3 PUSH2 0x3985 JUMP JUMPDEST SWAP1 POP SWAP2 SWAP1 POP JUMP JUMPDEST PUSH1 0x0 PUSH2 0x39C4 DUP3 PUSH2 0x39A7 JUMP JUMPDEST SWAP1 POP SWAP2 SWAP1 POP JUMP JUMPDEST PUSH2 0x39D4 DUP2 PUSH2 0x39B9 JUMP JUMPDEST DUP3 MSTORE POP POP JUMP JUMPDEST PUSH1 0x0 PUSH1 0x20 DUP3 ADD SWAP1 POP PUSH2 0x39EF PUSH1 0x0 DUP4 ADD DUP5 PUSH2 0x39CB JUMP JUMPDEST SWAP3 SWAP2 POP POP JUMP JUMPDEST PUSH1 0x0 PUSH1 0x40 MLOAD SWAP1 POP SWAP1 JUMP JUMPDEST PUSH1 0x0 DUP1 REVERT JUMPDEST PUSH1 0x0 DUP1 REVERT JUMPDEST PUSH1 0x0 PUSH2 0x3A14 DUP3 PUSH2 0x395B JUMP JUMPDEST SWAP1 POP SWAP2 SWAP1 POP JUMP JUMPDEST PUSH2 0x3A24 DUP2 PUSH2 0x3A09 JUMP JUMPDEST DUP2 EQ PUSH2 0x3A2F JUMPI PUSH1 0x0 DUP1 REVERT JUMPDEST POP JUMP JUMPDEST PUSH1 0x0 DUP2 CALLDATALOAD SWAP1 POP PUSH2 0x3A41 DUP2 PUSH2 0x3A1B JUMP JUMPDEST SWAP3 SWAP2 POP POP JUMP JUMPDEST PUSH1 0x0 PUSH1 0x20 DUP3 DUP5 SUB SLT ISZERO PUSH2 0x3A5D JUMPI PUSH2 0x3A5C PUSH2 0x39FF JUMP JUMPDEST JUMPDEST PUSH1 0x0 PUSH2 0x3A6B DUP5 DUP3 DUP6 ADD PUSH2 0x3A32 JUMP JUMPDEST SWAP2 POP POP SWAP3 SWAP2 POP POP JUMP JUMPDEST PUSH1 0x0 DUP2 SWAP1 POP SWAP2 SWAP1 POP JUMP JUMPDEST PUSH2 0x3A87 DUP2 PUSH2 0x3A74 JUMP JUMPDEST DUP3 MSTORE POP POP JUMP JUMPDEST PUSH1 0x0 PUSH1 0x20 DUP3 ADD SWAP1 POP PUSH2 0x3AA2 PUSH1 0x0 DUP4 ADD DUP5 PUSH2 0x3A7E JUMP JUMPDEST SWAP3 SWAP2 POP POP JUMP JUMPDEST PUSH1 0x0 PUSH1 0x60 DUP3 ADD SWAP1 POP PUSH2 0x3ABD PUSH1 0x0 DUP4 ADD DUP7 PUSH2 0x3A7E JUMP JUMPDEST PUSH2 0x3ACA PUSH1 0x20 DUP4 ADD DUP6 PUSH2 0x3A7E JUMP JUMPDEST PUSH2 0x3AD7 PUSH1 0x40 DUP4 ADD DUP5 PUSH2 0x3A7E JUMP JUMPDEST SWAP5 SWAP4 POP POP POP POP JUMP JUMPDEST PUSH1 0x0 PUSH2 0x3AEA DUP3 PUSH2 0x3A09 JUMP JUMPDEST SWAP1 POP SWAP2 SWAP1 POP JUMP JUMPDEST PUSH2 0x3AFA DUP2 PUSH2 0x3ADF JUMP JUMPDEST DUP2 EQ PUSH2 0x3B05 JUMPI PUSH1 0x0 DUP1 REVERT JUMPDEST POP JUMP JUMPDEST PUSH1 0x0 DUP2 CALLDATALOAD SWAP1 POP PUSH2 0x3B17 DUP2 PUSH2 0x3AF1 JUMP JUMPDEST SWAP3 SWAP2 POP POP JUMP JUMPDEST PUSH1 0x0 PUSH2 0x3B28 DUP3 PUSH2 0x3A09 JUMP JUMPDEST SWAP1 POP SWAP2 SWAP1 POP JUMP JUMPDEST PUSH2 0x3B38 DUP2 PUSH2 0x3B1D JUMP JUMPDEST DUP2 EQ PUSH2 0x3B43 JUMPI PUSH1 0x0 DUP1 REVERT JUMPDEST POP JUMP JUMPDEST PUSH1 0x0 DUP2 CALLDATALOAD SWAP1 POP PUSH2 0x3B55 DUP2 PUSH2 0x3B2F JUMP JUMPDEST SWAP3 SWAP2 POP POP JUMP JUMPDEST PUSH1 0x0 DUP1 PUSH1 0x40 DUP4 DUP6 SUB SLT ISZERO PUSH2 0x3B72 JUMPI PUSH2 0x3B71 PUSH2 0x39FF JUMP JUMPDEST JUMPDEST PUSH1 0x0 PUSH2 0x3B80 DUP6 DUP3 DUP7 ADD PUSH2 0x3B08 JUMP JUMPDEST SWAP3 POP POP PUSH1 0x20 PUSH2 0x3B91 DUP6 DUP3 DUP7 ADD PUSH2 0x3B46 JUMP JUMPDEST SWAP2 POP POP SWAP3 POP SWAP3 SWAP1 POP JUMP JUMPDEST PUSH1 0x0 DUP2 MLOAD SWAP1 POP SWAP2 SWAP1 POP JUMP JUMPDEST PUSH1 0x0 DUP3 DUP3 MSTORE PUSH1 0x20 DUP3 ADD SWAP1 POP SWAP3 SWAP2 POP POP JUMP JUMPDEST PUSH1 0x0 DUP2 SWAP1 POP PUSH1 0x20 DUP3 ADD SWAP1 POP SWAP2 SWAP1 POP JUMP JUMPDEST PUSH2 0x3BD0 DUP2 PUSH2 0x3A09 JUMP JUMPDEST DUP3 MSTORE POP POP JUMP JUMPDEST PUSH2 0x3BDF DUP2 PUSH2 0x3A74 JUMP JUMPDEST DUP3 MSTORE POP POP JUMP JUMPDEST PUSH1 0x0 DUP2 MLOAD SWAP1 POP SWAP2 SWAP1 POP JUMP JUMPDEST PUSH1 0x0 DUP3 DUP3 MSTORE PUSH1 0x20 DUP3 ADD SWAP1 POP SWAP3 SWAP2 POP POP JUMP JUMPDEST PUSH1 0x0 DUP2 SWAP1 POP PUSH1 0x20 DUP3 ADD SWAP1 POP SWAP2 SWAP1 POP JUMP JUMPDEST PUSH1 0x0 PUSH2 0x3C1D DUP4 DUP4 PUSH2 0x3BD6 JUMP JUMPDEST PUSH1 0x20 DUP4 ADD SWAP1 POP SWAP3 SWAP2 POP POP JUMP JUMPDEST PUSH1 0x0 PUSH1 0x20 DUP3 ADD SWAP1 POP SWAP2 SWAP1 POP JUMP JUMPDEST PUSH1 0x0 PUSH2 0x3C41 DUP3 PUSH2 0x3BE5 JUMP JUMPDEST PUSH2 0x3C4B DUP2 DUP6 PUSH2 0x3BF0 JUMP JUMPDEST SWAP4 POP PUSH2 0x3C56 DUP4 PUSH2 0x3C01 JUMP JUMPDEST DUP1 PUSH1 0x0 JUMPDEST DUP4 DUP2 LT ISZERO PUSH2 0x3C87 JUMPI DUP2 MLOAD PUSH2 0x3C6E DUP9 DUP3 PUSH2 0x3C11 JUMP JUMPDEST SWAP8 POP PUSH2 0x3C79 DUP4 PUSH2 0x3C29 JUMP JUMPDEST SWAP3 POP POP PUSH1 0x1 DUP2 ADD SWAP1 POP PUSH2 0x3C5A JUMP JUMPDEST POP DUP6 SWAP4 POP POP POP POP SWAP3 SWAP2 POP POP JUMP JUMPDEST PUSH1 0x0 PUSH1 0xA0 DUP4 ADD PUSH1 0x0 DUP4 ADD MLOAD PUSH2 0x3CAC PUSH1 0x0 DUP7 ADD DUP3 PUSH2 0x3BC7 JUMP JUMPDEST POP PUSH1 0x20 DUP4 ADD MLOAD PUSH2 0x3CBF PUSH1 0x20 DUP7 ADD DUP3 PUSH2 0x3BD6 JUMP JUMPDEST POP PUSH1 0x40 DUP4 ADD MLOAD PUSH2 0x3CD2 PUSH1 0x40 DUP7 ADD DUP3 PUSH2 0x3BD6 JUMP JUMPDEST POP PUSH1 0x60 DUP4 ADD MLOAD PUSH2 0x3CE5 PUSH1 0x60 DUP7 ADD DUP3 PUSH2 0x3BD6 JUMP JUMPDEST POP PUSH1 0x80 DUP4 ADD MLOAD DUP5 DUP3 SUB PUSH1 0x80 DUP7 ADD MSTORE PUSH2 0x3CFD DUP3 DUP3 PUSH2 0x3C36 JUMP JUMPDEST SWAP2 POP POP DUP1 SWAP2 POP POP SWAP3 SWAP2 POP POP JUMP JUMPDEST PUSH1 0x0 PUSH2 0x3D16 DUP4 DUP4 PUSH2 0x3C94 JUMP JUMPDEST SWAP1 POP SWAP3 SWAP2 POP POP JUMP JUMPDEST PUSH1 0x0 PUSH1 0x20 DUP3 ADD SWAP1 POP SWAP2 SWAP1 POP JUMP JUMPDEST PUSH1 0x0 PUSH2 0x3D36 DUP3 PUSH2 0x3B9B JUMP JUMPDEST PUSH2 0x3D40 DUP2 DUP6 PUSH2 0x3BA6 JUMP JUMPDEST SWAP4 POP DUP4 PUSH1 0x20 DUP3 MUL DUP6 ADD PUSH2 0x3D52 DUP6 PUSH2 0x3BB7 JUMP JUMPDEST DUP1 PUSH1 0x0 JUMPDEST DUP6 DUP2 LT ISZERO PUSH2 0x3D8E JUMPI DUP5 DUP5 SUB DUP10 MSTORE DUP2 MLOAD PUSH2 0x3D6F DUP6 DUP3 PUSH2 0x3D0A JUMP JUMPDEST SWAP5 POP PUSH2 0x3D7A DUP4 PUSH2 0x3D1E JUMP JUMPDEST SWAP3 POP PUSH1 0x20 DUP11 ADD SWAP10 POP POP PUSH1 0x1 DUP2 ADD SWAP1 POP PUSH2 0x3D56 JUMP JUMPDEST POP DUP3 SWAP8 POP DUP8 SWAP6 POP POP POP POP POP POP SWAP3 SWAP2 POP POP JUMP JUMPDEST PUSH1 0x0 PUSH1 0x20 DUP3 ADD SWAP1 POP DUP2 DUP2 SUB PUSH1 0x0 DUP4 ADD MSTORE PUSH2 0x3DBA DUP2 DUP5 PUSH2 0x3D2B JUMP JUMPDEST SWAP1 POP SWAP3 SWAP2 POP POP JUMP JUMPDEST PUSH1 0x0 DUP2 MLOAD SWAP1 POP SWAP2 SWAP1 POP JUMP JUMPDEST PUSH1 0x0 DUP3 DUP3 MSTORE PUSH1 0x20 DUP3 ADD SWAP1 POP SWAP3 SWAP2 POP POP JUMP JUMPDEST PUSH1 0x0 DUP2 SWAP1 POP PUSH1 0x20 DUP3 ADD SWAP1 POP SWAP2 SWAP1 POP JUMP JUMPDEST PUSH1 0xA0 DUP3 ADD PUSH1 0x0 DUP3 ADD MLOAD PUSH2 0x3E04 PUSH1 0x0 DUP6 ADD DUP3 PUSH2 0x3BD6 JUMP JUMPDEST POP PUSH1 0x20 DUP3 ADD MLOAD PUSH2 0x3E17 PUSH1 0x20 DUP6 ADD DUP3 PUSH2 0x3BD6 JUMP JUMPDEST POP PUSH1 0x40 DUP3 ADD MLOAD PUSH2 0x3E2A PUSH1 0x40 DUP6 ADD DUP3 PUSH2 0x3BD6 JUMP JUMPDEST POP PUSH1 0x60 DUP3 ADD MLOAD PUSH2 0x3E3D PUSH1 0x60 DUP6 ADD DUP3 PUSH2 0x3BD6 JUMP JUMPDEST POP PUSH1 0x80 DUP3 ADD MLOAD PUSH2 0x3E50 PUSH1 0x80 DUP6 ADD DUP3 PUSH2 0x3BD6 JUMP JUMPDEST POP POP POP POP JUMP JUMPDEST PUSH1 0x0 PUSH2 0x3E62 DUP4 DUP4 PUSH2 0x3DEE JUMP JUMPDEST PUSH1 0xA0 DUP4 ADD SWAP1 POP SWAP3 SWAP2 POP POP JUMP JUMPDEST PUSH1 0x0 PUSH1 0x20 DUP3 ADD SWAP1 POP SWAP2 SWAP1 POP JUMP JUMPDEST PUSH1 0x0 PUSH2 0x3E86 DUP3 PUSH2 0x3DC2 JUMP JUMPDEST PUSH2 0x3E90 DUP2 DUP6 PUSH2 0x3DCD JUMP JUMPDEST SWAP4 POP PUSH2 0x3E9B DUP4 PUSH2 0x3DDE JUMP JUMPDEST DUP1 PUSH1 0x0 JUMPDEST DUP4 DUP2 LT ISZERO PUSH2 0x3ECC JUMPI DUP2 MLOAD PUSH2 0x3EB3 DUP9 DUP3 PUSH2 0x3E56 JUMP JUMPDEST SWAP8 POP PUSH2 0x3EBE DUP4 PUSH2 0x3E6E JUMP JUMPDEST SWAP3 POP POP PUSH1 0x1 DUP2 ADD SWAP1 POP PUSH2 0x3E9F JUMP JUMPDEST POP DUP6 SWAP4 POP POP POP POP SWAP3 SWAP2 POP POP JUMP JUMPDEST PUSH1 0x0 PUSH1 0x20 DUP3 ADD SWAP1 POP DUP2 DUP2 SUB PUSH1 0x0 DUP4 ADD MSTORE PUSH2 0x3EF3 DUP2 DUP5 PUSH2 0x3E7B JUMP JUMPDEST SWAP1 POP SWAP3 SWAP2 POP POP JUMP JUMPDEST PUSH1 0x0 DUP1 PUSH1 0x0 PUSH1 0x60 DUP5 DUP7 SUB SLT ISZERO PUSH2 0x3F14 JUMPI PUSH2 0x3F13 PUSH2 0x39FF JUMP JUMPDEST JUMPDEST PUSH1 0x0 PUSH2 0x3F22 DUP7 DUP3 DUP8 ADD PUSH2 0x3B08 JUMP JUMPDEST SWAP4 POP POP PUSH1 0x20 PUSH2 0x3F33 DUP7 DUP3 DUP8 ADD PUSH2 0x3B46 JUMP JUMPDEST SWAP3 POP POP PUSH1 0x40 PUSH2 0x3F44 DUP7 DUP3 DUP8 ADD PUSH2 0x3A32 JUMP JUMPDEST SWAP2 POP POP SWAP3 POP SWAP3 POP SWAP3 JUMP JUMPDEST PUSH1 0x0 DUP2 MLOAD SWAP1 POP SWAP2 SWAP1 POP JUMP JUMPDEST PUSH1 0x0 DUP3 DUP3 MSTORE PUSH1 0x20 DUP3 ADD SWAP1 POP SWAP3 SWAP2 POP POP JUMP JUMPDEST PUSH1 0x0 DUP2 SWAP1 POP PUSH1 0x20 DUP3 ADD SWAP1 POP SWAP2 SWAP1 POP JUMP JUMPDEST PUSH1 0xA0 DUP3 ADD PUSH1 0x0 DUP3 ADD MLOAD PUSH2 0x3F90 PUSH1 0x0 DUP6 ADD DUP3 PUSH2 0x3BC7 JUMP JUMPDEST POP PUSH1 0x20 DUP3 ADD MLOAD PUSH2 0x3FA3 PUSH1 0x20 DUP6 ADD DUP3 PUSH2 0x3BD6 JUMP JUMPDEST POP PUSH1 0x40 DUP3 ADD MLOAD PUSH2 0x3FB6 PUSH1 0x40 DUP6 ADD DUP3 PUSH2 0x3BD6 JUMP JUMPDEST POP PUSH1 0x60 DUP3 ADD MLOAD PUSH2 0x3FC9 PUSH1 0x60 DUP6 ADD DUP3 PUSH2 0x3BD6 JUMP JUMPDEST POP PUSH1 0x80 DUP3 ADD MLOAD PUSH2 0x3FDC PUSH1 0x80 DUP6 ADD DUP3 PUSH2 0x3BD6 JUMP JUMPDEST POP POP POP POP JUMP JUMPDEST PUSH1 0x0 PUSH2 0x3FEE DUP4 DUP4 PUSH2 0x3F7A JUMP JUMPDEST PUSH1 0xA0 DUP4 ADD SWAP1 POP SWAP3 SWAP2 POP POP JUMP JUMPDEST PUSH1 0x0 PUSH1 0x20 DUP3 ADD SWAP1 POP SWAP2 SWAP1 POP JUMP JUMPDEST PUSH1 0x0 PUSH2 0x4012 DUP3 PUSH2 0x3F4E JUMP JUMPDEST PUSH2 0x401C DUP2 DUP6 PUSH2 0x3F59 JUMP JUMPDEST SWAP4 POP PUSH2 0x4027 DUP4 PUSH2 0x3F6A JUMP JUMPDEST DUP1 PUSH1 0x0 JUMPDEST DUP4 DUP2 LT ISZERO PUSH2 0x4058 JUMPI DUP2 MLOAD PUSH2 0x403F DUP9 DUP3 PUSH2 0x3FE2 JUMP JUMPDEST SWAP8 POP PUSH2 0x404A DUP4 PUSH2 0x3FFA JUMP JUMPDEST SWAP3 POP POP PUSH1 0x1 DUP2 ADD SWAP1 POP PUSH2 0x402B JUMP JUMPDEST POP DUP6 SWAP4 POP POP POP POP SWAP3 SWAP2 POP POP JUMP JUMPDEST PUSH1 0x0 PUSH1 0x20 DUP3 ADD SWAP1 POP DUP2 DUP2 SUB PUSH1 0x0 DUP4 ADD MSTORE PUSH2 0x407F DUP2 DUP5 PUSH2 0x4007 JUMP JUMPDEST SWAP1 POP SWAP3 SWAP2 POP POP JUMP JUMPDEST PUSH1 0x0 DUP1 REVERT JUMPDEST PUSH1 0x0 DUP1 REVERT JUMPDEST PUSH1 0x0 DUP1 REVERT JUMPDEST PUSH1 0x0 DUP1 DUP4 PUSH1 0x1F DUP5 ADD SLT PUSH2 0x40AC JUMPI PUSH2 0x40AB PUSH2 0x4087 JUMP JUMPDEST JUMPDEST DUP3 CALLDATALOAD SWAP1 POP PUSH8 0xFFFFFFFFFFFFFFFF DUP2 GT ISZERO PUSH2 0x40C9 JUMPI PUSH2 0x40C8 PUSH2 0x408C JUMP JUMPDEST JUMPDEST PUSH1 0x20 DUP4 ADD SWAP2 POP DUP4 PUSH1 0x20 DUP3 MUL DUP4 ADD GT ISZERO PUSH2 0x40E5 JUMPI PUSH2 0x40E4 PUSH2 0x4091 JUMP JUMPDEST JUMPDEST SWAP3 POP SWAP3 SWAP1 POP JUMP JUMPDEST PUSH1 0x0 DUP1 PUSH1 0x20 DUP4 DUP6 SUB SLT ISZERO PUSH2 0x4103 JUMPI PUSH2 0x4102 PUSH2 0x39FF JUMP JUMPDEST JUMPDEST PUSH1 0x0 DUP4 ADD CALLDATALOAD PUSH8 0xFFFFFFFFFFFFFFFF DUP2 GT ISZERO PUSH2 0x4121 JUMPI PUSH2 0x4120 PUSH2 0x3A04 JUMP JUMPDEST JUMPDEST PUSH2 0x412D DUP6 DUP3 DUP7 ADD PUSH2 0x4096 JUMP JUMPDEST SWAP3 POP SWAP3 POP POP SWAP3 POP SWAP3 SWAP1 POP JUMP JUMPDEST PUSH1 0x0 DUP2 MLOAD SWAP1 POP SWAP2 SWAP1 POP JUMP JUMPDEST PUSH1 0x0 DUP3 DUP3 MSTORE PUSH1 0x20 DUP3 ADD SWAP1 POP SWAP3 SWAP2 POP POP JUMP JUMPDEST PUSH1 0x0 DUP2 SWAP1 POP PUSH1 0x20 DUP3 ADD SWAP1 POP SWAP2 SWAP1 POP JUMP JUMPDEST PUSH1 0x0 DUP2 ISZERO ISZERO SWAP1 POP SWAP2 SWAP1 POP JUMP JUMPDEST PUSH2 0x417A DUP2 PUSH2 0x4165 JUMP JUMPDEST DUP3 MSTORE POP POP JUMP JUMPDEST PUSH1 0x0 DUP2 MLOAD SWAP1 POP SWAP2 SWAP1 POP JUMP JUMPDEST PUSH1 0x0 DUP3 DUP3 MSTORE PUSH1 0x20 DUP3 ADD SWAP1 POP SWAP3 SWAP2 POP POP JUMP JUMPDEST PUSH1 0x0 JUMPDEST DUP4 DUP2 LT ISZERO PUSH2 0x41BA JUMPI DUP1 DUP3 ADD MLOAD DUP2 DUP5 ADD MSTORE PUSH1 0x20 DUP2 ADD SWAP1 POP PUSH2 0x419F JUMP JUMPDEST PUSH1 0x0 DUP5 DUP5 ADD MSTORE POP POP POP POP JUMP JUMPDEST PUSH1 0x0 PUSH1 0x1F NOT PUSH1 0x1F DUP4 ADD AND SWAP1 POP SWAP2 SWAP1 POP JUMP JUMPDEST PUSH1 0x0 PUSH2 0x41E2 DUP3 PUSH2 0x4180 JUMP JUMPDEST PUSH2 0x41EC DUP2 DUP6 PUSH2 0x418B JUMP JUMPDEST SWAP4 POP PUSH2 0x41FC DUP2 DUP6 PUSH1 0x20 DUP7 ADD PUSH2 0x419C JUMP JUMPDEST PUSH2 0x4205 DUP2 PUSH2 0x41C6 JUMP JUMPDEST DUP5 ADD SWAP2 POP POP SWAP3 SWAP2 POP POP JUMP JUMPDEST PUSH1 0x0 PUSH1 0x40 DUP4 ADD PUSH1 0x0 DUP4 ADD MLOAD PUSH2 0x4228 PUSH1 0x0 DUP7 ADD DUP3 PUSH2 0x4171 JUMP JUMPDEST POP PUSH1 0x20 DUP4 ADD MLOAD DUP5 DUP3 SUB PUSH1 0x20 DUP7 ADD MSTORE PUSH2 0x4240 DUP3 DUP3 PUSH2 0x41D7 JUMP JUMPDEST SWAP2 POP POP DUP1 SWAP2 POP POP SWAP3 SWAP2 POP POP JUMP JUMPDEST PUSH1 0x0 PUSH2 0x4259 DUP4 DUP4 PUSH2 0x4210 JUMP JUMPDEST SWAP1 POP SWAP3 SWAP2 POP POP JUMP JUMPDEST PUSH1 0x0 PUSH1 0x20 DUP3 ADD SWAP1 POP SWAP2 SWAP1 POP JUMP JUMPDEST PUSH1 0x0 PUSH2 0x4279 DUP3 PUSH2 0x4139 JUMP JUMPDEST PUSH2 0x4283 DUP2 DUP6 PUSH2 0x4144 JUMP JUMPDEST SWAP4 POP DUP4 PUSH1 0x20 DUP3 MUL DUP6 ADD PUSH2 0x4295 DUP6 PUSH2 0x4155 JUMP JUMPDEST DUP1 PUSH1 0x0 JUMPDEST DUP6 DUP2 LT ISZERO PUSH2 0x42D1 JUMPI DUP5 DUP5 SUB DUP10 MSTORE DUP2 MLOAD PUSH2 0x42B2 DUP6 DUP3 PUSH2 0x424D JUMP JUMPDEST SWAP5 POP PUSH2 0x42BD DUP4 PUSH2 0x4261 JUMP JUMPDEST SWAP3 POP PUSH1 0x20 DUP11 ADD SWAP10 POP POP PUSH1 0x1 DUP2 ADD SWAP1 POP PUSH2 0x4299 JUMP JUMPDEST POP DUP3 SWAP8 POP DUP8 SWAP6 POP POP POP POP POP POP SWAP3 SWAP2 POP POP JUMP JUMPDEST PUSH1 0x0 PUSH1 0x20 DUP3 ADD SWAP1 POP DUP2 DUP2 SUB PUSH1 0x0 DUP4 ADD MSTORE PUSH2 0x42FD DUP2 DUP5 PUSH2 0x426E JUMP JUMPDEST SWAP1 POP SWAP3 SWAP2 POP POP JUMP JUMPDEST PUSH1 0x0 DUP1 PUSH1 0x0 PUSH1 0x60 DUP5 DUP7 SUB SLT ISZERO PUSH2 0x431E JUMPI PUSH2 0x431D PUSH2 0x39FF JUMP JUMPDEST JUMPDEST PUSH1 0x0 PUSH2 0x432C DUP7 DUP3 DUP8 ADD PUSH2 0x3B08 JUMP JUMPDEST SWAP4 POP POP PUSH1 0x20 PUSH2 0x433D DUP7 DUP3 DUP8 ADD PUSH2 0x3A32 JUMP JUMPDEST SWAP3 POP POP PUSH1 0x40 PUSH2 0x434E DUP7 DUP3 DUP8 ADD PUSH2 0x3A32 JUMP JUMPDEST SWAP2 POP POP SWAP3 POP SWAP3 POP SWAP3 JUMP JUMPDEST PUSH1 0x0 PUSH2 0x4363 DUP3 PUSH2 0x3A09 JUMP JUMPDEST SWAP1 POP SWAP2 SWAP1 POP JUMP JUMPDEST PUSH2 0x4373 DUP2 PUSH2 0x4358 JUMP JUMPDEST DUP2 EQ PUSH2 0x437E JUMPI PUSH1 0x0 DUP1 REVERT JUMPDEST POP JUMP JUMPDEST PUSH1 0x0 DUP2 CALLDATALOAD SWAP1 POP PUSH2 0x4390 DUP2 PUSH2 0x436A JUMP JUMPDEST SWAP3 SWAP2 POP POP JUMP JUMPDEST PUSH1 0x0 DUP1 PUSH1 0x40 DUP4 DUP6 SUB SLT ISZERO PUSH2 0x43AD JUMPI PUSH2 0x43AC PUSH2 0x39FF JUMP JUMPDEST JUMPDEST PUSH1 0x0 PUSH2 0x43BB DUP6 DUP3 DUP7 ADD PUSH2 0x4381 JUMP JUMPDEST SWAP3 POP POP PUSH1 0x20 PUSH2 0x43CC DUP6 DUP3 DUP7 ADD PUSH2 0x3B46 JUMP JUMPDEST SWAP2 POP POP SWAP3 POP SWAP3 SWAP1 POP JUMP JUMPDEST PUSH1 0x0 PUSH1 0x40 DUP3 ADD SWAP1 POP PUSH2 0x43EB PUSH1 0x0 DUP4 ADD DUP6 PUSH2 0x3A7E JUMP JUMPDEST PUSH2 0x43F8 PUSH1 0x20 DUP4 ADD DUP5 PUSH2 0x3A7E JUMP JUMPDEST SWAP4 SWAP3 POP POP POP JUMP JUMPDEST PUSH1 0x0 PUSH2 0x440A DUP3 PUSH2 0x3A09 JUMP JUMPDEST SWAP1 POP SWAP2 SWAP1 POP JUMP JUMPDEST PUSH2 0x441A DUP2 PUSH2 0x43FF JUMP JUMPDEST DUP2 EQ PUSH2 0x4425 JUMPI PUSH1 0x0 DUP1 REVERT JUMPDEST POP JUMP JUMPDEST PUSH1 0x0 DUP2 CALLDATALOAD SWAP1 POP PUSH2 0x4437 DUP2 PUSH2 0x4411 JUMP JUMPDEST SWAP3 SWAP2 POP POP JUMP JUMPDEST PUSH1 0x0 DUP1 PUSH1 0x40 DUP4 DUP6 SUB SLT ISZERO PUSH2 0x4454 JUMPI PUSH2 0x4453 PUSH2 0x39FF JUMP JUMPDEST JUMPDEST PUSH1 0x0 PUSH2 0x4462 DUP6 DUP3 DUP7 ADD PUSH2 0x4428 JUMP JUMPDEST SWAP3 POP POP PUSH1 0x20 PUSH2 0x4473 DUP6 DUP3 DUP7 ADD PUSH2 0x3B46 JUMP JUMPDEST SWAP2 POP POP SWAP3 POP SWAP3 SWAP1 POP JUMP JUMPDEST PUSH1 0x0 DUP2 MLOAD SWAP1 POP SWAP2 SWAP1 POP JUMP JUMPDEST PUSH1 0x0 DUP3 DUP3 MSTORE PUSH1 0x20 DUP3 ADD SWAP1 POP SWAP3 SWAP2 POP POP JUMP JUMPDEST PUSH1 0x0 DUP2 SWAP1 POP PUSH1 0x20 DUP3 ADD SWAP1 POP SWAP2 SWAP1 POP JUMP JUMPDEST PUSH1 0xC0 DUP3 ADD PUSH1 0x0 DUP3 ADD MLOAD PUSH2 0x44BF PUSH1 0x0 DUP6 ADD DUP3 PUSH2 0x3BC7 JUMP JUMPDEST POP PUSH1 0x20 DUP3 ADD MLOAD PUSH2 0x44D2 PUSH1 0x20 DUP6 ADD DUP3 PUSH2 0x3BD6 JUMP JUMPDEST POP PUSH1 0x40 DUP3 ADD MLOAD PUSH2 0x44E5 PUSH1 0x40 DUP6 ADD DUP3 PUSH2 0x3BD6 JUMP JUMPDEST POP PUSH1 0x60 DUP3 ADD MLOAD PUSH2 0x44F8 PUSH1 0x60 DUP6 ADD DUP3 PUSH2 0x3BD6 JUMP JUMPDEST POP PUSH1 0x80 DUP3 ADD MLOAD PUSH2 0x450B PUSH1 0x80 DUP6 ADD DUP3 PUSH2 0x3BD6 JUMP JUMPDEST POP PUSH1 0xA0 DUP3 ADD MLOAD PUSH2 0x451E PUSH1 0xA0 DUP6 ADD DUP3 PUSH2 0x4171 JUMP JUMPDEST POP POP POP POP JUMP JUMPDEST PUSH1 0x0 PUSH2 0x4530 DUP4 DUP4 PUSH2 0x44A9 JUMP JUMPDEST PUSH1 0xC0 DUP4 ADD SWAP1 POP SWAP3 SWAP2 POP POP JUMP JUMPDEST PUSH1 0x0 PUSH1 0x20 DUP3 ADD SWAP1 POP SWAP2 SWAP1 POP JUMP JUMPDEST PUSH1 0x0 PUSH2 0x4554 DUP3 PUSH2 0x447D JUMP JUMPDEST PUSH2 0x455E DUP2 DUP6 PUSH2 0x4488 JUMP JUMPDEST SWAP4 POP PUSH2 0x4569 DUP4 PUSH2 0x4499 JUMP JUMPDEST DUP1 PUSH1 0x0 JUMPDEST DUP4 DUP2 LT ISZERO PUSH2 0x459A JUMPI DUP2 MLOAD PUSH2 0x4581 DUP9 DUP3 PUSH2 0x4524 JUMP JUMPDEST SWAP8 POP PUSH2 0x458C DUP4 PUSH2 0x453C JUMP JUMPDEST SWAP3 POP POP PUSH1 0x1 DUP2 ADD SWAP1 POP PUSH2 0x456D JUMP JUMPDEST POP DUP6 SWAP4 POP POP POP POP SWAP3 SWAP2 POP POP JUMP JUMPDEST PUSH1 0x0 PUSH1 0x20 DUP3 ADD SWAP1 POP DUP2 DUP2 SUB PUSH1 0x0 DUP4 ADD MSTORE PUSH2 0x45C1 DUP2 DUP5 PUSH2 0x4549 JUMP JUMPDEST SWAP1 POP SWAP3 SWAP2 POP POP JUMP JUMPDEST PUSH1 0x0 DUP2 MLOAD SWAP1 POP SWAP2 SWAP1 POP JUMP JUMPDEST PUSH1 0x0 DUP3 DUP3 MSTORE PUSH1 0x20 DUP3 ADD SWAP1 POP SWAP3 SWAP2 POP POP JUMP JUMPDEST PUSH1 0x0 DUP2 SWAP1 POP PUSH1 0x20 DUP3 ADD SWAP1 POP SWAP2 SWAP1 POP JUMP JUMPDEST PUSH1 0x0 PUSH1 0xA0 DUP4 ADD PUSH1 0x0 DUP4 ADD MLOAD PUSH2 0x460D PUSH1 0x0 DUP7 ADD DUP3 PUSH2 0x3BC7 JUMP JUMPDEST POP PUSH1 0x20 DUP4 ADD MLOAD PUSH2 0x4620 PUSH1 0x20 DUP7 ADD DUP3 PUSH2 0x3BD6 JUMP JUMPDEST POP PUSH1 0x40 DUP4 ADD MLOAD PUSH2 0x4633 PUSH1 0x40 DUP7 ADD DUP3 PUSH2 0x3BD6 JUMP JUMPDEST POP PUSH1 0x60 DUP4 ADD MLOAD PUSH2 0x4646 PUSH1 0x60 DUP7 ADD DUP3 PUSH2 0x3BD6 JUMP JUMPDEST POP PUSH1 0x80 DUP4 ADD MLOAD DUP5 DUP3 SUB PUSH1 0x80 DUP7 ADD MSTORE PUSH2 0x465E DUP3 DUP3 PUSH2 0x3C36 JUMP JUMPDEST SWAP2 POP POP DUP1 SWAP2 POP POP SWAP3 SWAP2 POP POP JUMP JUMPDEST PUSH1 0x0 PUSH2 0x4677 DUP4 DUP4 PUSH2 0x45F5 JUMP JUMPDEST SWAP1 POP SWAP3 SWAP2 POP POP JUMP JUMPDEST PUSH1 0x0 PUSH1 0x20 DUP3 ADD SWAP1 POP SWAP2 SWAP1 POP JUMP JUMPDEST PUSH1 0x0 PUSH2 0x4697 DUP3 PUSH2 0x45C9 JUMP JUMPDEST PUSH2 0x46A1 DUP2 DUP6 PUSH2 0x45D4 JUMP JUMPDEST SWAP4 POP DUP4 PUSH1 0x20 DUP3 MUL DUP6 ADD PUSH2 0x46B3 DUP6 PUSH2 0x45E5 JUMP JUMPDEST DUP1 PUSH1 0x0 JUMPDEST DUP6 DUP2 LT ISZERO PUSH2 0x46EF JUMPI DUP5 DUP5 SUB DUP10 MSTORE DUP2 MLOAD PUSH2 0x46D0 DUP6 DUP3 PUSH2 0x466B JUMP JUMPDEST SWAP5 POP PUSH2 0x46DB DUP4 PUSH2 0x467F JUMP JUMPDEST SWAP3 POP PUSH1 0x20 DUP11 ADD SWAP10 POP POP PUSH1 0x1 DUP2 ADD SWAP1 POP PUSH2 0x46B7 JUMP JUMPDEST POP DUP3 SWAP8 POP DUP8 SWAP6 POP POP POP POP POP POP SWAP3 SWAP2 POP POP JUMP JUMPDEST PUSH1 0x0 PUSH1 0x20 DUP3 ADD SWAP1 POP DUP2 DUP2 SUB PUSH1 0x0 DUP4 ADD MSTORE PUSH2 0x471B DUP2 DUP5 PUSH2 0x468C JUMP JUMPDEST SWAP1 POP SWAP3 SWAP2 POP POP JUMP JUMPDEST PUSH1 0x0 PUSH2 0x472E DUP3 PUSH2 0x3A09 JUMP JUMPDEST SWAP1 POP SWAP2 SWAP1 POP JUMP JUMPDEST PUSH2 0x473E DUP2 PUSH2 0x4723 JUMP JUMPDEST DUP2 EQ PUSH2 0x4749 JUMPI PUSH1 0x0 DUP1 REVERT JUMPDEST POP JUMP JUMPDEST PUSH1 0x0 DUP2 CALLDATALOAD SWAP1 POP PUSH2 0x475B DUP2 PUSH2 0x4735 JUMP JUMPDEST SWAP3 SWAP2 POP POP JUMP JUMPDEST PUSH1 0x0 DUP1 PUSH1 0x0 DUP1 PUSH1 0x80 DUP6 DUP8 SUB SLT ISZERO PUSH2 0x477B JUMPI PUSH2 0x477A PUSH2 0x39FF JUMP JUMPDEST JUMPDEST PUSH1 0x0 PUSH2 0x4789 DUP8 DUP3 DUP9 ADD PUSH2 0x3B08 JUMP JUMPDEST SWAP5 POP POP PUSH1 0x20 PUSH2 0x479A DUP8 DUP3 DUP9 ADD PUSH2 0x3B46 JUMP JUMPDEST SWAP4 POP POP PUSH1 0x40 PUSH2 0x47AB DUP8 DUP3 DUP9 ADD PUSH2 0x474C JUMP JUMPDEST SWAP3 POP POP PUSH1 0x60 PUSH2 0x47BC DUP8 DUP3 DUP9 ADD PUSH2 0x3A32 JUMP JUMPDEST SWAP2 POP POP SWAP3 SWAP6 SWAP2 SWAP5 POP SWAP3 POP JUMP JUMPDEST PUSH1 0x0 DUP2 MLOAD SWAP1 POP SWAP2 SWAP1 POP JUMP JUMPDEST PUSH1 0x0 DUP3 DUP3 MSTORE PUSH1 0x20 DUP3 ADD SWAP1 POP SWAP3 SWAP2 POP POP JUMP JUMPDEST PUSH1 0x0 DUP2 SWAP1 POP PUSH1 0x20 DUP3 ADD SWAP1 POP SWAP2 SWAP1 POP JUMP JUMPDEST PUSH1 0xC0 DUP3 ADD PUSH1 0x0 DUP3 ADD MLOAD PUSH2 0x480A PUSH1 0x0 DUP6 ADD DUP3 PUSH2 0x3BC7 JUMP JUMPDEST POP PUSH1 0x20 DUP3 ADD MLOAD PUSH2 0x481D PUSH1 0x20 DUP6 ADD DUP3 PUSH2 0x3BD6 JUMP JUMPDEST POP PUSH1 0x40 DUP3 ADD MLOAD PUSH2 0x4830 PUSH1 0x40 DUP6 ADD DUP3 PUSH2 0x3BD6 JUMP JUMPDEST POP PUSH1 0x60 DUP3 ADD MLOAD PUSH2 0x4843 PUSH1 0x60 DUP6 ADD DUP3 PUSH2 0x3BD6 JUMP JUMPDEST POP PUSH1 0x80 DUP3 ADD MLOAD PUSH2 0x4856 PUSH1 0x80 DUP6 ADD DUP3 PUSH2 0x3BD6 JUMP JUMPDEST POP PUSH1 0xA0 DUP3 ADD MLOAD PUSH2 0x4869 PUSH1 0xA0 DUP6 ADD DUP3 PUSH2 0x3BD6 JUMP JUMPDEST POP POP POP POP JUMP JUMPDEST PUSH1 0x0 PUSH2 0x487B DUP4 DUP4 PUSH2 0x47F4 JUMP JUMPDEST PUSH1 0xC0 DUP4 ADD SWAP1 POP SWAP3 SWAP2 POP POP JUMP JUMPDEST PUSH1 0x0 PUSH1 0x20 DUP3 ADD SWAP1 POP SWAP2 SWAP1 POP JUMP JUMPDEST PUSH1 0x0 PUSH2 0x489F DUP3 PUSH2 0x47C8 JUMP JUMPDEST PUSH2 0x48A9 DUP2 DUP6 PUSH2 0x47D3 JUMP JUMPDEST SWAP4 POP PUSH2 0x48B4 DUP4 PUSH2 0x47E4 JUMP JUMPDEST DUP1 PUSH1 0x0 JUMPDEST DUP4 DUP2 LT ISZERO PUSH2 0x48E5 JUMPI DUP2 MLOAD PUSH2 0x48CC DUP9 DUP3 PUSH2 0x486F JUMP JUMPDEST SWAP8 POP PUSH2 0x48D7 DUP4 PUSH2 0x4887 JUMP JUMPDEST SWAP3 POP POP PUSH1 0x1 DUP2 ADD SWAP1 POP PUSH2 0x48B8 JUMP JUMPDEST POP DUP6 SWAP4 POP POP POP POP SWAP3 SWAP2 POP POP JUMP JUMPDEST PUSH1 0x0 PUSH1 0x20 DUP3 ADD SWAP1 POP DUP2 DUP2 SUB PUSH1 0x0 DUP4 ADD MSTORE PUSH2 0x490C DUP2 DUP5 PUSH2 0x4894 JUMP JUMPDEST SWAP1 POP SWAP3 SWAP2 POP POP JUMP JUMPDEST PUSH1 0x0 PUSH2 0x491F DUP3 PUSH2 0x39A7 JUMP JUMPDEST SWAP1 POP SWAP2 SWAP1 POP JUMP JUMPDEST PUSH2 0x492F DUP2 PUSH2 0x4914 JUMP JUMPDEST DUP3 MSTORE POP POP JUMP JUMPDEST PUSH1 0x0 PUSH1 0x20 DUP3 ADD SWAP1 POP PUSH2 0x494A PUSH1 0x0 DUP4 ADD DUP5 PUSH2 0x4926 JUMP JUMPDEST SWAP3 SWAP2 POP POP JUMP JUMPDEST PUSH2 0x4959 DUP2 PUSH2 0x3A09 JUMP JUMPDEST DUP3 MSTORE POP POP JUMP JUMPDEST PUSH1 0x0 PUSH1 0x20 DUP3 ADD SWAP1 POP PUSH2 0x4974 PUSH1 0x0 DUP4 ADD DUP5 PUSH2 0x4950 JUMP JUMPDEST SWAP3 SWAP2 POP POP JUMP JUMPDEST PUSH32 0x4E487B7100000000000000000000000000000000000000000000000000000000 PUSH1 0x0 MSTORE PUSH1 0x41 PUSH1 0x4 MSTORE PUSH1 0x24 PUSH1 0x0 REVERT JUMPDEST PUSH2 0x49B2 DUP3 PUSH2 0x41C6 JUMP JUMPDEST DUP2 ADD DUP2 DUP2 LT PUSH8 0xFFFFFFFFFFFFFFFF DUP3 GT OR ISZERO PUSH2 0x49D1 JUMPI PUSH2 0x49D0 PUSH2 0x497A JUMP JUMPDEST JUMPDEST DUP1 PUSH1 0x40 MSTORE POP POP POP JUMP JUMPDEST PUSH1 0x0 PUSH2 0x49E4 PUSH2 0x39F5 JUMP JUMPDEST SWAP1 POP PUSH2 0x49F0 DUP3 DUP3 PUSH2 0x49A9 JUMP JUMPDEST SWAP2 SWAP1 POP JUMP JUMPDEST PUSH1 0x0 PUSH8 0xFFFFFFFFFFFFFFFF DUP3 GT ISZERO PUSH2 0x4A10 JUMPI PUSH2 0x4A0F PUSH2 0x497A JUMP JUMPDEST JUMPDEST PUSH1 0x20 DUP3 MUL SWAP1 POP PUSH1 0x20 DUP2 ADD SWAP1 POP SWAP2 SWAP1 POP JUMP JUMPDEST PUSH2 0x4A2A DUP2 PUSH2 0x3A74 JUMP JUMPDEST DUP2 EQ PUSH2 0x4A35 JUMPI PUSH1 0x0 DUP1 REVERT JUMPDEST POP JUMP JUMPDEST PUSH1 0x0 DUP2 MLOAD SWAP1 POP PUSH2 0x4A47 DUP2 PUSH2 0x4A21 JUMP JUMPDEST SWAP3 SWAP2 POP POP JUMP JUMPDEST PUSH1 0x0 PUSH2 0x4A60 PUSH2 0x4A5B DUP5 PUSH2 0x49F5 JUMP JUMPDEST PUSH2 0x49DA JUMP JUMPDEST SWAP1 POP DUP1 DUP4 DUP3 MSTORE PUSH1 0x20 DUP3 ADD SWAP1 POP PUSH1 0x20 DUP5 MUL DUP4 ADD DUP6 DUP2 GT ISZERO PUSH2 0x4A83 JUMPI PUSH2 0x4A82 PUSH2 0x4091 JUMP JUMPDEST JUMPDEST DUP4 JUMPDEST DUP2 DUP2 LT ISZERO PUSH2 0x4AAC JUMPI DUP1 PUSH2 0x4A98 DUP9 DUP3 PUSH2 0x4A38 JUMP JUMPDEST DUP5 MSTORE PUSH1 0x20 DUP5 ADD SWAP4 POP POP PUSH1 0x20 DUP2 ADD SWAP1 POP PUSH2 0x4A85 JUMP JUMPDEST POP POP POP SWAP4 SWAP3 POP POP POP JUMP JUMPDEST PUSH1 0x0 DUP3 PUSH1 0x1F DUP4 ADD SLT PUSH2 0x4ACB JUMPI PUSH2 0x4ACA PUSH2 0x4087 JUMP JUMPDEST JUMPDEST DUP2 MLOAD PUSH2 0x4ADB DUP5 DUP3 PUSH1 0x20 DUP7 ADD PUSH2 0x4A4D JUMP JUMPDEST SWAP2 POP POP SWAP3 SWAP2 POP POP JUMP JUMPDEST PUSH1 0x0 DUP1 PUSH1 0x0 DUP1 PUSH1 0x0 PUSH1 0xA0 DUP7 DUP9 SUB SLT ISZERO PUSH2 0x4B00 JUMPI PUSH2 0x4AFF PUSH2 0x39FF JUMP JUMPDEST JUMPDEST PUSH1 0x0 DUP7 ADD MLOAD PUSH8 0xFFFFFFFFFFFFFFFF DUP2 GT ISZERO PUSH2 0x4B1E JUMPI PUSH2 0x4B1D PUSH2 0x3A04 JUMP JUMPDEST JUMPDEST PUSH2 0x4B2A DUP9 DUP3 DUP10 ADD PUSH2 0x4AB6 JUMP JUMPDEST SWAP6 POP POP PUSH1 0x20 PUSH2 0x4B3B DUP9 DUP3 DUP10 ADD PUSH2 0x4A38 JUMP JUMPDEST SWAP5 POP POP PUSH1 0x40 PUSH2 0x4B4C DUP9 DUP3 DUP10 ADD PUSH2 0x4A38 JUMP JUMPDEST SWAP4 POP POP PUSH1 0x60 PUSH2 0x4B5D DUP9 DUP3 DUP10 ADD PUSH2 0x4A38 JUMP JUMPDEST SWAP3 POP POP PUSH1 0x80 PUSH2 0x4B6E DUP9 DUP3 DUP10 ADD PUSH2 0x4A38 JUMP JUMPDEST SWAP2 POP POP SWAP3 SWAP6 POP SWAP3 SWAP6 SWAP1 SWAP4 POP JUMP JUMPDEST PUSH1 0x0 PUSH2 0x4B86 DUP3 PUSH2 0x3A09 JUMP JUMPDEST SWAP1 POP SWAP2 SWAP1 POP JUMP JUMPDEST PUSH2 0x4B96 DUP2 PUSH2 0x4B7B JUMP JUMPDEST DUP2 EQ PUSH2 0x4BA1 JUMPI PUSH1 0x0 DUP1 REVERT JUMPDEST POP JUMP JUMPDEST PUSH1 0x0 DUP2 MLOAD SWAP1 POP PUSH2 0x4BB3 DUP2 PUSH2 0x4B8D JUMP JUMPDEST SWAP3 SWAP2 POP POP JUMP JUMPDEST PUSH1 0x0 PUSH1 0x20 DUP3 DUP5 SUB SLT ISZERO PUSH2 0x4BCF JUMPI PUSH2 0x4BCE PUSH2 0x39FF JUMP JUMPDEST JUMPDEST PUSH1 0x0 PUSH2 0x4BDD DUP5 DUP3 DUP6 ADD PUSH2 0x4BA4 JUMP JUMPDEST SWAP2 POP POP SWAP3 SWAP2 POP POP JUMP JUMPDEST PUSH1 0x0 DUP1 PUSH1 0x40 DUP4 DUP6 SUB SLT ISZERO PUSH2 0x4BFD JUMPI PUSH2 0x4BFC PUSH2 0x39FF JUMP JUMPDEST JUMPDEST PUSH1 0x0 PUSH2 0x4C0B DUP6 DUP3 DUP7 ADD PUSH2 0x4A38 JUMP JUMPDEST SWAP3 POP POP PUSH1 0x20 PUSH2 0x4C1C DUP6 DUP3 DUP7 ADD PUSH2 0x4A38 JUMP JUMPDEST SWAP2 POP POP SWAP3 POP SWAP3 SWAP1 POP JUMP JUMPDEST PUSH1 0x0 PUSH1 0x20 DUP3 DUP5 SUB SLT ISZERO PUSH2 0x4C3C JUMPI PUSH2 0x4C3B PUSH2 0x39FF JUMP JUMPDEST JUMPDEST PUSH1 0x0 PUSH2 0x4C4A DUP5 DUP3 DUP6 ADD PUSH2 0x4A38 JUMP JUMPDEST SWAP2 POP POP SWAP3 SWAP2 POP POP JUMP JUMPDEST PUSH32 0x4E487B7100000000000000000000000000000000000000000000000000000000 PUSH1 0x0 MSTORE PUSH1 0x11 PUSH1 0x4 MSTORE PUSH1 0x24 PUSH1 0x0 REVERT JUMPDEST PUSH1 0x0 PUSH2 0x4C8D DUP3 PUSH2 0x3A74 JUMP JUMPDEST SWAP2 POP PUSH2 0x4C98 DUP4 PUSH2 0x3A74 JUMP JUMPDEST SWAP3 POP DUP3 DUP3 SUB SWAP1 POP DUP2 DUP2 GT ISZERO PUSH2 0x4CB0 JUMPI PUSH2 0x4CAF PUSH2 0x4C53 JUMP JUMPDEST JUMPDEST SWAP3 SWAP2 POP POP JUMP JUMPDEST PUSH1 0x0 PUSH2 0x4CC1 DUP3 PUSH2 0x3A74 JUMP JUMPDEST SWAP2 POP PUSH2 0x4CCC DUP4 PUSH2 0x3A74 JUMP JUMPDEST SWAP3 POP DUP3 DUP3 MUL PUSH2 0x4CDA DUP2 PUSH2 0x3A74 JUMP JUMPDEST SWAP2 POP DUP3 DUP3 DIV DUP5 EQ DUP4 ISZERO OR PUSH2 0x4CF1 JUMPI PUSH2 0x4CF0 PUSH2 0x4C53 JUMP JUMPDEST JUMPDEST POP SWAP3 SWAP2 POP POP JUMP JUMPDEST PUSH32 0x4E487B7100000000000000000000000000000000000000000000000000000000 PUSH1 0x0 MSTORE PUSH1 0x12 PUSH1 0x4 MSTORE PUSH1 0x24 PUSH1 0x0 REVERT JUMPDEST PUSH1 0x0 PUSH2 0x4D32 DUP3 PUSH2 0x3A74 JUMP JUMPDEST SWAP2 POP PUSH2 0x4D3D DUP4 PUSH2 0x3A74 JUMP JUMPDEST SWAP3 POP DUP3 PUSH2 0x4D4D JUMPI PUSH2 0x4D4C PUSH2 0x4CF8 JUMP JUMPDEST JUMPDEST DUP3 DUP3 DIV SWAP1 POP SWAP3 SWAP2 POP POP JUMP JUMPDEST PUSH1 0x0 PUSH2 0x4D63 DUP3 PUSH2 0x3A74 JUMP JUMPDEST SWAP2 POP PUSH2 0x4D6E DUP4 PUSH2 0x3A74 JUMP JUMPDEST SWAP3 POP DUP3 DUP3 ADD SWAP1 POP DUP1 DUP3 GT ISZERO PUSH2 0x4D86 JUMPI PUSH2 0x4D85 PUSH2 0x4C53 JUMP JUMPDEST JUMPDEST SWAP3 SWAP2 POP POP JUMP JUMPDEST PUSH1 0x0 PUSH8 0xFFFFFFFFFFFFFFFF DUP3 GT ISZERO PUSH2 0x4DA7 JUMPI PUSH2 0x4DA6 PUSH2 0x497A JUMP JUMPDEST JUMPDEST PUSH1 0x20 DUP3 MUL SWAP1 POP PUSH1 0x20 DUP2 ADD SWAP1 POP SWAP2 SWAP1 POP JUMP JUMPDEST PUSH1 0x0 DUP2 MLOAD SWAP1 POP PUSH2 0x4DC7 DUP2 PUSH2 0x3A1B JUMP JUMPDEST SWAP3 SWAP2 POP POP JUMP JUMPDEST PUSH1 0x0 PUSH2 0x4DE0 PUSH2 0x4DDB DUP5 PUSH2 0x4D8C JUMP JUMPDEST PUSH2 0x49DA JUMP JUMPDEST SWAP1 POP DUP1 DUP4 DUP3 MSTORE PUSH1 0x20 DUP3 ADD SWAP1 POP PUSH1 0x20 DUP5 MUL DUP4 ADD DUP6 DUP2 GT ISZERO PUSH2 0x4E03 JUMPI PUSH2 0x4E02 PUSH2 0x4091 JUMP JUMPDEST JUMPDEST DUP4 JUMPDEST DUP2 DUP2 LT ISZERO PUSH2 0x4E2C JUMPI DUP1 PUSH2 0x4E18 DUP9 DUP3 PUSH2 0x4DB8 JUMP JUMPDEST DUP5 MSTORE PUSH1 0x20 DUP5 ADD SWAP4 POP POP PUSH1 0x20 DUP2 ADD SWAP1 POP PUSH2 0x4E05 JUMP JUMPDEST POP POP POP SWAP4 SWAP3 POP POP POP JUMP JUMPDEST PUSH1 0x0 DUP3 PUSH1 0x1F DUP4 ADD SLT PUSH2 0x4E4B JUMPI PUSH2 0x4E4A PUSH2 0x4087 JUMP JUMPDEST JUMPDEST DUP2 MLOAD PUSH2 0x4E5B DUP5 DUP3 PUSH1 0x20 DUP7 ADD PUSH2 0x4DCD JUMP JUMPDEST SWAP2 POP POP SWAP3 SWAP2 POP POP JUMP JUMPDEST PUSH1 0x0 PUSH1 0x20 DUP3 DUP5 SUB SLT ISZERO PUSH2 0x4E7A JUMPI PUSH2 0x4E79 PUSH2 0x39FF JUMP JUMPDEST JUMPDEST PUSH1 0x0 DUP3 ADD MLOAD PUSH8 0xFFFFFFFFFFFFFFFF DUP2 GT ISZERO PUSH2 0x4E98 JUMPI PUSH2 0x4E97 PUSH2 0x3A04 JUMP JUMPDEST JUMPDEST PUSH2 0x4EA4 DUP5 DUP3 DUP6 ADD PUSH2 0x4E36 JUMP JUMPDEST SWAP2 POP POP SWAP3 SWAP2 POP POP JUMP JUMPDEST PUSH32 0x4E487B7100000000000000000000000000000000000000000000000000000000 PUSH1 0x0 MSTORE PUSH1 0x32 PUSH1 0x4 MSTORE PUSH1 0x24 PUSH1 0x0 REVERT JUMPDEST PUSH1 0x0 DUP1 PUSH1 0x0 DUP1 PUSH1 0x80 DUP6 DUP8 SUB SLT ISZERO PUSH2 0x4EF6 JUMPI PUSH2 0x4EF5 PUSH2 0x39FF JUMP JUMPDEST JUMPDEST PUSH1 0x0 DUP6 ADD MLOAD PUSH8 0xFFFFFFFFFFFFFFFF DUP2 GT ISZERO PUSH2 0x4F14 JUMPI PUSH2 0x4F13 PUSH2 0x3A04 JUMP JUMPDEST JUMPDEST PUSH2 0x4F20 DUP8 DUP3 DUP9 ADD PUSH2 0x4AB6 JUMP JUMPDEST SWAP5 POP POP PUSH1 0x20 PUSH2 0x4F31 DUP8 DUP3 DUP9 ADD PUSH2 0x4A38 JUMP JUMPDEST SWAP4 POP POP PUSH1 0x40 PUSH2 0x4F42 DUP8 DUP3 DUP9 ADD PUSH2 0x4A38 JUMP JUMPDEST SWAP3 POP POP PUSH1 0x60 PUSH2 0x4F53 DUP8 DUP3 DUP9 ADD PUSH2 0x4A38 JUMP JUMPDEST SWAP2 POP POP SWAP3 SWAP6 SWAP2 SWAP5 POP SWAP3 POP JUMP JUMPDEST PUSH1 0x0 PUSH2 0x4F6A DUP3 PUSH2 0x3A74 JUMP JUMPDEST SWAP2 POP PUSH32 0xFFFFFFFFFFFFFFFFFFFFFFFFFFFFFFFFFFFFFFFFFFFFFFFFFFFFFFFFFFFFFFFF DUP3 SUB PUSH2 0x4F9C JUMPI PUSH2 0x4F9B PUSH2 0x4C53 JUMP JUMPDEST JUMPDEST PUSH1 0x1 DUP3 ADD SWAP1 POP SWAP2 SWAP1 POP JUMP JUMPDEST PUSH1 0x0 PUSH8 0xFFFFFFFFFFFFFFFF DUP3 GT ISZERO PUSH2 0x4FC2 JUMPI PUSH2 0x4FC1 PUSH2 0x497A JUMP JUMPDEST JUMPDEST PUSH1 0x20 DUP3 MUL SWAP1 POP PUSH1 0x20 DUP2 ADD SWAP1 POP SWAP2 SWAP1 POP JUMP JUMPDEST PUSH1 0x0 DUP1 REVERT JUMPDEST PUSH1 0x0 PUSH1 0xFF DUP3 AND SWAP1 POP SWAP2 SWAP1 POP JUMP JUMPDEST PUSH2 0x4FEE DUP2 PUSH2 0x4FD8 JUMP JUMPDEST DUP2 EQ PUSH2 0x4FF9 JUMPI PUSH1 0x0 DUP1 REVERT JUMPDEST POP JUMP JUMPDEST PUSH1 0x0 DUP2 MLOAD SWAP1 POP PUSH2 0x500B DUP2 PUSH2 0x4FE5 JUMP JUMPDEST SWAP3 SWAP2 POP POP JUMP JUMPDEST PUSH2 0x501A DUP2 PUSH2 0x4165 JUMP JUMPDEST DUP2 EQ PUSH2 0x5025 JUMPI PUSH1 0x0 DUP1 REVERT JUMPDEST POP JUMP JUMPDEST PUSH1 0x0 DUP2 MLOAD SWAP1 POP PUSH2 0x5037 DUP2 PUSH2 0x5011 JUMP JUMPDEST SWAP3 SWAP2 POP POP JUMP JUMPDEST PUSH1 0x0 DUP2 MLOAD SWAP1 POP PUSH2 0x504C DUP2 PUSH2 0x436A JUMP JUMPDEST SWAP3 SWAP2 POP POP JUMP JUMPDEST PUSH1 0x0 DUP2 MLOAD SWAP1 POP PUSH2 0x5061 DUP2 PUSH2 0x4411 JUMP JUMPDEST SWAP3 SWAP2 POP POP JUMP JUMPDEST PUSH1 0x0 PUSH1 0xA0 DUP3 DUP5 SUB SLT ISZERO PUSH2 0x507D JUMPI PUSH2 0x507C PUSH2 0x4FD3 JUMP JUMPDEST JUMPDEST PUSH2 0x5087 PUSH1 0xA0 PUSH2 0x49DA JUMP JUMPDEST SWAP1 POP PUSH1 0x0 PUSH2 0x5097 DUP5 DUP3 DUP6 ADD PUSH2 0x4FFC JUMP JUMPDEST PUSH1 0x0 DUP4 ADD MSTORE POP PUSH1 0x20 PUSH2 0x50AB DUP5 DUP3 DUP6 ADD PUSH2 0x5028 JUMP JUMPDEST PUSH1 0x20 DUP4 ADD MSTORE POP PUSH1 0x40 PUSH2 0x50BF DUP5 DUP3 DUP6 ADD PUSH2 0x5028 JUMP JUMPDEST PUSH1 0x40 DUP4 ADD MSTORE POP PUSH1 0x60 PUSH2 0x50D3 DUP5 DUP3 DUP6 ADD PUSH2 0x503D JUMP JUMPDEST PUSH1 0x60 DUP4 ADD MSTORE POP PUSH1 0x80 PUSH2 0x50E7 DUP5 DUP3 DUP6 ADD PUSH2 0x5052 JUMP JUMPDEST PUSH1 0x80 DUP4 ADD MSTORE POP SWAP3 SWAP2 POP POP JUMP JUMPDEST PUSH1 0x0 PUSH2 0x5106 PUSH2 0x5101 DUP5 PUSH2 0x4FA7 JUMP JUMPDEST PUSH2 0x49DA JUMP JUMPDEST SWAP1 POP DUP1 DUP4 DUP3 MSTORE PUSH1 0x20 DUP3 ADD SWAP1 POP PUSH1 0xA0 DUP5 MUL DUP4 ADD DUP6 DUP2 GT ISZERO PUSH2 0x5129 JUMPI PUSH2 0x5128 PUSH2 0x4091 JUMP JUMPDEST JUMPDEST DUP4 JUMPDEST DUP2 DUP2 LT ISZERO PUSH2 0x5152 JUMPI DUP1 PUSH2 0x513E DUP9 DUP3 PUSH2 0x5067 JUMP JUMPDEST DUP5 MSTORE PUSH1 0x20 DUP5 ADD SWAP4 POP POP PUSH1 0xA0 DUP2 ADD SWAP1 POP PUSH2 0x512B JUMP JUMPDEST POP POP POP SWAP4 SWAP3 POP POP POP JUMP JUMPDEST PUSH1 0x0 DUP3 PUSH1 0x1F DUP4 ADD SLT PUSH2 0x5171 JUMPI PUSH2 0x5170 PUSH2 0x4087 JUMP JUMPDEST JUMPDEST DUP2 MLOAD PUSH2 0x5181 DUP5 DUP3 PUSH1 0x20 DUP7 ADD PUSH2 0x50F3 JUMP JUMPDEST SWAP2 POP POP SWAP3 SWAP2 POP POP JUMP JUMPDEST PUSH1 0x0 PUSH1 0x20 DUP3 DUP5 SUB SLT ISZERO PUSH2 0x51A0 JUMPI PUSH2 0x519F PUSH2 0x39FF JUMP JUMPDEST JUMPDEST PUSH1 0x0 DUP3 ADD MLOAD PUSH8 0xFFFFFFFFFFFFFFFF DUP2 GT ISZERO PUSH2 0x51BE JUMPI PUSH2 0x51BD PUSH2 0x3A04 JUMP JUMPDEST JUMPDEST PUSH2 0x51CA DUP5 DUP3 DUP6 ADD PUSH2 0x515C JUMP JUMPDEST SWAP2 POP POP SWAP3 SWAP2 POP POP JUMP JUMPDEST PUSH1 0x0 PUSH1 0x40 DUP3 ADD SWAP1 POP PUSH2 0x51E8 PUSH1 0x0 DUP4 ADD DUP6 PUSH2 0x4950 JUMP JUMPDEST PUSH2 0x51F5 PUSH1 0x20 DUP4 ADD DUP5 PUSH2 0x4950 JUMP JUMPDEST SWAP4 SWAP3 POP POP POP JUMP JUMPDEST PUSH1 0x0 DUP1 REVERT JUMPDEST PUSH1 0x0 DUP1 REVERT JUMPDEST PUSH1 0x0 DUP1 REVERT JUMPDEST PUSH1 0x0 DUP3 CALLDATALOAD PUSH1 0x1 PUSH1 0x60 SUB DUP4 CALLDATASIZE SUB SUB DUP2 SLT PUSH2 0x5227 JUMPI PUSH2 0x5226 PUSH2 0x51FC JUMP JUMPDEST JUMPDEST DUP1 DUP4 ADD SWAP2 POP POP SWAP3 SWAP2 POP POP JUMP JUMPDEST PUSH1 0x0 DUP1 DUP4 CALLDATALOAD PUSH1 0x1 PUSH1 0x20 SUB DUP5 CALLDATASIZE SUB SUB DUP2 SLT PUSH2 0x5250 JUMPI PUSH2 0x524F PUSH2 0x51FC JUMP JUMPDEST JUMPDEST DUP1 DUP5 ADD SWAP3 POP DUP3 CALLDATALOAD SWAP2 POP PUSH8 0xFFFFFFFFFFFFFFFF DUP3 GT ISZERO PUSH2 0x5272 JUMPI PUSH2 0x5271 PUSH2 0x5201 JUMP JUMPDEST JUMPDEST PUSH1 0x20 DUP4 ADD SWAP3 POP PUSH1 0x1 DUP3 MUL CALLDATASIZE SUB DUP4 SGT ISZERO PUSH2 0x528E JUMPI PUSH2 0x528D PUSH2 0x5206 JUMP JUMPDEST JUMPDEST POP SWAP3 POP SWAP3 SWAP1 POP JUMP JUMPDEST PUSH1 0x0 DUP2 SWAP1 POP SWAP3 SWAP2 POP POP JUMP JUMPDEST DUP3 DUP2 DUP4 CALLDATACOPY PUSH1 0x0 DUP4 DUP4 ADD MSTORE POP POP POP JUMP JUMPDEST PUSH1 0x0 PUSH2 0x52BC DUP4 DUP6 PUSH2 0x5296 JUMP JUMPDEST SWAP4 POP PUSH2 0x52C9 DUP4 DUP6 DUP5 PUSH2 0x52A1 JUMP JUMPDEST DUP3 DUP5 ADD SWAP1 POP SWAP4 SWAP3 POP POP POP JUMP JUMPDEST PUSH1 0x0 PUSH2 0x52E2 DUP3 DUP5 DUP7 PUSH2 0x52B0 JUMP JUMPDEST SWAP2 POP DUP2 SWAP1 POP SWAP4 SWAP3 POP POP POP JUMP JUMPDEST PUSH1 0x0 DUP1 PUSH1 0x0 PUSH1 0x60 DUP5 DUP7 SUB SLT ISZERO PUSH2 0x5307 JUMPI PUSH2 0x5306 PUSH2 0x39FF JUMP JUMPDEST JUMPDEST PUSH1 0x0 PUSH2 0x5315 DUP7 DUP3 DUP8 ADD PUSH2 0x4A38 JUMP JUMPDEST SWAP4 POP POP PUSH1 0x20 PUSH2 0x5326 DUP7 DUP3 DUP8 ADD PUSH2 0x4A38 JUMP JUMPDEST SWAP3 POP POP PUSH1 0x40 PUSH2 0x5337 DUP7 DUP3 DUP8 ADD PUSH2 0x5028 JUMP JUMPDEST SWAP2 POP POP SWAP3 POP SWAP3 POP SWAP3 JUMP JUMPDEST PUSH1 0x0 PUSH1 0x20 DUP3 DUP5 SUB SLT ISZERO PUSH2 0x5357 JUMPI PUSH2 0x5356 PUSH2 0x39FF JUMP JUMPDEST JUMPDEST PUSH1 0x0 PUSH2 0x5365 DUP5 DUP3 DUP6 ADD PUSH2 0x4DB8 JUMP JUMPDEST SWAP2 POP POP SWAP3 SWAP2 POP POP JUMP JUMPDEST PUSH1 0x0 PUSH1 0x20 DUP3 DUP5 SUB SLT ISZERO PUSH2 0x5384 JUMPI PUSH2 0x5383 PUSH2 0x39FF JUMP JUMPDEST JUMPDEST PUSH1 0x0 PUSH2 0x5392 DUP5 DUP3 DUP6 ADD PUSH2 0x5028 JUMP JUMPDEST SWAP2 POP POP SWAP3 SWAP2 POP POP JUMP JUMPDEST PUSH1 0x0 PUSH1 0xA0 DUP3 DUP5 SUB SLT ISZERO PUSH2 0x53B1 JUMPI PUSH2 0x53B0 PUSH2 0x4FD3 JUMP JUMPDEST JUMPDEST PUSH2 0x53BB PUSH1 0xA0 PUSH2 0x49DA JUMP JUMPDEST SWAP1 POP PUSH1 0x0 PUSH2 0x53CB DUP5 DUP3 DUP6 ADD PUSH2 0x4A38 JUMP JUMPDEST PUSH1 0x0 DUP4 ADD MSTORE POP PUSH1 0x20 PUSH2 0x53DF DUP5 DUP3 DUP6 ADD PUSH2 0x4A38 JUMP JUMPDEST PUSH1 0x20 DUP4 ADD MSTORE POP PUSH1 0x40 PUSH2 0x53F3 DUP5 DUP3 DUP6 ADD PUSH2 0x4A38 JUMP JUMPDEST PUSH1 0x40 DUP4 ADD MSTORE POP PUSH1 0x60 PUSH2 0x5407 DUP5 DUP3 DUP6 ADD PUSH2 0x4A38 JUMP JUMPDEST PUSH1 0x60 DUP4 ADD MSTORE POP PUSH1 0x80 PUSH2 0x541B DUP5 DUP3 DUP6 ADD PUSH2 0x4A38 JUMP JUMPDEST PUSH1 0x80 DUP4 ADD MSTORE POP SWAP3 SWAP2 POP POP JUMP JUMPDEST PUSH1 0x0 PUSH1 0xA0 DUP3 DUP5 SUB SLT ISZERO PUSH2 0x543D JUMPI PUSH2 0x543C PUSH2 0x39FF JUMP JUMPDEST JUMPDEST PUSH1 0x0 PUSH2 0x544B DUP5 DUP3 DUP6 ADD PUSH2 0x539B JUMP JUMPDEST SWAP2 POP POP SWAP3 SWAP2 POP POP JUMP INVALID LOG2 PUSH5 0x6970667358 0x22 SLT KECCAK256 DUP9 0xC2 SWAP14 0xEF ADD 0x26 SWAP2 CALLCODE CALLCODE DUP9 AND 0xE8 EXTCODESIZE XOR NOT SWAP9 0x1E DUP13 PUSH32 0x12AFB5E22D0570ECDB5448EC6D64736F6C634300081100330000000000000000 "
		},
		"gasEstimates": {
			"creation": {
				"codeDepositCost": "4328400",
				"executionCost": "infinite",
				"totalCost": "infinite"
			},
			"external": {
				"aaveLogic()": "infinite",
				"aggregate3((address,bool,bytes)[])": "infinite",
				"compoundLogic()": "infinite",
				"getBorrowMarkets(address,address)": "infinite",
				"getCurrentBorrowRate(address)": "infinite",
				"getCurrentBorrowRates(address)": "infinite",
				"getCurrentSupplyRate(address)": "infinite",
				"getCurrentSupplyRates(address)": "infinite",
				"getDTokenConvertRate(address,address)": "infinite",
				"getLendingRate(address)": "infinite",
				"getMarketsInfo(address,address)": "infinite",
				"getPlatformInfo(address,address)": "infinite",
				"getSTokenConvertRate(address,address)": "infinite",
				"getSupplyMarkets(address,address)": "infinite",
				"getTokenInfoWithUser(address,address,address,address)": "infinite",
				"getUserBorrowed(address,address,address)": "infinite",
				"getUserInfo(address,address,address)": "infinite",
				"getUserSupplied(address,address,address)": "infinite",
				"router()": "infinite"
			}
		},
		"methodIdentifiers": {
			"aaveLogic()": "2206d3bd",
			"aggregate3((address,bool,bytes)[])": "82ad56cb",
			"compoundLogic()": "11089f44",
			"getBorrowMarkets(address,address)": "63bb6add",
			"getCurrentBorrowRate(address)": "f1745d3d",
			"getCurrentBorrowRates(address)": "37e72649",
			"getCurrentSupplyRate(address)": "22f98667",
			"getCurrentSupplyRates(address)": "34c7e984",
			"getDTokenConvertRate(address,address)": "c1e30fbe",
			"getLendingRate(address)": "35fe70f4",
			"getMarketsInfo(address,address)": "6eb2909b",
			"getPlatformInfo(address,address)": "beea729f",
			"getSTokenConvertRate(address,address)": "b9b43585",
			"getSupplyMarkets(address,address)": "e3d416bf",
			"getTokenInfoWithUser(address,address,address,address)": "ef9beda9",
			"getUserBorrowed(address,address,address)": "8129b156",
			"getUserInfo(address,address,address)": "85786968",
			"getUserSupplied(address,address,address)": "c9f58a42",
			"router()": "f887ea40"
		}
	},
	"abi": [
		{
			"inputs": [
				{
					"internalType": "address",
					"name": "_router",
					"type": "address"
				},
				{
					"internalType": "address",
					"name": "_aaveLogic",
					"type": "address"
				},
				{
					"internalType": "address",
					"name": "_compoundLogic",
					"type": "address"
				}
			],
			"stateMutability": "nonpayable",
			"type": "constructor"
		},
		{
			"inputs": [],
			"name": "aaveLogic",
			"outputs": [
				{
					"internalType": "contract IProtocol",
					"name": "",
					"type": "address"
				}
			],
			"stateMutability": "view",
			"type": "function"
		},
		{
			"inputs": [
				{
					"components": [
						{
							"internalType": "address",
							"name": "target",
							"type": "address"
						},
						{
							"internalType": "bool",
							"name": "allowFailure",
							"type": "bool"
						},
						{
							"internalType": "bytes",
							"name": "callData",
							"type": "bytes"
						}
					],
					"internalType": "struct MulticallHelper.Call3[]",
					"name": "calls",
					"type": "tuple[]"
				}
			],
			"name": "aggregate3",
			"outputs": [
				{
					"components": [
						{
							"internalType": "bool",
							"name": "success",
							"type": "bool"
						},
						{
							"internalType": "bytes",
							"name": "returnData",
							"type": "bytes"
						}
					],
					"internalType": "struct MulticallHelper.Result[]",
					"name": "returnData",
					"type": "tuple[]"
				}
			],
			"stateMutability": "payable",
			"type": "function"
		},
		{
			"inputs": [],
			"name": "compoundLogic",
			"outputs": [
				{
					"internalType": "contract IProtocol",
					"name": "",
					"type": "address"
				}
			],
			"stateMutability": "view",
			"type": "function"
		},
		{
			"inputs": [
				{
					"internalType": "contract IRouter",
					"name": "router",
					"type": "address"
				},
				{
					"internalType": "contract IPriceOracle",
					"name": "oracle",
					"type": "address"
				}
			],
			"name": "getBorrowMarkets",
			"outputs": [
				{
					"components": [
						{
							"internalType": "address",
							"name": "underlying",
							"type": "address"
						},
						{
							"internalType": "uint256",
							"name": "borrowAmount",
							"type": "uint256"
						},
						{
							"internalType": "uint256",
							"name": "borrowValue",
							"type": "uint256"
						},
						{
							"internalType": "uint256",
							"name": "matchAmount",
							"type": "uint256"
						},
						{
							"internalType": "uint256[]",
							"name": "borrows",
							"type": "uint256[]"
						}
					],
					"internalType": "struct QueryHelper.BorrowMarket[]",
					"name": "borrowMarket",
					"type": "tuple[]"
				}
			],
			"stateMutability": "view",
			"type": "function"
		},
		{
			"inputs": [
				{
					"internalType": "address",
					"name": "_underlying",
					"type": "address"
				}
			],
			"name": "getCurrentBorrowRate",
			"outputs": [
				{
					"internalType": "uint256",
					"name": "",
					"type": "uint256"
				}
			],
			"stateMutability": "view",
			"type": "function"
		},
		{
			"inputs": [
				{
					"internalType": "address",
					"name": "_underlying",
					"type": "address"
				}
			],
			"name": "getCurrentBorrowRates",
			"outputs": [
				{
					"internalType": "uint256",
					"name": "aggBorrowRate",
					"type": "uint256"
				},
				{
					"internalType": "uint256",
					"name": "aaveBorrowRate",
					"type": "uint256"
				},
				{
					"internalType": "uint256",
					"name": "compBorrowRate",
					"type": "uint256"
				}
			],
			"stateMutability": "view",
			"type": "function"
		},
		{
			"inputs": [
				{
					"internalType": "address",
					"name": "_underlying",
					"type": "address"
				}
			],
			"name": "getCurrentSupplyRate",
			"outputs": [
				{
					"internalType": "uint256",
					"name": "",
					"type": "uint256"
				}
			],
			"stateMutability": "view",
			"type": "function"
		},
		{
			"inputs": [
				{
					"internalType": "address",
					"name": "_underlying",
					"type": "address"
				}
			],
			"name": "getCurrentSupplyRates",
			"outputs": [
				{
					"internalType": "uint256",
					"name": "aggSupplyRate",
					"type": "uint256"
				},
				{
					"internalType": "uint256",
					"name": "aaveSupplyRate",
					"type": "uint256"
				},
				{
					"internalType": "uint256",
					"name": "compSupplyRate",
					"type": "uint256"
				}
			],
			"stateMutability": "view",
			"type": "function"
		},
		{
			"inputs": [
				{
					"internalType": "contract IDToken",
					"name": "dToken",
					"type": "address"
				},
				{
					"internalType": "contract IPriceOracle",
					"name": "oracle",
					"type": "address"
				}
			],
			"name": "getDTokenConvertRate",
			"outputs": [
				{
					"internalType": "uint256",
					"name": "",
					"type": "uint256"
				},
				{
					"internalType": "uint256",
					"name": "",
					"type": "uint256"
				}
			],
			"stateMutability": "view",
			"type": "function"
		},
		{
			"inputs": [
				{
					"internalType": "address",
					"name": "_underlying",
					"type": "address"
				}
			],
			"name": "getLendingRate",
			"outputs": [
				{
					"internalType": "uint256",
					"name": "",
					"type": "uint256"
				}
			],
			"stateMutability": "view",
			"type": "function"
		},
		{
			"inputs": [
				{
					"internalType": "contract IRouter",
					"name": "router",
					"type": "address"
				},
				{
					"internalType": "contract IPriceOracle",
					"name": "oracle",
					"type": "address"
				}
			],
			"name": "getMarketsInfo",
			"outputs": [
				{
					"components": [
						{
							"internalType": "uint256",
							"name": "totalSupplied",
							"type": "uint256"
						},
						{
							"internalType": "uint256",
							"name": "supplyRate",
							"type": "uint256"
						},
						{
							"internalType": "uint256",
							"name": "totalBorrowed",
							"type": "uint256"
						},
						{
							"internalType": "uint256",
							"name": "borrowRate",
							"type": "uint256"
						},
						{
							"internalType": "uint256",
							"name": "totalMatched",
							"type": "uint256"
						}
					],
					"internalType": "struct QueryHelper.MarketInfo[]",
					"name": "markets",
					"type": "tuple[]"
				}
			],
			"stateMutability": "view",
			"type": "function"
		},
		{
			"inputs": [
				{
					"internalType": "contract IRouter",
					"name": "router",
					"type": "address"
				},
				{
					"internalType": "contract IPriceOracle",
					"name": "oracle",
					"type": "address"
				}
			],
			"name": "getPlatformInfo",
			"outputs": [
				{
					"internalType": "uint256",
					"name": "",
					"type": "uint256"
				},
				{
					"internalType": "uint256",
					"name": "",
					"type": "uint256"
				},
				{
					"internalType": "uint256",
					"name": "",
					"type": "uint256"
				}
			],
			"stateMutability": "view",
			"type": "function"
		},
		{
			"inputs": [
				{
					"internalType": "contract ISToken",
					"name": "sToken",
					"type": "address"
				},
				{
					"internalType": "contract IPriceOracle",
					"name": "oracle",
					"type": "address"
				}
			],
			"name": "getSTokenConvertRate",
			"outputs": [
				{
					"internalType": "uint256",
					"name": "",
					"type": "uint256"
				},
				{
					"internalType": "uint256",
					"name": "",
					"type": "uint256"
				}
			],
			"stateMutability": "view",
			"type": "function"
		},
		{
			"inputs": [
				{
					"internalType": "contract IRouter",
					"name": "router",
					"type": "address"
				},
				{
					"internalType": "contract IPriceOracle",
					"name": "oracle",
					"type": "address"
				}
			],
			"name": "getSupplyMarkets",
			"outputs": [
				{
					"components": [
						{
							"internalType": "address",
							"name": "underlying",
							"type": "address"
						},
						{
							"internalType": "uint256",
							"name": "supplyAmount",
							"type": "uint256"
						},
						{
							"internalType": "uint256",
							"name": "supplyValue",
							"type": "uint256"
						},
						{
							"internalType": "uint256",
							"name": "matchAmount",
							"type": "uint256"
						},
						{
							"internalType": "uint256[]",
							"name": "supplies",
							"type": "uint256[]"
						}
					],
					"internalType": "struct QueryHelper.SupplyMarket[]",
					"name": "supplyMarket",
					"type": "tuple[]"
				}
			],
			"stateMutability": "view",
			"type": "function"
		},
		{
			"inputs": [
				{
					"internalType": "contract IRouter",
					"name": "router",
					"type": "address"
				},
				{
					"internalType": "contract IPriceOracle",
					"name": "oracle",
					"type": "address"
				},
				{
					"internalType": "contract IConfig",
					"name": "config",
					"type": "address"
				},
				{
					"internalType": "address",
					"name": "user",
					"type": "address"
				}
			],
			"name": "getTokenInfoWithUser",
			"outputs": [
				{
					"components": [
						{
							"internalType": "address",
							"name": "underlying",
							"type": "address"
						},
						{
							"internalType": "uint256",
							"name": "tokenPrice",
							"type": "uint256"
						},
						{
							"internalType": "uint256",
							"name": "depositAmount",
							"type": "uint256"
						},
						{
							"internalType": "uint256",
							"name": "borrowAmount",
							"type": "uint256"
						},
						{
							"internalType": "uint256",
							"name": "maxLTV",
							"type": "uint256"
						},
						{
							"internalType": "uint256",
							"name": "liquidationThreshold",
							"type": "uint256"
						}
					],
					"internalType": "struct QueryHelper.TokenInfoWithUser[]",
					"name": "tokenInfoWithUser",
					"type": "tuple[]"
				}
			],
			"stateMutability": "view",
			"type": "function"
		},
		{
			"inputs": [
				{
					"internalType": "contract IRouter",
					"name": "router",
					"type": "address"
				},
				{
					"internalType": "contract IPriceOracle",
					"name": "oracle",
					"type": "address"
				},
				{
					"internalType": "address",
					"name": "user",
					"type": "address"
				}
			],
			"name": "getUserBorrowed",
			"outputs": [
				{
					"components": [
						{
							"internalType": "address",
							"name": "underlying",
							"type": "address"
						},
						{
							"internalType": "uint256",
							"name": "borrowValue",
							"type": "uint256"
						},
						{
							"internalType": "uint256",
							"name": "borrowApr",
							"type": "uint256"
						},
						{
							"internalType": "uint256",
							"name": "borrowLimit",
							"type": "uint256"
						},
						{
							"internalType": "uint256",
							"name": "dailyEstInterest",
							"type": "uint256"
						}
					],
					"internalType": "struct QueryHelper.UserBorrowInfo[]",
					"name": "userBorrowInfo",
					"type": "tuple[]"
				}
			],
			"stateMutability": "view",
			"type": "function"
		},
		{
			"inputs": [
				{
					"internalType": "contract IRouter",
					"name": "router",
					"type": "address"
				},
				{
					"internalType": "address",
					"name": "user",
					"type": "address"
				},
				{
					"internalType": "address",
					"name": "_quote",
					"type": "address"
				}
			],
			"name": "getUserInfo",
			"outputs": [
				{
					"internalType": "uint256",
					"name": "collateralValue",
					"type": "uint256"
				},
				{
					"internalType": "uint256",
					"name": "borrowingValue",
					"type": "uint256"
				},
				{
					"internalType": "uint256",
					"name": "borrowLimit",
					"type": "uint256"
				}
			],
			"stateMutability": "view",
			"type": "function"
		},
		{
			"inputs": [
				{
					"internalType": "contract IRouter",
					"name": "router",
					"type": "address"
				},
				{
					"internalType": "contract IPriceOracle",
					"name": "oracle",
					"type": "address"
				},
				{
					"internalType": "address",
					"name": "user",
					"type": "address"
				}
			],
			"name": "getUserSupplied",
			"outputs": [
				{
					"components": [
						{
							"internalType": "address",
							"name": "underlying",
							"type": "address"
						},
						{
							"internalType": "uint256",
							"name": "depositValue",
							"type": "uint256"
						},
						{
							"internalType": "uint256",
							"name": "depositApr",
							"type": "uint256"
						},
						{
							"internalType": "uint256",
							"name": "availableBalance",
							"type": "uint256"
						},
						{
							"internalType": "uint256",
							"name": "dailyEstProfit",
							"type": "uint256"
						},
						{
							"internalType": "bool",
							"name": "collateral",
							"type": "bool"
						}
					],
					"internalType": "struct QueryHelper.UserSupplyInfo[]",
					"name": "userSupplyInfo",
					"type": "tuple[]"
				}
			],
			"stateMutability": "view",
			"type": "function"
		},
		{
			"inputs": [],
			"name": "router",
			"outputs": [
				{
					"internalType": "contract IRouter",
					"name": "",
					"type": "address"
				}
			],
			"stateMutability": "view",
			"type": "function"
		}
	]
}